{
  "abi": [
    {
      "anonymous": false,
      "inputs": [
        {
          "indexed": true,
          "internalType": "bytes32",
          "name": "role",
          "type": "bytes32"
        },
        {
          "indexed": true,
          "internalType": "bytes32",
          "name": "previousAdminRole",
          "type": "bytes32"
        },
        {
          "indexed": true,
          "internalType": "bytes32",
          "name": "newAdminRole",
          "type": "bytes32"
        }
      ],
      "name": "RoleAdminChanged",
      "type": "event"
    },
    {
      "anonymous": false,
      "inputs": [
        {
          "indexed": true,
          "internalType": "bytes32",
          "name": "role",
          "type": "bytes32"
        },
        {
          "indexed": true,
          "internalType": "address",
          "name": "account",
          "type": "address"
        },
        {
          "indexed": true,
          "internalType": "address",
          "name": "sender",
          "type": "address"
        }
      ],
      "name": "RoleGranted",
      "type": "event"
    },
    {
      "anonymous": false,
      "inputs": [
        {
          "indexed": true,
          "internalType": "bytes32",
          "name": "role",
          "type": "bytes32"
        },
        {
          "indexed": true,
          "internalType": "address",
          "name": "account",
          "type": "address"
        },
        {
          "indexed": true,
          "internalType": "address",
          "name": "sender",
          "type": "address"
        }
      ],
      "name": "RoleRevoked",
      "type": "event"
    },
    {
      "anonymous": false,
      "inputs": [
        {
          "indexed": true,
          "internalType": "address",
          "name": "user",
          "type": "address"
        },
        {
          "indexed": false,
          "internalType": "uint256",
          "name": "amount",
          "type": "uint256"
        },
        {
          "indexed": false,
          "internalType": "uint256",
          "name": "total",
          "type": "uint256"
        },
        {
          "indexed": true,
          "internalType": "uint256",
          "name": "timestamp",
          "type": "uint256"
        },
        {
          "indexed": true,
          "internalType": "uint256",
          "name": "blockNumber",
          "type": "uint256"
        },
        {
          "indexed": false,
          "internalType": "bytes",
          "name": "data",
          "type": "bytes"
        }
      ],
      "name": "Staked",
      "type": "event"
    },
    {
      "anonymous": false,
      "inputs": [
        {
          "indexed": true,
          "internalType": "address",
          "name": "token",
          "type": "address"
        },
        {
          "indexed": false,
          "internalType": "uint256",
          "name": "amount",
          "type": "uint256"
        },
        {
          "indexed": false,
          "internalType": "uint256",
          "name": "durationSec",
          "type": "uint256"
        },
        {
          "indexed": false,
          "internalType": "uint256",
          "name": "startTime",
          "type": "uint256"
        },
        {
          "indexed": false,
          "internalType": "uint256",
          "name": "endTime",
          "type": "uint256"
        },
        {
          "indexed": true,
          "internalType": "uint256",
          "name": "timestamp",
          "type": "uint256"
        },
        {
          "indexed": false,
          "internalType": "bytes",
          "name": "data",
          "type": "bytes"
        }
      ],
      "name": "TokensLocked",
      "type": "event"
    },
    {
      "anonymous": false,
      "inputs": [
        {
          "indexed": false,
          "internalType": "address",
          "name": "token",
          "type": "address"
        },
        {
          "indexed": false,
          "internalType": "uint256",
          "name": "initialLocked",
          "type": "uint256"
        },
        {
          "indexed": false,
          "internalType": "uint256",
          "name": "durationSec",
          "type": "uint256"
        },
        {
          "indexed": false,
          "internalType": "uint256",
          "name": "startTime",
          "type": "uint256"
        },
        {
          "indexed": false,
          "internalType": "uint256",
          "name": "endTime",
          "type": "uint256"
        }
      ],
      "name": "UnlockScheduleSet",
      "type": "event"
    },
    {
      "anonymous": false,
      "inputs": [
        {
          "indexed": true,
          "internalType": "address",
          "name": "user",
          "type": "address"
        },
        {
          "indexed": false,
          "internalType": "uint256",
          "name": "amount",
          "type": "uint256"
        },
        {
          "indexed": false,
          "internalType": "uint256",
          "name": "total",
          "type": "uint256"
        },
        {
          "indexed": true,
          "internalType": "uint256",
          "name": "timestamp",
          "type": "uint256"
        },
        {
          "indexed": true,
          "internalType": "uint256",
          "name": "blockNumber",
          "type": "uint256"
        },
        {
          "indexed": false,
          "internalType": "bytes",
          "name": "data",
          "type": "bytes"
        }
      ],
      "name": "Unstaked",
      "type": "event"
    },
    {
      "inputs": [],
      "name": "DEFAULT_ADMIN_ROLE",
      "outputs": [
        {
          "internalType": "bytes32",
          "name": "",
          "type": "bytes32"
        }
      ],
      "stateMutability": "view",
      "type": "function"
    },
    {
      "inputs": [],
      "name": "MAX_PERCENTAGE",
      "outputs": [
        {
          "internalType": "uint256",
          "name": "",
          "type": "uint256"
        }
      ],
      "stateMutability": "view",
      "type": "function"
    },
    {
      "inputs": [],
      "name": "TOKEN_LOCKER_ROLE",
      "outputs": [
        {
          "internalType": "bytes32",
          "name": "",
          "type": "bytes32"
        }
      ],
      "stateMutability": "view",
      "type": "function"
    },
    {
      "inputs": [
        {
          "internalType": "address",
          "name": "token",
          "type": "address"
        }
      ],
      "name": "addDistributionToken",
      "outputs": [],
      "stateMutability": "nonpayable",
      "type": "function"
    },
    {
      "inputs": [],
      "name": "getDistributionTokens",
      "outputs": [
        {
          "internalType": "address[]",
          "name": "",
          "type": "address[]"
        }
      ],
      "stateMutability": "view",
      "type": "function"
    },
    {
      "inputs": [],
      "name": "getNumDistributionTokens",
      "outputs": [
        {
          "internalType": "uint256",
          "name": "",
          "type": "uint256"
        }
      ],
      "stateMutability": "view",
      "type": "function"
    },
    {
      "inputs": [
        {
          "internalType": "bytes32",
          "name": "role",
          "type": "bytes32"
        }
      ],
      "name": "getRoleAdmin",
      "outputs": [
        {
          "internalType": "bytes32",
          "name": "",
          "type": "bytes32"
        }
      ],
      "stateMutability": "view",
      "type": "function"
    },
    {
      "inputs": [
        {
          "internalType": "bytes32",
          "name": "role",
          "type": "bytes32"
        },
        {
          "internalType": "uint256",
          "name": "index",
          "type": "uint256"
        }
      ],
      "name": "getRoleMember",
      "outputs": [
        {
          "internalType": "address",
          "name": "",
          "type": "address"
        }
      ],
      "stateMutability": "view",
      "type": "function"
    },
    {
      "inputs": [
        {
          "internalType": "bytes32",
          "name": "role",
          "type": "bytes32"
        }
      ],
      "name": "getRoleMemberCount",
      "outputs": [
        {
          "internalType": "uint256",
          "name": "",
          "type": "uint256"
        }
      ],
      "stateMutability": "view",
      "type": "function"
    },
    {
      "inputs": [],
      "name": "getStakingToken",
      "outputs": [
        {
          "internalType": "contract IERC20Upgradeable",
          "name": "",
          "type": "address"
        }
      ],
      "stateMutability": "view",
      "type": "function"
    },
    {
      "inputs": [
        {
          "internalType": "address",
          "name": "token",
          "type": "address"
        }
      ],
      "name": "getUnlockSchedulesFor",
      "outputs": [
        {
          "components": [
            {
              "internalType": "uint256",
              "name": "initialLocked",
              "type": "uint256"
            },
            {
              "internalType": "uint256",
              "name": "endAtSec",
              "type": "uint256"
            },
            {
              "internalType": "uint256",
              "name": "durationSec",
              "type": "uint256"
            },
            {
              "internalType": "uint256",
              "name": "startTime",
              "type": "uint256"
            }
          ],
          "internalType": "struct BadgerGeyser.UnlockSchedule[]",
          "name": "",
          "type": "tuple[]"
        }
      ],
      "stateMutability": "view",
      "type": "function"
    },
    {
      "inputs": [],
      "name": "globalStartTime",
      "outputs": [
        {
          "internalType": "uint256",
          "name": "",
          "type": "uint256"
        }
      ],
      "stateMutability": "view",
      "type": "function"
    },
    {
      "inputs": [
        {
          "internalType": "bytes32",
          "name": "role",
          "type": "bytes32"
        },
        {
          "internalType": "address",
          "name": "account",
          "type": "address"
        }
      ],
      "name": "grantRole",
      "outputs": [],
      "stateMutability": "nonpayable",
      "type": "function"
    },
    {
      "inputs": [
        {
          "internalType": "bytes32",
          "name": "role",
          "type": "bytes32"
        },
        {
          "internalType": "address",
          "name": "account",
          "type": "address"
        }
      ],
      "name": "hasRole",
      "outputs": [
        {
          "internalType": "bool",
          "name": "",
          "type": "bool"
        }
      ],
      "stateMutability": "view",
      "type": "function"
    },
    {
      "inputs": [
        {
          "internalType": "contract IERC20Upgradeable",
          "name": "stakingToken_",
          "type": "address"
        },
        {
          "internalType": "address",
          "name": "initialDistributionToken_",
          "type": "address"
        },
        {
          "internalType": "uint256",
          "name": "globalStartTime_",
          "type": "uint256"
        },
        {
          "internalType": "address",
          "name": "initialAdmin_",
          "type": "address"
        },
        {
          "internalType": "address",
          "name": "initialTokenLocker_",
          "type": "address"
        }
      ],
      "name": "initialize",
      "outputs": [],
      "stateMutability": "nonpayable",
      "type": "function"
    },
    {
      "inputs": [
        {
          "internalType": "bytes32",
          "name": "role",
          "type": "bytes32"
        },
        {
          "internalType": "address",
          "name": "account",
          "type": "address"
        }
      ],
      "name": "renounceRole",
      "outputs": [],
      "stateMutability": "nonpayable",
      "type": "function"
    },
    {
      "inputs": [
        {
          "internalType": "bytes32",
          "name": "role",
          "type": "bytes32"
        },
        {
          "internalType": "address",
          "name": "account",
          "type": "address"
        }
      ],
      "name": "revokeRole",
      "outputs": [],
      "stateMutability": "nonpayable",
      "type": "function"
    },
    {
      "inputs": [
        {
          "internalType": "address",
          "name": "token",
          "type": "address"
        },
        {
          "internalType": "uint256",
          "name": "amount",
          "type": "uint256"
        },
        {
          "internalType": "uint256",
          "name": "durationSec",
          "type": "uint256"
        },
        {
          "internalType": "uint256",
          "name": "startTime",
          "type": "uint256"
        }
      ],
      "name": "signalTokenLock",
      "outputs": [],
      "stateMutability": "nonpayable",
      "type": "function"
    },
    {
      "inputs": [
        {
          "internalType": "uint256",
          "name": "amount",
          "type": "uint256"
        },
        {
          "internalType": "bytes",
          "name": "data",
          "type": "bytes"
        }
      ],
      "name": "stake",
      "outputs": [],
      "stateMutability": "nonpayable",
      "type": "function"
    },
    {
      "inputs": [
        {
          "internalType": "address",
          "name": "user",
          "type": "address"
        },
        {
          "internalType": "uint256",
          "name": "amount",
          "type": "uint256"
        },
        {
          "internalType": "bytes",
          "name": "data",
          "type": "bytes"
        }
      ],
      "name": "stakeFor",
      "outputs": [],
      "stateMutability": "nonpayable",
      "type": "function"
    },
    {
      "inputs": [],
      "name": "supportsHistory",
      "outputs": [
        {
          "internalType": "bool",
          "name": "",
          "type": "bool"
        }
      ],
      "stateMutability": "pure",
      "type": "function"
    },
    {
      "inputs": [],
      "name": "totalStaked",
      "outputs": [
        {
          "internalType": "uint256",
          "name": "",
          "type": "uint256"
        }
      ],
      "stateMutability": "view",
      "type": "function"
    },
    {
      "inputs": [
        {
          "internalType": "address",
          "name": "addr",
          "type": "address"
        }
      ],
      "name": "totalStakedFor",
      "outputs": [
        {
          "internalType": "uint256",
          "name": "",
          "type": "uint256"
        }
      ],
      "stateMutability": "view",
      "type": "function"
    },
    {
      "inputs": [
        {
          "internalType": "address",
          "name": "token",
          "type": "address"
        }
      ],
      "name": "unlockScheduleCount",
      "outputs": [
        {
          "internalType": "uint256",
          "name": "",
          "type": "uint256"
        }
      ],
      "stateMutability": "view",
      "type": "function"
    },
    {
      "inputs": [
        {
          "internalType": "address",
          "name": "",
          "type": "address"
        },
        {
          "internalType": "uint256",
          "name": "",
          "type": "uint256"
        }
      ],
      "name": "unlockSchedules",
      "outputs": [
        {
          "internalType": "uint256",
          "name": "initialLocked",
          "type": "uint256"
        },
        {
          "internalType": "uint256",
          "name": "endAtSec",
          "type": "uint256"
        },
        {
          "internalType": "uint256",
          "name": "durationSec",
          "type": "uint256"
        },
        {
          "internalType": "uint256",
          "name": "startTime",
          "type": "uint256"
        }
      ],
      "stateMutability": "view",
      "type": "function"
    },
    {
      "inputs": [
        {
          "internalType": "uint256",
          "name": "amount",
          "type": "uint256"
        },
        {
          "internalType": "bytes",
          "name": "data",
          "type": "bytes"
        }
      ],
      "name": "unstake",
      "outputs": [],
      "stateMutability": "nonpayable",
      "type": "function"
    }
  ],
  "bytecode": "608060405234801561001057600080fd5b50611b32806100206000396000f3fe608060405234801561001057600080fd5b506004361061018e5760003560e01c80637033e4a6116100de5780639d81ff1511610097578063c8fd6ed011610071578063c8fd6ed014610339578063ca15c8731461034c578063cd616ea31461035f578063d547741f146103675761018e565b80639d81ff15146103215780639f9106d114610329578063a217fddf146103315761018e565b80637033e4a6146102b6578063817b1cd2146102cb5780638dab7191146102d35780639010d07c146102e657806391d14854146103065780639292ab5f146103195761018e565b8063328b10d81161014b5780634b341aed116101255780634b341aed146102635780634c255c97146102765780635099a9dc1461027e57806351f6cf2f146102935761018e565b8063328b10d81461021d57806333e1a2231461023d57806336568abe146102505761018e565b80630968c3d8146101935780630e89439b146101a85780630ef96356146101bb578063248a9ca3146101ce578063256fdcd6146101f75780632f2ff15d1461020a575b600080fd5b6101a66101a13660046112e7565b61037a565b005b6101a66101b6366004611410565b6103e6565b6101a66101c936600461128d565b6103fe565b6101e16101dc366004611341565b610411565b6040516101ee9190611583565b60405180910390f35b6101e1610205366004611246565b610426565b6101a6610218366004611359565b610441565b61023061022b366004611246565b610489565b6040516101ee9190611514565b6101a661024b3660046113a9565b610526565b6101a661025e366004611359565b610617565b6101e1610271366004611246565b610659565b6101e1610674565b610286610679565b6040516101ee91906114c7565b6102a66102a1366004611262565b610718565b6040516101ee9493929190611a76565b6102be61075b565b6040516101ee9190611578565b6101e1610760565b6101a66102e1366004611246565b610766565b6102f96102f4366004611388565b610779565b6040516101ee9190611476565b6102be610314366004611359565b61079a565b6101e16107b2565b6101e16107c3565b6102f96107c9565b6101e16107d8565b6101a6610347366004611410565b6107dd565b6101e161035a366004611341565b6107ef565b6101e1610806565b6101a6610375366004611359565b61082a565b610382610864565b6065548110156103ad5760405162461bcd60e51b81526004016103a49061169c565b60405180910390fd5b6103b86068856108ac565b6103d45760405162461bcd60e51b81526004016103a49061189d565b6103e0848484846108c1565b50505050565b6103ee61097a565b6103f933338561099c565b505050565b61040661097a565b6103e033858561099c565b60009081526033602052604090206002015490565b6001600160a01b03166000908152606b602052604090205490565b60008281526033602052604090206002015461045f90610314610a98565b61047b5760405162461bcd60e51b81526004016103a49061164d565b6104858282610a9c565b5050565b6001600160a01b0381166000908152606b60209081526040808320805482518185028101850190935280835260609492939192909184015b8282101561051b5783829060005260206000209060040201604051806080016040529081600082015481526020016001820154815260200160028201548152602001600382015481525050815260200190600101906104c1565b505050509050919050565b600054610100900460ff168061053f575061053f610b05565b8061054d575060005460ff16155b6105695760405162461bcd60e51b81526004016103a490611806565b600054610100900460ff16158015610594576000805460ff1961ff0019909116610100171660011790555b61059c610b0b565b6105a760008461047b565b6105d17f4bf6f2cdcc8ad6c087a7a4fbecf46150b3686b71387234cac2b3e2e6dc70e3458361047b565b606780546001600160a01b0319166001600160a01b0388161790556105f7606886610b9e565b506065849055801561060f576000805461ff00191690555b505050505050565b61061f610a98565b6001600160a01b0316816001600160a01b03161461064f5760405162461bcd60e51b81526004016103a490611a0a565b6104858282610bb3565b6001600160a01b03166000908152606a602052604090205490565b606481565b606060006106876068610c1c565b905060608167ffffffffffffffff811180156106a257600080fd5b506040519080825280602002602001820160405280156106cc578160200160208202803683370190505b50905060005b82811015610711576106e5606882610c27565b8282815181106106f157fe5b6001600160a01b03909216602092830291909101909101526001016106d2565b5091505090565b606b602052816000526040600020818154811061073157fe5b60009182526020909120600490910201805460018201546002830154600390930154919450925084565b600090565b60665481565b61076e610c33565b610485606882610b9e565b60008281526033602052604081206107919083610c27565b90505b92915050565b600082815260336020526040812061079190836108ac565b60006107be6068610c1c565b905090565b60655481565b6067546001600160a01b031690565b600081565b6107e561097a565b6103f93384610c5a565b600081815260336020526040812061079490610c1c565b7f4bf6f2cdcc8ad6c087a7a4fbecf46150b3686b71387234cac2b3e2e6dc70e34581565b60008281526033602052604090206002015461084890610314610a98565b61064f5760405162461bcd60e51b81526004016103a490611774565b61088e7f4bf6f2cdcc8ad6c087a7a4fbecf46150b3686b71387234cac2b3e2e6dc70e3453361079a565b6108aa5760405162461bcd60e51b81526004016103a490611624565b565b6000610791836001600160a01b038416610d56565b6108c96111d7565b8381526108d68284610d6e565b60208083019182526040808401868152606085018681526001600160a01b038a166000818152606b8652848120805460018181018355918352969091208851600490970201958655955195850186905591516002850155516003909301929092555142927f739472339d528d689eb4b6825d2d76852fd8870676f0b8a4bbb682d037f0fd6e9161096b91899189918991611a91565b60405180910390a35050505050565b6065544210156108aa5760405162461bcd60e51b81526004016103a4906118e6565b600081116109bc5760405162461bcd60e51b81526004016103a4906117c4565b6001600160a01b0382166109e25760405162461bcd60e51b81526004016103a490611854565b6001600160a01b0382166000908152606a6020526040902054610a059082610d6e565b6001600160a01b0383166000908152606a6020526040902055606654610a2b9082610d6e565b606655606754610a46906001600160a01b0316843084610d93565b4342836001600160a01b03167f070462f09e1fcdd39ee7dbe9165c6a369557b03057a6d820c84a600208b9b26d84610a7d87610659565b604051610a8b929190611a59565b60405180910390a4505050565b3390565b6000828152603360205260409020610ab49082610b9e565b1561048557610ac1610a98565b6001600160a01b0316816001600160a01b0316837f2f8788117e7eff1d82e926ec794901d17c78024a50270940304540a733656f0d60405160405180910390a45050565b303b1590565b600054610100900460ff1680610b245750610b24610b05565b80610b32575060005460ff16155b610b4e5760405162461bcd60e51b81526004016103a490611806565b600054610100900460ff16158015610b79576000805460ff1961ff0019909116610100171660011790555b610b81610deb565b610b89610deb565b8015610b9b576000805461ff00191690555b50565b6000610791836001600160a01b038416610e6c565b6000828152603360205260409020610bcb9082610eb6565b1561048557610bd8610a98565b6001600160a01b0316816001600160a01b0316837ff6391f5c32d9c69d2a47ea670b442974b53935d1edc7fd64eb21e047a839171b60405160405180910390a45050565b600061079482610ecb565b60006107918383610ecf565b610c3e60003361079a565b6108aa5760405162461bcd60e51b81526004016103a4906115bf565b60008111610c7a5760405162461bcd60e51b81526004016103a490611730565b80610c8483610659565b1015610ca25760405162461bcd60e51b81526004016103a4906119ad565b6001600160a01b0382166000908152606a6020526040902054610cc59082610f14565b6001600160a01b0383166000908152606a6020526040902055606654610ceb9082610f14565b606655606754610d05906001600160a01b03168383610f56565b4342836001600160a01b03167fa4cc38f55b7506135366a0bc5006873ba1b4afe26f819b633e799754f80f223d84610d3c87610659565b604051610d4a929190611a59565b60405180910390a45050565b60009081526001919091016020526040902054151590565b6000828201838110156107915760405162461bcd60e51b81526004016103a4906116f9565b6103e0846323b872dd60e01b858585604051602401610db49392919061148a565b60408051601f198184030181529190526020810180516001600160e01b03166001600160e01b031990931692909217909152610f75565b600054610100900460ff1680610e045750610e04610b05565b80610e12575060005460ff16155b610e2e5760405162461bcd60e51b81526004016103a490611806565b600054610100900460ff16158015610b89576000805460ff1961ff0019909116610100171660011790558015610b9b576000805461ff001916905550565b6000610e788383610d56565b610eae57508154600181810184556000848152602080822090930184905584548482528286019093526040902091909155610794565b506000610794565b6000610791836001600160a01b038416611004565b5490565b81546000908210610ef25760405162461bcd60e51b81526004016103a4906115e2565b826000018281548110610f0157fe5b9060005260206000200154905092915050565b600061079183836040518060400160405280601e81526020017f536166654d6174683a207375627472616374696f6e206f766572666c6f7700008152506110ca565b6103f98363a9059cbb60e01b8484604051602401610db49291906114ae565b6060610fca826040518060400160405280602081526020017f5361666545524332303a206c6f772d6c6576656c2063616c6c206661696c6564815250856001600160a01b03166110f69092919063ffffffff16565b8051909150156103f95780806020019051810190610fe89190611321565b6103f95760405162461bcd60e51b81526004016103a490611963565b600081815260018301602052604081205480156110c0578354600019808301919081019060009087908390811061103757fe5b906000526020600020015490508087600001848154811061105457fe5b60009182526020808320909101929092558281526001898101909252604090209084019055865487908061108457fe5b60019003818190600052602060002001600090559055866001016000878152602001908152602001600020600090556001945050505050610794565b6000915050610794565b600081848411156110ee5760405162461bcd60e51b81526004016103a4919061158c565b505050900390565b6060611105848460008561110d565b949350505050565b6060611118856111d1565b6111345760405162461bcd60e51b81526004016103a49061192c565b60006060866001600160a01b03168587604051611151919061145a565b60006040518083038185875af1925050503d806000811461118e576040519150601f19603f3d011682016040523d82523d6000602084013e611193565b606091505b509150915081156111a75791506111059050565b8051156111b75780518082602001fd5b8360405162461bcd60e51b81526004016103a4919061158c565b3b151590565b6040518060800160405280600081526020016000815260200160008152602001600081525090565b60008083601f840112611210578182fd5b50813567ffffffffffffffff811115611227578182fd5b60208301915083602082850101111561123f57600080fd5b9250929050565b600060208284031215611257578081fd5b813561079181611ae7565b60008060408385031215611274578081fd5b823561127f81611ae7565b946020939093013593505050565b600080600080606085870312156112a2578182fd5b84356112ad81611ae7565b935060208501359250604085013567ffffffffffffffff8111156112cf578283fd5b6112db878288016111ff565b95989497509550505050565b600080600080608085870312156112fc578384fd5b843561130781611ae7565b966020860135965060408601359560600135945092505050565b600060208284031215611332578081fd5b81518015158114610791578182fd5b600060208284031215611352578081fd5b5035919050565b6000806040838503121561136b578182fd5b82359150602083013561137d81611ae7565b809150509250929050565b6000806040838503121561139a578182fd5b50508035926020909101359150565b600080600080600060a086880312156113c0578081fd5b85356113cb81611ae7565b945060208601356113db81611ae7565b93506040860135925060608601356113f281611ae7565b9150608086013561140281611ae7565b809150509295509295909350565b600080600060408486031215611424578283fd5b83359250602084013567ffffffffffffffff811115611441578283fd5b61144d868287016111ff565b9497909650939450505050565b6000825161146c818460208701611abb565b9190910192915050565b6001600160a01b0391909116815260200190565b6001600160a01b039384168152919092166020820152604081019190915260600190565b6001600160a01b03929092168252602082015260400190565b6020808252825182820181905260009190848201906040850190845b818110156115085783516001600160a01b0316835292840192918401916001016114e3565b50909695505050505050565b602080825282518282018190526000919060409081850190868401855b8281101561156b57815180518552868101518786015285810151868601526060908101519085015260809093019290850190600101611531565b5091979650505050505050565b901515815260200190565b90815260200190565b60006020825282518060208401526115ab816040850160208701611abb565b601f01601f19169190910160400192915050565b60208082526009908201526837b7363ca0b236b4b760b91b604082015260600190565b60208082526022908201527f456e756d657261626c655365743a20696e646578206f7574206f6620626f756e604082015261647360f01b606082015260800190565b6020808252600f908201526e37b7363caa37b5b2b72637b1b5b2b960891b604082015260600190565b6020808252602f908201527f416363657373436f6e74726f6c3a2073656e646572206d75737420626520616e60408201526e0818591b5a5b881d1bc819dc985b9d608a1b606082015260800190565b6020808252603c908201527f4261646765724765797365723a205363686564756c652063616e6e6f7420737460408201527f617274206265666f726520676c6f62616c2073746172742074696d6500000000606082015260800190565b6020808252601b908201527f536166654d6174683a206164646974696f6e206f766572666c6f770000000000604082015260600190565b60208082526024908201527f4261646765724765797365723a20756e7374616b6520616d6f756e74206973206040820152637a65726f60e01b606082015260800190565b60208082526030908201527f416363657373436f6e74726f6c3a2073656e646572206d75737420626520616e60408201526f2061646d696e20746f207265766f6b6560801b606082015260800190565b60208082526022908201527f4261646765724765797365723a207374616b6520616d6f756e74206973207a65604082015261726f60f01b606082015260800190565b6020808252602e908201527f496e697469616c697a61626c653a20636f6e747261637420697320616c72656160408201526d191e481a5b9a5d1a585b1a5e995960921b606082015260800190565b60208082526029908201527f4261646765724765797365723a2062656e6566696369617279206973207a65726040820152686f206164647265737360b81b606082015260800190565b60208082526029908201527f4261646765724765797365723a20546f6b656e206e6f7420617070726f76656460408201526810313c9030b236b4b760b91b606082015260800190565b60208082526026908201527f4261646765724765797365723a20446973747269627574696f6e206e6f7420736040820152651d185c9d195960d21b606082015260800190565b6020808252601d908201527f416464726573733a2063616c6c20746f206e6f6e2d636f6e7472616374000000604082015260600190565b6020808252602a908201527f5361666545524332303a204552433230206f7065726174696f6e20646964206e6040820152691bdd081cdd58d8d9595960b21b606082015260800190565b6020808252603e908201527f4261646765724765797365723a20756e7374616b6520616d6f756e742069732060408201527f67726561746572207468616e20746f74616c2075736572207374616b65730000606082015260800190565b6020808252602f908201527f416363657373436f6e74726f6c3a2063616e206f6e6c792072656e6f756e636560408201526e103937b632b9903337b91039b2b63360891b606082015260800190565b918252602082015260606040820181905260009082015260800190565b93845260208401929092526040830152606082015260800190565b93845260208401929092526040830152606082015260a06080820181905260009082015260c00190565b60005b83811015611ad6578181015183820152602001611abe565b838111156103e05750506000910152565b6001600160a01b0381168114610b9b57600080fdfea2646970667358221220ad817f648c75fbb5372c1ed9a49713e9460c4abf6242811f08556628ee8bf92d64736f6c634300060c0033",
  "bytecodeSha1": "0d2861843d847ca74a1ba1cc2a8d6ff5a571af37",
  "compiler": {
    "evm_version": "istanbul",
    "optimizer": {
      "enabled": true,
      "runs": 200
    },
    "version": "0.6.12"
  },
  "contractName": "BadgerGeyser",
  "language": "Solidity",
  "natspec": {
    "details": "Tracks stakes and pledged tokens to be distributed, for use with BadgerTree merkle distribution system. An arbitrary number of tokens to  distribute can be specified.",
    "kind": "dev",
    "methods": {
      "addDistributionToken(address)": {
        "notice": "===== Permissioned Actions: Admins ====="
      },
      "getDistributionTokens()": {
        "returns": {
          "_0": "The token users receive as they unstake."
        }
      },
      "getRoleAdmin(bytes32)": {
        "details": "Returns the admin role that controls `role`. See {grantRole} and {revokeRole}. To change a role's admin, use {_setRoleAdmin}."
      },
      "getRoleMember(bytes32,uint256)": {
        "details": "Returns one of the accounts that have `role`. `index` must be a value between 0 and {getRoleMemberCount}, non-inclusive. Role bearers are not sorted in any particular way, and their ordering may change at any point. WARNING: When using {getRoleMember} and {getRoleMemberCount}, make sure you perform all queries on the same block. See the following https://forum.openzeppelin.com/t/iterating-over-elements-on-enumerableset-in-openzeppelin-contracts/2296[forum post] for more information."
      },
      "getRoleMemberCount(bytes32)": {
        "details": "Returns the number of accounts that have `role`. Can be used together with {getRoleMember} to enumerate all bearers of a role."
      },
      "getStakingToken()": {
        "returns": {
          "_0": "The token users deposit as stake."
        }
      },
      "grantRole(bytes32,address)": {
        "details": "Grants `role` to `account`. If `account` had not been already granted `role`, emits a {RoleGranted} event. Requirements: - the caller must have ``role``'s admin role."
      },
      "hasRole(bytes32,address)": {
        "details": "Returns `true` if `account` has been granted `role`."
      },
      "initialize(address,address,uint256,address,address)": {
        "params": {
          "globalStartTime_": "Timestamp after which unlock schedules and staking can begin.",
          "initialDistributionToken_": "The token users receive as they unstake.",
          "stakingToken_": "The token users deposit as stake."
        }
      },
      "renounceRole(bytes32,address)": {
        "details": "Revokes `role` from the calling account. Roles are often managed via {grantRole} and {revokeRole}: this function's purpose is to provide a mechanism for accounts to lose their privileges if they are compromised (such as when a trusted device is misplaced). If the calling account had been granted `role`, emits a {RoleRevoked} event. Requirements: - the caller must be `account`."
      },
      "revokeRole(bytes32,address)": {
        "details": "Revokes `role` from `account`. If `account` had been granted `role`, emits a {RoleRevoked} event. Requirements: - the caller must have ``role``'s admin role."
      },
      "signalTokenLock(address,uint256,uint256,uint256)": {
        "details": "This funcion allows the contract owner to pledge more distribution tokens, along      with the associated \"unlock schedule\". These locked tokens immediately begin unlocking      linearly over the duraction of durationSec timeframe.",
        "params": {
          "amount": "Number of distribution tokens to lock. These are transferred from the caller.",
          "durationSec": "Length of time to linear unlock the tokens.",
          "startTime": "Time to start distribution.",
          "token": "Token to lock."
        }
      },
      "stake(uint256,bytes)": {
        "details": "Transfers amount of deposit tokens from the user.",
        "params": {
          "amount": "Number of deposit tokens to stake."
        }
      },
      "stakeFor(address,uint256,bytes)": {
        "details": "Transfers amount of deposit tokens from the caller on behalf of user.",
        "params": {
          "amount": "Number of deposit tokens to stake.",
          "data": "Not used.",
          "user": "User address who gains credit for this stake operation."
        }
      },
      "supportsHistory()": {
        "returns": {
          "_0": "False. This application does not support staking history."
        }
      },
      "totalStakedFor(address)": {
        "params": {
          "addr": "The user to look up staking information for."
        },
        "returns": {
          "_0": "The number of staking tokens deposited for addr."
        }
      },
      "unlockScheduleCount(address)": {
        "returns": {
          "_0": "Number of unlock schedules."
        }
      },
      "unstake(uint256,bytes)": {
        "details": "Unstakes a certain amount of previously deposited tokens. User also receives their alotted number of distribution tokens.",
        "params": {
          "amount": "Number of deposit tokens to unstake / withdraw.",
          "data": "Not used."
        }
      }
    },
    "title": "Badger Geyser",
    "version": 1
  },
  "opcodes": "PUSH1 0x80 PUSH1 0x40 MSTORE CALLVALUE DUP1 ISZERO PUSH2 0x10 JUMPI PUSH1 0x0 DUP1 REVERT JUMPDEST POP PUSH1 0x4 CALLDATASIZE LT PUSH2 0x18E JUMPI PUSH1 0x0 CALLDATALOAD PUSH1 0xE0 SHR DUP1 PUSH4 0x7033E4A6 GT PUSH2 0xDE JUMPI DUP1 PUSH4 0x9D81FF15 GT PUSH2 0x97 JUMPI DUP1 PUSH4 0xC8FD6ED0 GT PUSH2 0x71 JUMPI DUP1 PUSH4 0xC8FD6ED0 EQ PUSH2 0x339 JUMPI DUP1 PUSH4 0xCA15C873 EQ PUSH2 0x34C JUMPI DUP1 PUSH4 0xCD616EA3 EQ PUSH2 0x35F JUMPI DUP1 PUSH4 0xD547741F EQ PUSH2 0x367 JUMPI PUSH2 0x18E JUMP JUMPDEST DUP1 PUSH4 0x9D81FF15 EQ PUSH2 0x321 JUMPI DUP1 PUSH4 0x9F9106D1 EQ PUSH2 0x329 JUMPI DUP1 PUSH4 0xA217FDDF EQ PUSH2 0x331 JUMPI PUSH2 0x18E JUMP JUMPDEST DUP1 PUSH4 0x7033E4A6 EQ PUSH2 0x2B6 JUMPI DUP1 PUSH4 0x817B1CD2 EQ PUSH2 0x2CB JUMPI DUP1 PUSH4 0x8DAB7191 EQ PUSH2 0x2D3 JUMPI DUP1 PUSH4 0x9010D07C EQ PUSH2 0x2E6 JUMPI DUP1 PUSH4 0x91D14854 EQ PUSH2 0x306 JUMPI DUP1 PUSH4 0x9292AB5F EQ PUSH2 0x319 JUMPI PUSH2 0x18E JUMP JUMPDEST DUP1 PUSH4 0x328B10D8 GT PUSH2 0x14B JUMPI DUP1 PUSH4 0x4B341AED GT PUSH2 0x125 JUMPI DUP1 PUSH4 0x4B341AED EQ PUSH2 0x263 JUMPI DUP1 PUSH4 0x4C255C97 EQ PUSH2 0x276 JUMPI DUP1 PUSH4 0x5099A9DC EQ PUSH2 0x27E JUMPI DUP1 PUSH4 0x51F6CF2F EQ PUSH2 0x293 JUMPI PUSH2 0x18E JUMP JUMPDEST DUP1 PUSH4 0x328B10D8 EQ PUSH2 0x21D JUMPI DUP1 PUSH4 0x33E1A223 EQ PUSH2 0x23D JUMPI DUP1 PUSH4 0x36568ABE EQ PUSH2 0x250 JUMPI PUSH2 0x18E JUMP JUMPDEST DUP1 PUSH4 0x968C3D8 EQ PUSH2 0x193 JUMPI DUP1 PUSH4 0xE89439B EQ PUSH2 0x1A8 JUMPI DUP1 PUSH4 0xEF96356 EQ PUSH2 0x1BB JUMPI DUP1 PUSH4 0x248A9CA3 EQ PUSH2 0x1CE JUMPI DUP1 PUSH4 0x256FDCD6 EQ PUSH2 0x1F7 JUMPI DUP1 PUSH4 0x2F2FF15D EQ PUSH2 0x20A JUMPI JUMPDEST PUSH1 0x0 DUP1 REVERT JUMPDEST PUSH2 0x1A6 PUSH2 0x1A1 CALLDATASIZE PUSH1 0x4 PUSH2 0x12E7 JUMP JUMPDEST PUSH2 0x37A JUMP JUMPDEST STOP JUMPDEST PUSH2 0x1A6 PUSH2 0x1B6 CALLDATASIZE PUSH1 0x4 PUSH2 0x1410 JUMP JUMPDEST PUSH2 0x3E6 JUMP JUMPDEST PUSH2 0x1A6 PUSH2 0x1C9 CALLDATASIZE PUSH1 0x4 PUSH2 0x128D JUMP JUMPDEST PUSH2 0x3FE JUMP JUMPDEST PUSH2 0x1E1 PUSH2 0x1DC CALLDATASIZE PUSH1 0x4 PUSH2 0x1341 JUMP JUMPDEST PUSH2 0x411 JUMP JUMPDEST PUSH1 0x40 MLOAD PUSH2 0x1EE SWAP2 SWAP1 PUSH2 0x1583 JUMP JUMPDEST PUSH1 0x40 MLOAD DUP1 SWAP2 SUB SWAP1 RETURN JUMPDEST PUSH2 0x1E1 PUSH2 0x205 CALLDATASIZE PUSH1 0x4 PUSH2 0x1246 JUMP JUMPDEST PUSH2 0x426 JUMP JUMPDEST PUSH2 0x1A6 PUSH2 0x218 CALLDATASIZE PUSH1 0x4 PUSH2 0x1359 JUMP JUMPDEST PUSH2 0x441 JUMP JUMPDEST PUSH2 0x230 PUSH2 0x22B CALLDATASIZE PUSH1 0x4 PUSH2 0x1246 JUMP JUMPDEST PUSH2 0x489 JUMP JUMPDEST PUSH1 0x40 MLOAD PUSH2 0x1EE SWAP2 SWAP1 PUSH2 0x1514 JUMP JUMPDEST PUSH2 0x1A6 PUSH2 0x24B CALLDATASIZE PUSH1 0x4 PUSH2 0x13A9 JUMP JUMPDEST PUSH2 0x526 JUMP JUMPDEST PUSH2 0x1A6 PUSH2 0x25E CALLDATASIZE PUSH1 0x4 PUSH2 0x1359 JUMP JUMPDEST PUSH2 0x617 JUMP JUMPDEST PUSH2 0x1E1 PUSH2 0x271 CALLDATASIZE PUSH1 0x4 PUSH2 0x1246 JUMP JUMPDEST PUSH2 0x659 JUMP JUMPDEST PUSH2 0x1E1 PUSH2 0x674 JUMP JUMPDEST PUSH2 0x286 PUSH2 0x679 JUMP JUMPDEST PUSH1 0x40 MLOAD PUSH2 0x1EE SWAP2 SWAP1 PUSH2 0x14C7 JUMP JUMPDEST PUSH2 0x2A6 PUSH2 0x2A1 CALLDATASIZE PUSH1 0x4 PUSH2 0x1262 JUMP JUMPDEST PUSH2 0x718 JUMP JUMPDEST PUSH1 0x40 MLOAD PUSH2 0x1EE SWAP5 SWAP4 SWAP3 SWAP2 SWAP1 PUSH2 0x1A76 JUMP JUMPDEST PUSH2 0x2BE PUSH2 0x75B JUMP JUMPDEST PUSH1 0x40 MLOAD PUSH2 0x1EE SWAP2 SWAP1 PUSH2 0x1578 JUMP JUMPDEST PUSH2 0x1E1 PUSH2 0x760 JUMP JUMPDEST PUSH2 0x1A6 PUSH2 0x2E1 CALLDATASIZE PUSH1 0x4 PUSH2 0x1246 JUMP JUMPDEST PUSH2 0x766 JUMP JUMPDEST PUSH2 0x2F9 PUSH2 0x2F4 CALLDATASIZE PUSH1 0x4 PUSH2 0x1388 JUMP JUMPDEST PUSH2 0x779 JUMP JUMPDEST PUSH1 0x40 MLOAD PUSH2 0x1EE SWAP2 SWAP1 PUSH2 0x1476 JUMP JUMPDEST PUSH2 0x2BE PUSH2 0x314 CALLDATASIZE PUSH1 0x4 PUSH2 0x1359 JUMP JUMPDEST PUSH2 0x79A JUMP JUMPDEST PUSH2 0x1E1 PUSH2 0x7B2 JUMP JUMPDEST PUSH2 0x1E1 PUSH2 0x7C3 JUMP JUMPDEST PUSH2 0x2F9 PUSH2 0x7C9 JUMP JUMPDEST PUSH2 0x1E1 PUSH2 0x7D8 JUMP JUMPDEST PUSH2 0x1A6 PUSH2 0x347 CALLDATASIZE PUSH1 0x4 PUSH2 0x1410 JUMP JUMPDEST PUSH2 0x7DD JUMP JUMPDEST PUSH2 0x1E1 PUSH2 0x35A CALLDATASIZE PUSH1 0x4 PUSH2 0x1341 JUMP JUMPDEST PUSH2 0x7EF JUMP JUMPDEST PUSH2 0x1E1 PUSH2 0x806 JUMP JUMPDEST PUSH2 0x1A6 PUSH2 0x375 CALLDATASIZE PUSH1 0x4 PUSH2 0x1359 JUMP JUMPDEST PUSH2 0x82A JUMP JUMPDEST PUSH2 0x382 PUSH2 0x864 JUMP JUMPDEST PUSH1 0x65 SLOAD DUP2 LT ISZERO PUSH2 0x3AD JUMPI PUSH1 0x40 MLOAD PUSH3 0x461BCD PUSH1 0xE5 SHL DUP2 MSTORE PUSH1 0x4 ADD PUSH2 0x3A4 SWAP1 PUSH2 0x169C JUMP JUMPDEST PUSH1 0x40 MLOAD DUP1 SWAP2 SUB SWAP1 REVERT JUMPDEST PUSH2 0x3B8 PUSH1 0x68 DUP6 PUSH2 0x8AC JUMP JUMPDEST PUSH2 0x3D4 JUMPI PUSH1 0x40 MLOAD PUSH3 0x461BCD PUSH1 0xE5 SHL DUP2 MSTORE PUSH1 0x4 ADD PUSH2 0x3A4 SWAP1 PUSH2 0x189D JUMP JUMPDEST PUSH2 0x3E0 DUP5 DUP5 DUP5 DUP5 PUSH2 0x8C1 JUMP JUMPDEST POP POP POP POP JUMP JUMPDEST PUSH2 0x3EE PUSH2 0x97A JUMP JUMPDEST PUSH2 0x3F9 CALLER CALLER DUP6 PUSH2 0x99C JUMP JUMPDEST POP POP POP JUMP JUMPDEST PUSH2 0x406 PUSH2 0x97A JUMP JUMPDEST PUSH2 0x3E0 CALLER DUP6 DUP6 PUSH2 0x99C JUMP JUMPDEST PUSH1 0x0 SWAP1 DUP2 MSTORE PUSH1 0x33 PUSH1 0x20 MSTORE PUSH1 0x40 SWAP1 KECCAK256 PUSH1 0x2 ADD SLOAD SWAP1 JUMP JUMPDEST PUSH1 0x1 PUSH1 0x1 PUSH1 0xA0 SHL SUB AND PUSH1 0x0 SWAP1 DUP2 MSTORE PUSH1 0x6B PUSH1 0x20 MSTORE PUSH1 0x40 SWAP1 KECCAK256 SLOAD SWAP1 JUMP JUMPDEST PUSH1 0x0 DUP3 DUP2 MSTORE PUSH1 0x33 PUSH1 0x20 MSTORE PUSH1 0x40 SWAP1 KECCAK256 PUSH1 0x2 ADD SLOAD PUSH2 0x45F SWAP1 PUSH2 0x314 PUSH2 0xA98 JUMP JUMPDEST PUSH2 0x47B JUMPI PUSH1 0x40 MLOAD PUSH3 0x461BCD PUSH1 0xE5 SHL DUP2 MSTORE PUSH1 0x4 ADD PUSH2 0x3A4 SWAP1 PUSH2 0x164D JUMP JUMPDEST PUSH2 0x485 DUP3 DUP3 PUSH2 0xA9C JUMP JUMPDEST POP POP JUMP JUMPDEST PUSH1 0x1 PUSH1 0x1 PUSH1 0xA0 SHL SUB DUP2 AND PUSH1 0x0 SWAP1 DUP2 MSTORE PUSH1 0x6B PUSH1 0x20 SWAP1 DUP2 MSTORE PUSH1 0x40 DUP1 DUP4 KECCAK256 DUP1 SLOAD DUP3 MLOAD DUP2 DUP6 MUL DUP2 ADD DUP6 ADD SWAP1 SWAP4 MSTORE DUP1 DUP4 MSTORE PUSH1 0x60 SWAP5 SWAP3 SWAP4 SWAP2 SWAP3 SWAP1 SWAP2 DUP5 ADD JUMPDEST DUP3 DUP3 LT ISZERO PUSH2 0x51B JUMPI DUP4 DUP3 SWAP1 PUSH1 0x0 MSTORE PUSH1 0x20 PUSH1 0x0 KECCAK256 SWAP1 PUSH1 0x4 MUL ADD PUSH1 0x40 MLOAD DUP1 PUSH1 0x80 ADD PUSH1 0x40 MSTORE SWAP1 DUP2 PUSH1 0x0 DUP3 ADD SLOAD DUP2 MSTORE PUSH1 0x20 ADD PUSH1 0x1 DUP3 ADD SLOAD DUP2 MSTORE PUSH1 0x20 ADD PUSH1 0x2 DUP3 ADD SLOAD DUP2 MSTORE PUSH1 0x20 ADD PUSH1 0x3 DUP3 ADD SLOAD DUP2 MSTORE POP POP DUP2 MSTORE PUSH1 0x20 ADD SWAP1 PUSH1 0x1 ADD SWAP1 PUSH2 0x4C1 JUMP JUMPDEST POP POP POP POP SWAP1 POP SWAP2 SWAP1 POP JUMP JUMPDEST PUSH1 0x0 SLOAD PUSH2 0x100 SWAP1 DIV PUSH1 0xFF AND DUP1 PUSH2 0x53F JUMPI POP PUSH2 0x53F PUSH2 0xB05 JUMP JUMPDEST DUP1 PUSH2 0x54D JUMPI POP PUSH1 0x0 SLOAD PUSH1 0xFF AND ISZERO JUMPDEST PUSH2 0x569 JUMPI PUSH1 0x40 MLOAD PUSH3 0x461BCD PUSH1 0xE5 SHL DUP2 MSTORE PUSH1 0x4 ADD PUSH2 0x3A4 SWAP1 PUSH2 0x1806 JUMP JUMPDEST PUSH1 0x0 SLOAD PUSH2 0x100 SWAP1 DIV PUSH1 0xFF AND ISZERO DUP1 ISZERO PUSH2 0x594 JUMPI PUSH1 0x0 DUP1 SLOAD PUSH1 0xFF NOT PUSH2 0xFF00 NOT SWAP1 SWAP2 AND PUSH2 0x100 OR AND PUSH1 0x1 OR SWAP1 SSTORE JUMPDEST PUSH2 0x59C PUSH2 0xB0B JUMP JUMPDEST PUSH2 0x5A7 PUSH1 0x0 DUP5 PUSH2 0x47B JUMP JUMPDEST PUSH2 0x5D1 PUSH32 0x4BF6F2CDCC8AD6C087A7A4FBECF46150B3686B71387234CAC2B3E2E6DC70E345 DUP4 PUSH2 0x47B JUMP JUMPDEST PUSH1 0x67 DUP1 SLOAD PUSH1 0x1 PUSH1 0x1 PUSH1 0xA0 SHL SUB NOT AND PUSH1 0x1 PUSH1 0x1 PUSH1 0xA0 SHL SUB DUP9 AND OR SWAP1 SSTORE PUSH2 0x5F7 PUSH1 0x68 DUP7 PUSH2 0xB9E JUMP JUMPDEST POP PUSH1 0x65 DUP5 SWAP1 SSTORE DUP1 ISZERO PUSH2 0x60F JUMPI PUSH1 0x0 DUP1 SLOAD PUSH2 0xFF00 NOT AND SWAP1 SSTORE JUMPDEST POP POP POP POP POP POP JUMP JUMPDEST PUSH2 0x61F PUSH2 0xA98 JUMP JUMPDEST PUSH1 0x1 PUSH1 0x1 PUSH1 0xA0 SHL SUB AND DUP2 PUSH1 0x1 PUSH1 0x1 PUSH1 0xA0 SHL SUB AND EQ PUSH2 0x64F JUMPI PUSH1 0x40 MLOAD PUSH3 0x461BCD PUSH1 0xE5 SHL DUP2 MSTORE PUSH1 0x4 ADD PUSH2 0x3A4 SWAP1 PUSH2 0x1A0A JUMP JUMPDEST PUSH2 0x485 DUP3 DUP3 PUSH2 0xBB3 JUMP JUMPDEST PUSH1 0x1 PUSH1 0x1 PUSH1 0xA0 SHL SUB AND PUSH1 0x0 SWAP1 DUP2 MSTORE PUSH1 0x6A PUSH1 0x20 MSTORE PUSH1 0x40 SWAP1 KECCAK256 SLOAD SWAP1 JUMP JUMPDEST PUSH1 0x64 DUP2 JUMP JUMPDEST PUSH1 0x60 PUSH1 0x0 PUSH2 0x687 PUSH1 0x68 PUSH2 0xC1C JUMP JUMPDEST SWAP1 POP PUSH1 0x60 DUP2 PUSH8 0xFFFFFFFFFFFFFFFF DUP2 GT DUP1 ISZERO PUSH2 0x6A2 JUMPI PUSH1 0x0 DUP1 REVERT JUMPDEST POP PUSH1 0x40 MLOAD SWAP1 DUP1 DUP3 MSTORE DUP1 PUSH1 0x20 MUL PUSH1 0x20 ADD DUP3 ADD PUSH1 0x40 MSTORE DUP1 ISZERO PUSH2 0x6CC JUMPI DUP2 PUSH1 0x20 ADD PUSH1 0x20 DUP3 MUL DUP1 CALLDATASIZE DUP4 CALLDATACOPY ADD SWAP1 POP JUMPDEST POP SWAP1 POP PUSH1 0x0 JUMPDEST DUP3 DUP2 LT ISZERO PUSH2 0x711 JUMPI PUSH2 0x6E5 PUSH1 0x68 DUP3 PUSH2 0xC27 JUMP JUMPDEST DUP3 DUP3 DUP2 MLOAD DUP2 LT PUSH2 0x6F1 JUMPI INVALID JUMPDEST PUSH1 0x1 PUSH1 0x1 PUSH1 0xA0 SHL SUB SWAP1 SWAP3 AND PUSH1 0x20 SWAP3 DUP4 MUL SWAP2 SWAP1 SWAP2 ADD SWAP1 SWAP2 ADD MSTORE PUSH1 0x1 ADD PUSH2 0x6D2 JUMP JUMPDEST POP SWAP2 POP POP SWAP1 JUMP JUMPDEST PUSH1 0x6B PUSH1 0x20 MSTORE DUP2 PUSH1 0x0 MSTORE PUSH1 0x40 PUSH1 0x0 KECCAK256 DUP2 DUP2 SLOAD DUP2 LT PUSH2 0x731 JUMPI INVALID JUMPDEST PUSH1 0x0 SWAP2 DUP3 MSTORE PUSH1 0x20 SWAP1 SWAP2 KECCAK256 PUSH1 0x4 SWAP1 SWAP2 MUL ADD DUP1 SLOAD PUSH1 0x1 DUP3 ADD SLOAD PUSH1 0x2 DUP4 ADD SLOAD PUSH1 0x3 SWAP1 SWAP4 ADD SLOAD SWAP2 SWAP5 POP SWAP3 POP DUP5 JUMP JUMPDEST PUSH1 0x0 SWAP1 JUMP JUMPDEST PUSH1 0x66 SLOAD DUP2 JUMP JUMPDEST PUSH2 0x76E PUSH2 0xC33 JUMP JUMPDEST PUSH2 0x485 PUSH1 0x68 DUP3 PUSH2 0xB9E JUMP JUMPDEST PUSH1 0x0 DUP3 DUP2 MSTORE PUSH1 0x33 PUSH1 0x20 MSTORE PUSH1 0x40 DUP2 KECCAK256 PUSH2 0x791 SWAP1 DUP4 PUSH2 0xC27 JUMP JUMPDEST SWAP1 POP JUMPDEST SWAP3 SWAP2 POP POP JUMP JUMPDEST PUSH1 0x0 DUP3 DUP2 MSTORE PUSH1 0x33 PUSH1 0x20 MSTORE PUSH1 0x40 DUP2 KECCAK256 PUSH2 0x791 SWAP1 DUP4 PUSH2 0x8AC JUMP JUMPDEST PUSH1 0x0 PUSH2 0x7BE PUSH1 0x68 PUSH2 0xC1C JUMP JUMPDEST SWAP1 POP SWAP1 JUMP JUMPDEST PUSH1 0x65 SLOAD DUP2 JUMP JUMPDEST PUSH1 0x67 SLOAD PUSH1 0x1 PUSH1 0x1 PUSH1 0xA0 SHL SUB AND SWAP1 JUMP JUMPDEST PUSH1 0x0 DUP2 JUMP JUMPDEST PUSH2 0x7E5 PUSH2 0x97A JUMP JUMPDEST PUSH2 0x3F9 CALLER DUP5 PUSH2 0xC5A JUMP JUMPDEST PUSH1 0x0 DUP2 DUP2 MSTORE PUSH1 0x33 PUSH1 0x20 MSTORE PUSH1 0x40 DUP2 KECCAK256 PUSH2 0x794 SWAP1 PUSH2 0xC1C JUMP JUMPDEST PUSH32 0x4BF6F2CDCC8AD6C087A7A4FBECF46150B3686B71387234CAC2B3E2E6DC70E345 DUP2 JUMP JUMPDEST PUSH1 0x0 DUP3 DUP2 MSTORE PUSH1 0x33 PUSH1 0x20 MSTORE PUSH1 0x40 SWAP1 KECCAK256 PUSH1 0x2 ADD SLOAD PUSH2 0x848 SWAP1 PUSH2 0x314 PUSH2 0xA98 JUMP JUMPDEST PUSH2 0x64F JUMPI PUSH1 0x40 MLOAD PUSH3 0x461BCD PUSH1 0xE5 SHL DUP2 MSTORE PUSH1 0x4 ADD PUSH2 0x3A4 SWAP1 PUSH2 0x1774 JUMP JUMPDEST PUSH2 0x88E PUSH32 0x4BF6F2CDCC8AD6C087A7A4FBECF46150B3686B71387234CAC2B3E2E6DC70E345 CALLER PUSH2 0x79A JUMP JUMPDEST PUSH2 0x8AA JUMPI PUSH1 0x40 MLOAD PUSH3 0x461BCD PUSH1 0xE5 SHL DUP2 MSTORE PUSH1 0x4 ADD PUSH2 0x3A4 SWAP1 PUSH2 0x1624 JUMP JUMPDEST JUMP JUMPDEST PUSH1 0x0 PUSH2 0x791 DUP4 PUSH1 0x1 PUSH1 0x1 PUSH1 0xA0 SHL SUB DUP5 AND PUSH2 0xD56 JUMP JUMPDEST PUSH2 0x8C9 PUSH2 0x11D7 JUMP JUMPDEST DUP4 DUP2 MSTORE PUSH2 0x8D6 DUP3 DUP5 PUSH2 0xD6E JUMP JUMPDEST PUSH1 0x20 DUP1 DUP4 ADD SWAP2 DUP3 MSTORE PUSH1 0x40 DUP1 DUP5 ADD DUP7 DUP2 MSTORE PUSH1 0x60 DUP6 ADD DUP7 DUP2 MSTORE PUSH1 0x1 PUSH1 0x1 PUSH1 0xA0 SHL SUB DUP11 AND PUSH1 0x0 DUP2 DUP2 MSTORE PUSH1 0x6B DUP7 MSTORE DUP5 DUP2 KECCAK256 DUP1 SLOAD PUSH1 0x1 DUP2 DUP2 ADD DUP4 SSTORE SWAP2 DUP4 MSTORE SWAP7 SWAP1 SWAP2 KECCAK256 DUP9 MLOAD PUSH1 0x4 SWAP1 SWAP8 MUL ADD SWAP6 DUP7 SSTORE SWAP6 MLOAD SWAP6 DUP6 ADD DUP7 SWAP1 SSTORE SWAP2 MLOAD PUSH1 0x2 DUP6 ADD SSTORE MLOAD PUSH1 0x3 SWAP1 SWAP4 ADD SWAP3 SWAP1 SWAP3 SSTORE MLOAD TIMESTAMP SWAP3 PUSH32 0x739472339D528D689EB4B6825D2D76852FD8870676F0B8A4BBB682D037F0FD6E SWAP2 PUSH2 0x96B SWAP2 DUP10 SWAP2 DUP10 SWAP2 DUP10 SWAP2 PUSH2 0x1A91 JUMP JUMPDEST PUSH1 0x40 MLOAD DUP1 SWAP2 SUB SWAP1 LOG3 POP POP POP POP POP JUMP JUMPDEST PUSH1 0x65 SLOAD TIMESTAMP LT ISZERO PUSH2 0x8AA JUMPI PUSH1 0x40 MLOAD PUSH3 0x461BCD PUSH1 0xE5 SHL DUP2 MSTORE PUSH1 0x4 ADD PUSH2 0x3A4 SWAP1 PUSH2 0x18E6 JUMP JUMPDEST PUSH1 0x0 DUP2 GT PUSH2 0x9BC JUMPI PUSH1 0x40 MLOAD PUSH3 0x461BCD PUSH1 0xE5 SHL DUP2 MSTORE PUSH1 0x4 ADD PUSH2 0x3A4 SWAP1 PUSH2 0x17C4 JUMP JUMPDEST PUSH1 0x1 PUSH1 0x1 PUSH1 0xA0 SHL SUB DUP3 AND PUSH2 0x9E2 JUMPI PUSH1 0x40 MLOAD PUSH3 0x461BCD PUSH1 0xE5 SHL DUP2 MSTORE PUSH1 0x4 ADD PUSH2 0x3A4 SWAP1 PUSH2 0x1854 JUMP JUMPDEST PUSH1 0x1 PUSH1 0x1 PUSH1 0xA0 SHL SUB DUP3 AND PUSH1 0x0 SWAP1 DUP2 MSTORE PUSH1 0x6A PUSH1 0x20 MSTORE PUSH1 0x40 SWAP1 KECCAK256 SLOAD PUSH2 0xA05 SWAP1 DUP3 PUSH2 0xD6E JUMP JUMPDEST PUSH1 0x1 PUSH1 0x1 PUSH1 0xA0 SHL SUB DUP4 AND PUSH1 0x0 SWAP1 DUP2 MSTORE PUSH1 0x6A PUSH1 0x20 MSTORE PUSH1 0x40 SWAP1 KECCAK256 SSTORE PUSH1 0x66 SLOAD PUSH2 0xA2B SWAP1 DUP3 PUSH2 0xD6E JUMP JUMPDEST PUSH1 0x66 SSTORE PUSH1 0x67 SLOAD PUSH2 0xA46 SWAP1 PUSH1 0x1 PUSH1 0x1 PUSH1 0xA0 SHL SUB AND DUP5 ADDRESS DUP5 PUSH2 0xD93 JUMP JUMPDEST NUMBER TIMESTAMP DUP4 PUSH1 0x1 PUSH1 0x1 PUSH1 0xA0 SHL SUB AND PUSH32 0x70462F09E1FCDD39EE7DBE9165C6A369557B03057A6D820C84A600208B9B26D DUP5 PUSH2 0xA7D DUP8 PUSH2 0x659 JUMP JUMPDEST PUSH1 0x40 MLOAD PUSH2 0xA8B SWAP3 SWAP2 SWAP1 PUSH2 0x1A59 JUMP JUMPDEST PUSH1 0x40 MLOAD DUP1 SWAP2 SUB SWAP1 LOG4 POP POP POP JUMP JUMPDEST CALLER SWAP1 JUMP JUMPDEST PUSH1 0x0 DUP3 DUP2 MSTORE PUSH1 0x33 PUSH1 0x20 MSTORE PUSH1 0x40 SWAP1 KECCAK256 PUSH2 0xAB4 SWAP1 DUP3 PUSH2 0xB9E JUMP JUMPDEST ISZERO PUSH2 0x485 JUMPI PUSH2 0xAC1 PUSH2 0xA98 JUMP JUMPDEST PUSH1 0x1 PUSH1 0x1 PUSH1 0xA0 SHL SUB AND DUP2 PUSH1 0x1 PUSH1 0x1 PUSH1 0xA0 SHL SUB AND DUP4 PUSH32 0x2F8788117E7EFF1D82E926EC794901D17C78024A50270940304540A733656F0D PUSH1 0x40 MLOAD PUSH1 0x40 MLOAD DUP1 SWAP2 SUB SWAP1 LOG4 POP POP JUMP JUMPDEST ADDRESS EXTCODESIZE ISZERO SWAP1 JUMP JUMPDEST PUSH1 0x0 SLOAD PUSH2 0x100 SWAP1 DIV PUSH1 0xFF AND DUP1 PUSH2 0xB24 JUMPI POP PUSH2 0xB24 PUSH2 0xB05 JUMP JUMPDEST DUP1 PUSH2 0xB32 JUMPI POP PUSH1 0x0 SLOAD PUSH1 0xFF AND ISZERO JUMPDEST PUSH2 0xB4E JUMPI PUSH1 0x40 MLOAD PUSH3 0x461BCD PUSH1 0xE5 SHL DUP2 MSTORE PUSH1 0x4 ADD PUSH2 0x3A4 SWAP1 PUSH2 0x1806 JUMP JUMPDEST PUSH1 0x0 SLOAD PUSH2 0x100 SWAP1 DIV PUSH1 0xFF AND ISZERO DUP1 ISZERO PUSH2 0xB79 JUMPI PUSH1 0x0 DUP1 SLOAD PUSH1 0xFF NOT PUSH2 0xFF00 NOT SWAP1 SWAP2 AND PUSH2 0x100 OR AND PUSH1 0x1 OR SWAP1 SSTORE JUMPDEST PUSH2 0xB81 PUSH2 0xDEB JUMP JUMPDEST PUSH2 0xB89 PUSH2 0xDEB JUMP JUMPDEST DUP1 ISZERO PUSH2 0xB9B JUMPI PUSH1 0x0 DUP1 SLOAD PUSH2 0xFF00 NOT AND SWAP1 SSTORE JUMPDEST POP JUMP JUMPDEST PUSH1 0x0 PUSH2 0x791 DUP4 PUSH1 0x1 PUSH1 0x1 PUSH1 0xA0 SHL SUB DUP5 AND PUSH2 0xE6C JUMP JUMPDEST PUSH1 0x0 DUP3 DUP2 MSTORE PUSH1 0x33 PUSH1 0x20 MSTORE PUSH1 0x40 SWAP1 KECCAK256 PUSH2 0xBCB SWAP1 DUP3 PUSH2 0xEB6 JUMP JUMPDEST ISZERO PUSH2 0x485 JUMPI PUSH2 0xBD8 PUSH2 0xA98 JUMP JUMPDEST PUSH1 0x1 PUSH1 0x1 PUSH1 0xA0 SHL SUB AND DUP2 PUSH1 0x1 PUSH1 0x1 PUSH1 0xA0 SHL SUB AND DUP4 PUSH32 0xF6391F5C32D9C69D2A47EA670B442974B53935D1EDC7FD64EB21E047A839171B PUSH1 0x40 MLOAD PUSH1 0x40 MLOAD DUP1 SWAP2 SUB SWAP1 LOG4 POP POP JUMP JUMPDEST PUSH1 0x0 PUSH2 0x794 DUP3 PUSH2 0xECB JUMP JUMPDEST PUSH1 0x0 PUSH2 0x791 DUP4 DUP4 PUSH2 0xECF JUMP JUMPDEST PUSH2 0xC3E PUSH1 0x0 CALLER PUSH2 0x79A JUMP JUMPDEST PUSH2 0x8AA JUMPI PUSH1 0x40 MLOAD PUSH3 0x461BCD PUSH1 0xE5 SHL DUP2 MSTORE PUSH1 0x4 ADD PUSH2 0x3A4 SWAP1 PUSH2 0x15BF JUMP JUMPDEST PUSH1 0x0 DUP2 GT PUSH2 0xC7A JUMPI PUSH1 0x40 MLOAD PUSH3 0x461BCD PUSH1 0xE5 SHL DUP2 MSTORE PUSH1 0x4 ADD PUSH2 0x3A4 SWAP1 PUSH2 0x1730 JUMP JUMPDEST DUP1 PUSH2 0xC84 DUP4 PUSH2 0x659 JUMP JUMPDEST LT ISZERO PUSH2 0xCA2 JUMPI PUSH1 0x40 MLOAD PUSH3 0x461BCD PUSH1 0xE5 SHL DUP2 MSTORE PUSH1 0x4 ADD PUSH2 0x3A4 SWAP1 PUSH2 0x19AD JUMP JUMPDEST PUSH1 0x1 PUSH1 0x1 PUSH1 0xA0 SHL SUB DUP3 AND PUSH1 0x0 SWAP1 DUP2 MSTORE PUSH1 0x6A PUSH1 0x20 MSTORE PUSH1 0x40 SWAP1 KECCAK256 SLOAD PUSH2 0xCC5 SWAP1 DUP3 PUSH2 0xF14 JUMP JUMPDEST PUSH1 0x1 PUSH1 0x1 PUSH1 0xA0 SHL SUB DUP4 AND PUSH1 0x0 SWAP1 DUP2 MSTORE PUSH1 0x6A PUSH1 0x20 MSTORE PUSH1 0x40 SWAP1 KECCAK256 SSTORE PUSH1 0x66 SLOAD PUSH2 0xCEB SWAP1 DUP3 PUSH2 0xF14 JUMP JUMPDEST PUSH1 0x66 SSTORE PUSH1 0x67 SLOAD PUSH2 0xD05 SWAP1 PUSH1 0x1 PUSH1 0x1 PUSH1 0xA0 SHL SUB AND DUP4 DUP4 PUSH2 0xF56 JUMP JUMPDEST NUMBER TIMESTAMP DUP4 PUSH1 0x1 PUSH1 0x1 PUSH1 0xA0 SHL SUB AND PUSH32 0xA4CC38F55B7506135366A0BC5006873BA1B4AFE26F819B633E799754F80F223D DUP5 PUSH2 0xD3C DUP8 PUSH2 0x659 JUMP JUMPDEST PUSH1 0x40 MLOAD PUSH2 0xD4A SWAP3 SWAP2 SWAP1 PUSH2 0x1A59 JUMP JUMPDEST PUSH1 0x40 MLOAD DUP1 SWAP2 SUB SWAP1 LOG4 POP POP JUMP JUMPDEST PUSH1 0x0 SWAP1 DUP2 MSTORE PUSH1 0x1 SWAP2 SWAP1 SWAP2 ADD PUSH1 0x20 MSTORE PUSH1 0x40 SWAP1 KECCAK256 SLOAD ISZERO ISZERO SWAP1 JUMP JUMPDEST PUSH1 0x0 DUP3 DUP3 ADD DUP4 DUP2 LT ISZERO PUSH2 0x791 JUMPI PUSH1 0x40 MLOAD PUSH3 0x461BCD PUSH1 0xE5 SHL DUP2 MSTORE PUSH1 0x4 ADD PUSH2 0x3A4 SWAP1 PUSH2 0x16F9 JUMP JUMPDEST PUSH2 0x3E0 DUP5 PUSH4 0x23B872DD PUSH1 0xE0 SHL DUP6 DUP6 DUP6 PUSH1 0x40 MLOAD PUSH1 0x24 ADD PUSH2 0xDB4 SWAP4 SWAP3 SWAP2 SWAP1 PUSH2 0x148A JUMP JUMPDEST PUSH1 0x40 DUP1 MLOAD PUSH1 0x1F NOT DUP2 DUP5 SUB ADD DUP2 MSTORE SWAP2 SWAP1 MSTORE PUSH1 0x20 DUP2 ADD DUP1 MLOAD PUSH1 0x1 PUSH1 0x1 PUSH1 0xE0 SHL SUB AND PUSH1 0x1 PUSH1 0x1 PUSH1 0xE0 SHL SUB NOT SWAP1 SWAP4 AND SWAP3 SWAP1 SWAP3 OR SWAP1 SWAP2 MSTORE PUSH2 0xF75 JUMP JUMPDEST PUSH1 0x0 SLOAD PUSH2 0x100 SWAP1 DIV PUSH1 0xFF AND DUP1 PUSH2 0xE04 JUMPI POP PUSH2 0xE04 PUSH2 0xB05 JUMP JUMPDEST DUP1 PUSH2 0xE12 JUMPI POP PUSH1 0x0 SLOAD PUSH1 0xFF AND ISZERO JUMPDEST PUSH2 0xE2E JUMPI PUSH1 0x40 MLOAD PUSH3 0x461BCD PUSH1 0xE5 SHL DUP2 MSTORE PUSH1 0x4 ADD PUSH2 0x3A4 SWAP1 PUSH2 0x1806 JUMP JUMPDEST PUSH1 0x0 SLOAD PUSH2 0x100 SWAP1 DIV PUSH1 0xFF AND ISZERO DUP1 ISZERO PUSH2 0xB89 JUMPI PUSH1 0x0 DUP1 SLOAD PUSH1 0xFF NOT PUSH2 0xFF00 NOT SWAP1 SWAP2 AND PUSH2 0x100 OR AND PUSH1 0x1 OR SWAP1 SSTORE DUP1 ISZERO PUSH2 0xB9B JUMPI PUSH1 0x0 DUP1 SLOAD PUSH2 0xFF00 NOT AND SWAP1 SSTORE POP JUMP JUMPDEST PUSH1 0x0 PUSH2 0xE78 DUP4 DUP4 PUSH2 0xD56 JUMP JUMPDEST PUSH2 0xEAE JUMPI POP DUP2 SLOAD PUSH1 0x1 DUP2 DUP2 ADD DUP5 SSTORE PUSH1 0x0 DUP5 DUP2 MSTORE PUSH1 0x20 DUP1 DUP3 KECCAK256 SWAP1 SWAP4 ADD DUP5 SWAP1 SSTORE DUP5 SLOAD DUP5 DUP3 MSTORE DUP3 DUP7 ADD SWAP1 SWAP4 MSTORE PUSH1 0x40 SWAP1 KECCAK256 SWAP2 SWAP1 SWAP2 SSTORE PUSH2 0x794 JUMP JUMPDEST POP PUSH1 0x0 PUSH2 0x794 JUMP JUMPDEST PUSH1 0x0 PUSH2 0x791 DUP4 PUSH1 0x1 PUSH1 0x1 PUSH1 0xA0 SHL SUB DUP5 AND PUSH2 0x1004 JUMP JUMPDEST SLOAD SWAP1 JUMP JUMPDEST DUP2 SLOAD PUSH1 0x0 SWAP1 DUP3 LT PUSH2 0xEF2 JUMPI PUSH1 0x40 MLOAD PUSH3 0x461BCD PUSH1 0xE5 SHL DUP2 MSTORE PUSH1 0x4 ADD PUSH2 0x3A4 SWAP1 PUSH2 0x15E2 JUMP JUMPDEST DUP3 PUSH1 0x0 ADD DUP3 DUP2 SLOAD DUP2 LT PUSH2 0xF01 JUMPI INVALID JUMPDEST SWAP1 PUSH1 0x0 MSTORE PUSH1 0x20 PUSH1 0x0 KECCAK256 ADD SLOAD SWAP1 POP SWAP3 SWAP2 POP POP JUMP JUMPDEST PUSH1 0x0 PUSH2 0x791 DUP4 DUP4 PUSH1 0x40 MLOAD DUP1 PUSH1 0x40 ADD PUSH1 0x40 MSTORE DUP1 PUSH1 0x1E DUP2 MSTORE PUSH1 0x20 ADD PUSH32 0x536166654D6174683A207375627472616374696F6E206F766572666C6F770000 DUP2 MSTORE POP PUSH2 0x10CA JUMP JUMPDEST PUSH2 0x3F9 DUP4 PUSH4 0xA9059CBB PUSH1 0xE0 SHL DUP5 DUP5 PUSH1 0x40 MLOAD PUSH1 0x24 ADD PUSH2 0xDB4 SWAP3 SWAP2 SWAP1 PUSH2 0x14AE JUMP JUMPDEST PUSH1 0x60 PUSH2 0xFCA DUP3 PUSH1 0x40 MLOAD DUP1 PUSH1 0x40 ADD PUSH1 0x40 MSTORE DUP1 PUSH1 0x20 DUP2 MSTORE PUSH1 0x20 ADD PUSH32 0x5361666545524332303A206C6F772D6C6576656C2063616C6C206661696C6564 DUP2 MSTORE POP DUP6 PUSH1 0x1 PUSH1 0x1 PUSH1 0xA0 SHL SUB AND PUSH2 0x10F6 SWAP1 SWAP3 SWAP2 SWAP1 PUSH4 0xFFFFFFFF AND JUMP JUMPDEST DUP1 MLOAD SWAP1 SWAP2 POP ISZERO PUSH2 0x3F9 JUMPI DUP1 DUP1 PUSH1 0x20 ADD SWAP1 MLOAD DUP2 ADD SWAP1 PUSH2 0xFE8 SWAP2 SWAP1 PUSH2 0x1321 JUMP JUMPDEST PUSH2 0x3F9 JUMPI PUSH1 0x40 MLOAD PUSH3 0x461BCD PUSH1 0xE5 SHL DUP2 MSTORE PUSH1 0x4 ADD PUSH2 0x3A4 SWAP1 PUSH2 0x1963 JUMP JUMPDEST PUSH1 0x0 DUP2 DUP2 MSTORE PUSH1 0x1 DUP4 ADD PUSH1 0x20 MSTORE PUSH1 0x40 DUP2 KECCAK256 SLOAD DUP1 ISZERO PUSH2 0x10C0 JUMPI DUP4 SLOAD PUSH1 0x0 NOT DUP1 DUP4 ADD SWAP2 SWAP1 DUP2 ADD SWAP1 PUSH1 0x0 SWAP1 DUP8 SWAP1 DUP4 SWAP1 DUP2 LT PUSH2 0x1037 JUMPI INVALID JUMPDEST SWAP1 PUSH1 0x0 MSTORE PUSH1 0x20 PUSH1 0x0 KECCAK256 ADD SLOAD SWAP1 POP DUP1 DUP8 PUSH1 0x0 ADD DUP5 DUP2 SLOAD DUP2 LT PUSH2 0x1054 JUMPI INVALID JUMPDEST PUSH1 0x0 SWAP2 DUP3 MSTORE PUSH1 0x20 DUP1 DUP4 KECCAK256 SWAP1 SWAP2 ADD SWAP3 SWAP1 SWAP3 SSTORE DUP3 DUP2 MSTORE PUSH1 0x1 DUP10 DUP2 ADD SWAP1 SWAP3 MSTORE PUSH1 0x40 SWAP1 KECCAK256 SWAP1 DUP5 ADD SWAP1 SSTORE DUP7 SLOAD DUP8 SWAP1 DUP1 PUSH2 0x1084 JUMPI INVALID JUMPDEST PUSH1 0x1 SWAP1 SUB DUP2 DUP2 SWAP1 PUSH1 0x0 MSTORE PUSH1 0x20 PUSH1 0x0 KECCAK256 ADD PUSH1 0x0 SWAP1 SSTORE SWAP1 SSTORE DUP7 PUSH1 0x1 ADD PUSH1 0x0 DUP8 DUP2 MSTORE PUSH1 0x20 ADD SWAP1 DUP2 MSTORE PUSH1 0x20 ADD PUSH1 0x0 KECCAK256 PUSH1 0x0 SWAP1 SSTORE PUSH1 0x1 SWAP5 POP POP POP POP POP PUSH2 0x794 JUMP JUMPDEST PUSH1 0x0 SWAP2 POP POP PUSH2 0x794 JUMP JUMPDEST PUSH1 0x0 DUP2 DUP5 DUP5 GT ISZERO PUSH2 0x10EE JUMPI PUSH1 0x40 MLOAD PUSH3 0x461BCD PUSH1 0xE5 SHL DUP2 MSTORE PUSH1 0x4 ADD PUSH2 0x3A4 SWAP2 SWAP1 PUSH2 0x158C JUMP JUMPDEST POP POP POP SWAP1 SUB SWAP1 JUMP JUMPDEST PUSH1 0x60 PUSH2 0x1105 DUP5 DUP5 PUSH1 0x0 DUP6 PUSH2 0x110D JUMP JUMPDEST SWAP5 SWAP4 POP POP POP POP JUMP JUMPDEST PUSH1 0x60 PUSH2 0x1118 DUP6 PUSH2 0x11D1 JUMP JUMPDEST PUSH2 0x1134 JUMPI PUSH1 0x40 MLOAD PUSH3 0x461BCD PUSH1 0xE5 SHL DUP2 MSTORE PUSH1 0x4 ADD PUSH2 0x3A4 SWAP1 PUSH2 0x192C JUMP JUMPDEST PUSH1 0x0 PUSH1 0x60 DUP7 PUSH1 0x1 PUSH1 0x1 PUSH1 0xA0 SHL SUB AND DUP6 DUP8 PUSH1 0x40 MLOAD PUSH2 0x1151 SWAP2 SWAP1 PUSH2 0x145A JUMP JUMPDEST PUSH1 0x0 PUSH1 0x40 MLOAD DUP1 DUP4 SUB DUP2 DUP6 DUP8 GAS CALL SWAP3 POP POP POP RETURNDATASIZE DUP1 PUSH1 0x0 DUP2 EQ PUSH2 0x118E JUMPI PUSH1 0x40 MLOAD SWAP2 POP PUSH1 0x1F NOT PUSH1 0x3F RETURNDATASIZE ADD AND DUP3 ADD PUSH1 0x40 MSTORE RETURNDATASIZE DUP3 MSTORE RETURNDATASIZE PUSH1 0x0 PUSH1 0x20 DUP5 ADD RETURNDATACOPY PUSH2 0x1193 JUMP JUMPDEST PUSH1 0x60 SWAP2 POP JUMPDEST POP SWAP2 POP SWAP2 POP DUP2 ISZERO PUSH2 0x11A7 JUMPI SWAP2 POP PUSH2 0x1105 SWAP1 POP JUMP JUMPDEST DUP1 MLOAD ISZERO PUSH2 0x11B7 JUMPI DUP1 MLOAD DUP1 DUP3 PUSH1 0x20 ADD REVERT JUMPDEST DUP4 PUSH1 0x40 MLOAD PUSH3 0x461BCD PUSH1 0xE5 SHL DUP2 MSTORE PUSH1 0x4 ADD PUSH2 0x3A4 SWAP2 SWAP1 PUSH2 0x158C JUMP JUMPDEST EXTCODESIZE ISZERO ISZERO SWAP1 JUMP JUMPDEST PUSH1 0x40 MLOAD DUP1 PUSH1 0x80 ADD PUSH1 0x40 MSTORE DUP1 PUSH1 0x0 DUP2 MSTORE PUSH1 0x20 ADD PUSH1 0x0 DUP2 MSTORE PUSH1 0x20 ADD PUSH1 0x0 DUP2 MSTORE PUSH1 0x20 ADD PUSH1 0x0 DUP2 MSTORE POP SWAP1 JUMP JUMPDEST PUSH1 0x0 DUP1 DUP4 PUSH1 0x1F DUP5 ADD SLT PUSH2 0x1210 JUMPI DUP2 DUP3 REVERT JUMPDEST POP DUP2 CALLDATALOAD PUSH8 0xFFFFFFFFFFFFFFFF DUP2 GT ISZERO PUSH2 0x1227 JUMPI DUP2 DUP3 REVERT JUMPDEST PUSH1 0x20 DUP4 ADD SWAP2 POP DUP4 PUSH1 0x20 DUP3 DUP6 ADD ADD GT ISZERO PUSH2 0x123F JUMPI PUSH1 0x0 DUP1 REVERT JUMPDEST SWAP3 POP SWAP3 SWAP1 POP JUMP JUMPDEST PUSH1 0x0 PUSH1 0x20 DUP3 DUP5 SUB SLT ISZERO PUSH2 0x1257 JUMPI DUP1 DUP2 REVERT JUMPDEST DUP2 CALLDATALOAD PUSH2 0x791 DUP2 PUSH2 0x1AE7 JUMP JUMPDEST PUSH1 0x0 DUP1 PUSH1 0x40 DUP4 DUP6 SUB SLT ISZERO PUSH2 0x1274 JUMPI DUP1 DUP2 REVERT JUMPDEST DUP3 CALLDATALOAD PUSH2 0x127F DUP2 PUSH2 0x1AE7 JUMP JUMPDEST SWAP5 PUSH1 0x20 SWAP4 SWAP1 SWAP4 ADD CALLDATALOAD SWAP4 POP POP POP JUMP JUMPDEST PUSH1 0x0 DUP1 PUSH1 0x0 DUP1 PUSH1 0x60 DUP6 DUP8 SUB SLT ISZERO PUSH2 0x12A2 JUMPI DUP2 DUP3 REVERT JUMPDEST DUP5 CALLDATALOAD PUSH2 0x12AD DUP2 PUSH2 0x1AE7 JUMP JUMPDEST SWAP4 POP PUSH1 0x20 DUP6 ADD CALLDATALOAD SWAP3 POP PUSH1 0x40 DUP6 ADD CALLDATALOAD PUSH8 0xFFFFFFFFFFFFFFFF DUP2 GT ISZERO PUSH2 0x12CF JUMPI DUP3 DUP4 REVERT JUMPDEST PUSH2 0x12DB DUP8 DUP3 DUP9 ADD PUSH2 0x11FF JUMP JUMPDEST SWAP6 SWAP9 SWAP5 SWAP8 POP SWAP6 POP POP POP POP JUMP JUMPDEST PUSH1 0x0 DUP1 PUSH1 0x0 DUP1 PUSH1 0x80 DUP6 DUP8 SUB SLT ISZERO PUSH2 0x12FC JUMPI DUP4 DUP5 REVERT JUMPDEST DUP5 CALLDATALOAD PUSH2 0x1307 DUP2 PUSH2 0x1AE7 JUMP JUMPDEST SWAP7 PUSH1 0x20 DUP7 ADD CALLDATALOAD SWAP7 POP PUSH1 0x40 DUP7 ADD CALLDATALOAD SWAP6 PUSH1 0x60 ADD CALLDATALOAD SWAP5 POP SWAP3 POP POP POP JUMP JUMPDEST PUSH1 0x0 PUSH1 0x20 DUP3 DUP5 SUB SLT ISZERO PUSH2 0x1332 JUMPI DUP1 DUP2 REVERT JUMPDEST DUP2 MLOAD DUP1 ISZERO ISZERO DUP2 EQ PUSH2 0x791 JUMPI DUP2 DUP3 REVERT JUMPDEST PUSH1 0x0 PUSH1 0x20 DUP3 DUP5 SUB SLT ISZERO PUSH2 0x1352 JUMPI DUP1 DUP2 REVERT JUMPDEST POP CALLDATALOAD SWAP2 SWAP1 POP JUMP JUMPDEST PUSH1 0x0 DUP1 PUSH1 0x40 DUP4 DUP6 SUB SLT ISZERO PUSH2 0x136B JUMPI DUP2 DUP3 REVERT JUMPDEST DUP3 CALLDATALOAD SWAP2 POP PUSH1 0x20 DUP4 ADD CALLDATALOAD PUSH2 0x137D DUP2 PUSH2 0x1AE7 JUMP JUMPDEST DUP1 SWAP2 POP POP SWAP3 POP SWAP3 SWAP1 POP JUMP JUMPDEST PUSH1 0x0 DUP1 PUSH1 0x40 DUP4 DUP6 SUB SLT ISZERO PUSH2 0x139A JUMPI DUP2 DUP3 REVERT JUMPDEST POP POP DUP1 CALLDATALOAD SWAP3 PUSH1 0x20 SWAP1 SWAP2 ADD CALLDATALOAD SWAP2 POP JUMP JUMPDEST PUSH1 0x0 DUP1 PUSH1 0x0 DUP1 PUSH1 0x0 PUSH1 0xA0 DUP7 DUP9 SUB SLT ISZERO PUSH2 0x13C0 JUMPI DUP1 DUP2 REVERT JUMPDEST DUP6 CALLDATALOAD PUSH2 0x13CB DUP2 PUSH2 0x1AE7 JUMP JUMPDEST SWAP5 POP PUSH1 0x20 DUP7 ADD CALLDATALOAD PUSH2 0x13DB DUP2 PUSH2 0x1AE7 JUMP JUMPDEST SWAP4 POP PUSH1 0x40 DUP7 ADD CALLDATALOAD SWAP3 POP PUSH1 0x60 DUP7 ADD CALLDATALOAD PUSH2 0x13F2 DUP2 PUSH2 0x1AE7 JUMP JUMPDEST SWAP2 POP PUSH1 0x80 DUP7 ADD CALLDATALOAD PUSH2 0x1402 DUP2 PUSH2 0x1AE7 JUMP JUMPDEST DUP1 SWAP2 POP POP SWAP3 SWAP6 POP SWAP3 SWAP6 SWAP1 SWAP4 POP JUMP JUMPDEST PUSH1 0x0 DUP1 PUSH1 0x0 PUSH1 0x40 DUP5 DUP7 SUB SLT ISZERO PUSH2 0x1424 JUMPI DUP3 DUP4 REVERT JUMPDEST DUP4 CALLDATALOAD SWAP3 POP PUSH1 0x20 DUP5 ADD CALLDATALOAD PUSH8 0xFFFFFFFFFFFFFFFF DUP2 GT ISZERO PUSH2 0x1441 JUMPI DUP3 DUP4 REVERT JUMPDEST PUSH2 0x144D DUP7 DUP3 DUP8 ADD PUSH2 0x11FF JUMP JUMPDEST SWAP5 SWAP8 SWAP1 SWAP7 POP SWAP4 SWAP5 POP POP POP POP JUMP JUMPDEST PUSH1 0x0 DUP3 MLOAD PUSH2 0x146C DUP2 DUP5 PUSH1 0x20 DUP8 ADD PUSH2 0x1ABB JUMP JUMPDEST SWAP2 SWAP1 SWAP2 ADD SWAP3 SWAP2 POP POP JUMP JUMPDEST PUSH1 0x1 PUSH1 0x1 PUSH1 0xA0 SHL SUB SWAP2 SWAP1 SWAP2 AND DUP2 MSTORE PUSH1 0x20 ADD SWAP1 JUMP JUMPDEST PUSH1 0x1 PUSH1 0x1 PUSH1 0xA0 SHL SUB SWAP4 DUP5 AND DUP2 MSTORE SWAP2 SWAP1 SWAP3 AND PUSH1 0x20 DUP3 ADD MSTORE PUSH1 0x40 DUP2 ADD SWAP2 SWAP1 SWAP2 MSTORE PUSH1 0x60 ADD SWAP1 JUMP JUMPDEST PUSH1 0x1 PUSH1 0x1 PUSH1 0xA0 SHL SUB SWAP3 SWAP1 SWAP3 AND DUP3 MSTORE PUSH1 0x20 DUP3 ADD MSTORE PUSH1 0x40 ADD SWAP1 JUMP JUMPDEST PUSH1 0x20 DUP1 DUP3 MSTORE DUP3 MLOAD DUP3 DUP3 ADD DUP2 SWAP1 MSTORE PUSH1 0x0 SWAP2 SWAP1 DUP5 DUP3 ADD SWAP1 PUSH1 0x40 DUP6 ADD SWAP1 DUP5 JUMPDEST DUP2 DUP2 LT ISZERO PUSH2 0x1508 JUMPI DUP4 MLOAD PUSH1 0x1 PUSH1 0x1 PUSH1 0xA0 SHL SUB AND DUP4 MSTORE SWAP3 DUP5 ADD SWAP3 SWAP2 DUP5 ADD SWAP2 PUSH1 0x1 ADD PUSH2 0x14E3 JUMP JUMPDEST POP SWAP1 SWAP7 SWAP6 POP POP POP POP POP POP JUMP JUMPDEST PUSH1 0x20 DUP1 DUP3 MSTORE DUP3 MLOAD DUP3 DUP3 ADD DUP2 SWAP1 MSTORE PUSH1 0x0 SWAP2 SWAP1 PUSH1 0x40 SWAP1 DUP2 DUP6 ADD SWAP1 DUP7 DUP5 ADD DUP6 JUMPDEST DUP3 DUP2 LT ISZERO PUSH2 0x156B JUMPI DUP2 MLOAD DUP1 MLOAD DUP6 MSTORE DUP7 DUP2 ADD MLOAD DUP8 DUP7 ADD MSTORE DUP6 DUP2 ADD MLOAD DUP7 DUP7 ADD MSTORE PUSH1 0x60 SWAP1 DUP2 ADD MLOAD SWAP1 DUP6 ADD MSTORE PUSH1 0x80 SWAP1 SWAP4 ADD SWAP3 SWAP1 DUP6 ADD SWAP1 PUSH1 0x1 ADD PUSH2 0x1531 JUMP JUMPDEST POP SWAP2 SWAP8 SWAP7 POP POP POP POP POP POP POP JUMP JUMPDEST SWAP1 ISZERO ISZERO DUP2 MSTORE PUSH1 0x20 ADD SWAP1 JUMP JUMPDEST SWAP1 DUP2 MSTORE PUSH1 0x20 ADD SWAP1 JUMP JUMPDEST PUSH1 0x0 PUSH1 0x20 DUP3 MSTORE DUP3 MLOAD DUP1 PUSH1 0x20 DUP5 ADD MSTORE PUSH2 0x15AB DUP2 PUSH1 0x40 DUP6 ADD PUSH1 0x20 DUP8 ADD PUSH2 0x1ABB JUMP JUMPDEST PUSH1 0x1F ADD PUSH1 0x1F NOT AND SWAP2 SWAP1 SWAP2 ADD PUSH1 0x40 ADD SWAP3 SWAP2 POP POP JUMP JUMPDEST PUSH1 0x20 DUP1 DUP3 MSTORE PUSH1 0x9 SWAP1 DUP3 ADD MSTORE PUSH9 0x37B7363CA0B236B4B7 PUSH1 0xB9 SHL PUSH1 0x40 DUP3 ADD MSTORE PUSH1 0x60 ADD SWAP1 JUMP JUMPDEST PUSH1 0x20 DUP1 DUP3 MSTORE PUSH1 0x22 SWAP1 DUP3 ADD MSTORE PUSH32 0x456E756D657261626C655365743A20696E646578206F7574206F6620626F756E PUSH1 0x40 DUP3 ADD MSTORE PUSH2 0x6473 PUSH1 0xF0 SHL PUSH1 0x60 DUP3 ADD MSTORE PUSH1 0x80 ADD SWAP1 JUMP JUMPDEST PUSH1 0x20 DUP1 DUP3 MSTORE PUSH1 0xF SWAP1 DUP3 ADD MSTORE PUSH15 0x37B7363CAA37B5B2B72637B1B5B2B9 PUSH1 0x89 SHL PUSH1 0x40 DUP3 ADD MSTORE PUSH1 0x60 ADD SWAP1 JUMP JUMPDEST PUSH1 0x20 DUP1 DUP3 MSTORE PUSH1 0x2F SWAP1 DUP3 ADD MSTORE PUSH32 0x416363657373436F6E74726F6C3A2073656E646572206D75737420626520616E PUSH1 0x40 DUP3 ADD MSTORE PUSH15 0x818591B5A5B881D1BC819DC985B9D PUSH1 0x8A SHL PUSH1 0x60 DUP3 ADD MSTORE PUSH1 0x80 ADD SWAP1 JUMP JUMPDEST PUSH1 0x20 DUP1 DUP3 MSTORE PUSH1 0x3C SWAP1 DUP3 ADD MSTORE PUSH32 0x4261646765724765797365723A205363686564756C652063616E6E6F74207374 PUSH1 0x40 DUP3 ADD MSTORE PUSH32 0x617274206265666F726520676C6F62616C2073746172742074696D6500000000 PUSH1 0x60 DUP3 ADD MSTORE PUSH1 0x80 ADD SWAP1 JUMP JUMPDEST PUSH1 0x20 DUP1 DUP3 MSTORE PUSH1 0x1B SWAP1 DUP3 ADD MSTORE PUSH32 0x536166654D6174683A206164646974696F6E206F766572666C6F770000000000 PUSH1 0x40 DUP3 ADD MSTORE PUSH1 0x60 ADD SWAP1 JUMP JUMPDEST PUSH1 0x20 DUP1 DUP3 MSTORE PUSH1 0x24 SWAP1 DUP3 ADD MSTORE PUSH32 0x4261646765724765797365723A20756E7374616B6520616D6F756E7420697320 PUSH1 0x40 DUP3 ADD MSTORE PUSH4 0x7A65726F PUSH1 0xE0 SHL PUSH1 0x60 DUP3 ADD MSTORE PUSH1 0x80 ADD SWAP1 JUMP JUMPDEST PUSH1 0x20 DUP1 DUP3 MSTORE PUSH1 0x30 SWAP1 DUP3 ADD MSTORE PUSH32 0x416363657373436F6E74726F6C3A2073656E646572206D75737420626520616E PUSH1 0x40 DUP3 ADD MSTORE PUSH16 0x2061646D696E20746F207265766F6B65 PUSH1 0x80 SHL PUSH1 0x60 DUP3 ADD MSTORE PUSH1 0x80 ADD SWAP1 JUMP JUMPDEST PUSH1 0x20 DUP1 DUP3 MSTORE PUSH1 0x22 SWAP1 DUP3 ADD MSTORE PUSH32 0x4261646765724765797365723A207374616B6520616D6F756E74206973207A65 PUSH1 0x40 DUP3 ADD MSTORE PUSH2 0x726F PUSH1 0xF0 SHL PUSH1 0x60 DUP3 ADD MSTORE PUSH1 0x80 ADD SWAP1 JUMP JUMPDEST PUSH1 0x20 DUP1 DUP3 MSTORE PUSH1 0x2E SWAP1 DUP3 ADD MSTORE PUSH32 0x496E697469616C697A61626C653A20636F6E747261637420697320616C726561 PUSH1 0x40 DUP3 ADD MSTORE PUSH14 0x191E481A5B9A5D1A585B1A5E9959 PUSH1 0x92 SHL PUSH1 0x60 DUP3 ADD MSTORE PUSH1 0x80 ADD SWAP1 JUMP JUMPDEST PUSH1 0x20 DUP1 DUP3 MSTORE PUSH1 0x29 SWAP1 DUP3 ADD MSTORE PUSH32 0x4261646765724765797365723A2062656E6566696369617279206973207A6572 PUSH1 0x40 DUP3 ADD MSTORE PUSH9 0x6F2061646472657373 PUSH1 0xB8 SHL PUSH1 0x60 DUP3 ADD MSTORE PUSH1 0x80 ADD SWAP1 JUMP JUMPDEST PUSH1 0x20 DUP1 DUP3 MSTORE PUSH1 0x29 SWAP1 DUP3 ADD MSTORE PUSH32 0x4261646765724765797365723A20546F6B656E206E6F7420617070726F766564 PUSH1 0x40 DUP3 ADD MSTORE PUSH9 0x10313C9030B236B4B7 PUSH1 0xB9 SHL PUSH1 0x60 DUP3 ADD MSTORE PUSH1 0x80 ADD SWAP1 JUMP JUMPDEST PUSH1 0x20 DUP1 DUP3 MSTORE PUSH1 0x26 SWAP1 DUP3 ADD MSTORE PUSH32 0x4261646765724765797365723A20446973747269627574696F6E206E6F742073 PUSH1 0x40 DUP3 ADD MSTORE PUSH6 0x1D185C9D1959 PUSH1 0xD2 SHL PUSH1 0x60 DUP3 ADD MSTORE PUSH1 0x80 ADD SWAP1 JUMP JUMPDEST PUSH1 0x20 DUP1 DUP3 MSTORE PUSH1 0x1D SWAP1 DUP3 ADD MSTORE PUSH32 0x416464726573733A2063616C6C20746F206E6F6E2D636F6E7472616374000000 PUSH1 0x40 DUP3 ADD MSTORE PUSH1 0x60 ADD SWAP1 JUMP JUMPDEST PUSH1 0x20 DUP1 DUP3 MSTORE PUSH1 0x2A SWAP1 DUP3 ADD MSTORE PUSH32 0x5361666545524332303A204552433230206F7065726174696F6E20646964206E PUSH1 0x40 DUP3 ADD MSTORE PUSH10 0x1BDD081CDD58D8D95959 PUSH1 0xB2 SHL PUSH1 0x60 DUP3 ADD MSTORE PUSH1 0x80 ADD SWAP1 JUMP JUMPDEST PUSH1 0x20 DUP1 DUP3 MSTORE PUSH1 0x3E SWAP1 DUP3 ADD MSTORE PUSH32 0x4261646765724765797365723A20756E7374616B6520616D6F756E7420697320 PUSH1 0x40 DUP3 ADD MSTORE PUSH32 0x67726561746572207468616E20746F74616C2075736572207374616B65730000 PUSH1 0x60 DUP3 ADD MSTORE PUSH1 0x80 ADD SWAP1 JUMP JUMPDEST PUSH1 0x20 DUP1 DUP3 MSTORE PUSH1 0x2F SWAP1 DUP3 ADD MSTORE PUSH32 0x416363657373436F6E74726F6C3A2063616E206F6E6C792072656E6F756E6365 PUSH1 0x40 DUP3 ADD MSTORE PUSH15 0x103937B632B9903337B91039B2B633 PUSH1 0x89 SHL PUSH1 0x60 DUP3 ADD MSTORE PUSH1 0x80 ADD SWAP1 JUMP JUMPDEST SWAP2 DUP3 MSTORE PUSH1 0x20 DUP3 ADD MSTORE PUSH1 0x60 PUSH1 0x40 DUP3 ADD DUP2 SWAP1 MSTORE PUSH1 0x0 SWAP1 DUP3 ADD MSTORE PUSH1 0x80 ADD SWAP1 JUMP JUMPDEST SWAP4 DUP5 MSTORE PUSH1 0x20 DUP5 ADD SWAP3 SWAP1 SWAP3 MSTORE PUSH1 0x40 DUP4 ADD MSTORE PUSH1 0x60 DUP3 ADD MSTORE PUSH1 0x80 ADD SWAP1 JUMP JUMPDEST SWAP4 DUP5 MSTORE PUSH1 0x20 DUP5 ADD SWAP3 SWAP1 SWAP3 MSTORE PUSH1 0x40 DUP4 ADD MSTORE PUSH1 0x60 DUP3 ADD MSTORE PUSH1 0xA0 PUSH1 0x80 DUP3 ADD DUP2 SWAP1 MSTORE PUSH1 0x0 SWAP1 DUP3 ADD MSTORE PUSH1 0xC0 ADD SWAP1 JUMP JUMPDEST PUSH1 0x0 JUMPDEST DUP4 DUP2 LT ISZERO PUSH2 0x1AD6 JUMPI DUP2 DUP2 ADD MLOAD DUP4 DUP3 ADD MSTORE PUSH1 0x20 ADD PUSH2 0x1ABE JUMP JUMPDEST DUP4 DUP2 GT ISZERO PUSH2 0x3E0 JUMPI POP POP PUSH1 0x0 SWAP2 ADD MSTORE JUMP JUMPDEST PUSH1 0x1 PUSH1 0x1 PUSH1 0xA0 SHL SUB DUP2 AND DUP2 EQ PUSH2 0xB9B JUMPI PUSH1 0x0 DUP1 REVERT INVALID LOG2 PUSH5 0x6970667358 0x22 SLT KECCAK256 0xAD DUP2 PUSH32 0x648C75FBB5372C1ED9A49713E9460C4ABF6242811F08556628EE8BF92D64736F PUSH13 0x634300060C0033000000000000 ",
  "sha1": "4c928bc9bf1552d0043d744ff4d61c1167807afc",
  "source": "// SPDX-License-Identifier: MIT\n\npragma solidity ^0.6.0;\npragma experimental ABIEncoderV2;\n\nimport \"deps/@openzeppelin/contracts-upgradeable/math/SafeMathUpgradeable.sol\";\nimport \"deps/@openzeppelin/contracts-upgradeable/token/ERC20/IERC20Upgradeable.sol\";\nimport \"deps/@openzeppelin/contracts-upgradeable/token/ERC20/SafeERC20Upgradeable.sol\";\nimport \"deps/@openzeppelin/contracts-upgradeable/access/AccessControlUpgradeable.sol\";\nimport \"deps/@openzeppelin/contracts-upgradeable/utils/EnumerableSetUpgradeable.sol\";\n\n/**\n * @title Badger Geyser\n @dev Tracks stakes and pledged tokens to be distributed, for use with \n @dev BadgerTree merkle distribution system. An arbitrary number of tokens to \n distribute can be specified.\n */\n\ncontract BadgerGeyser is Initializable, AccessControlUpgradeable {\n    using SafeERC20Upgradeable for IERC20Upgradeable;\n    using SafeMathUpgradeable for uint256;\n    using EnumerableSetUpgradeable for EnumerableSetUpgradeable.AddressSet;\n\n    struct UnlockSchedule {\n        uint256 initialLocked;\n        uint256 endAtSec;\n        uint256 durationSec;\n        uint256 startTime;\n    }\n\n    uint256 public globalStartTime;\n\n    uint256 public constant MAX_PERCENTAGE = 100;\n    bytes32 public constant TOKEN_LOCKER_ROLE = keccak256(\"TOKEN_LOCKER_ROLE\");\n\n    uint256 public totalStaked;\n\n    IERC20Upgradeable internal _stakingToken;\n    EnumerableSetUpgradeable.AddressSet distributionTokens;\n\n    mapping(address => uint256) internal _userTotals;\n    mapping(address => UnlockSchedule[]) public unlockSchedules;\n\n    event Staked(address indexed user, uint256 amount, uint256 total, uint256 indexed timestamp, uint256 indexed blockNumber, bytes data);\n    event Unstaked(address indexed user, uint256 amount, uint256 total, uint256 indexed timestamp, uint256 indexed blockNumber, bytes data);\n    event UnlockScheduleSet(address token, uint256 initialLocked, uint256 durationSec, uint256 startTime, uint256 endTime);\n    event TokensLocked(\n        address indexed token,\n        uint256 amount,\n        uint256 durationSec,\n        uint256 startTime,\n        uint256 endTime,\n        uint256 indexed timestamp,\n        bytes data\n    );\n\n    /**\n     * @param stakingToken_ The token users deposit as stake.\n     * @param initialDistributionToken_ The token users receive as they unstake.\n     * @param globalStartTime_ Timestamp after which unlock schedules and staking can begin.\n     */\n    function initialize(\n        IERC20Upgradeable stakingToken_,\n        address initialDistributionToken_,\n        uint256 globalStartTime_,\n        address initialAdmin_,\n        address initialTokenLocker_\n    ) public initializer {\n        __AccessControl_init();\n\n        _setupRole(DEFAULT_ADMIN_ROLE, initialAdmin_);\n        _setupRole(TOKEN_LOCKER_ROLE, initialTokenLocker_);\n\n        _stakingToken = stakingToken_;\n        distributionTokens.add(initialDistributionToken_);\n\n        globalStartTime = globalStartTime_;\n    }\n\n    /// ===== Modifiers =====\n\n    function _onlyAfterStart() internal {\n        require(now >= globalStartTime, \"BadgerGeyser: Distribution not started\");\n    }\n\n    function _onlyAdmin() internal {\n        require(hasRole(DEFAULT_ADMIN_ROLE, msg.sender), \"onlyAdmin\");\n    }\n\n    function _onlyTokenLocker() internal {\n        require(hasRole(TOKEN_LOCKER_ROLE, msg.sender), \"onlyTokenLocker\");\n    }\n\n    /// ===== View Functions =====\n\n    /**\n     * @return False. This application does not support staking history.\n     */\n    function supportsHistory() external pure returns (bool) {\n        return false;\n    }\n\n    /**\n     * @return The token users deposit as stake.\n     */\n    function getStakingToken() public view returns (IERC20Upgradeable) {\n        return _stakingToken;\n    }\n\n    /**\n     * @return The token users receive as they unstake.\n     */\n    function getDistributionTokens() public view returns (address[] memory) {\n        uint256 numTokens = distributionTokens.length();\n        address[] memory tokens = new address[](numTokens);\n\n        for (uint256 i = 0; i < numTokens; i++) {\n            tokens[i] = distributionTokens.at(i);\n        }\n\n        return tokens;\n    }\n\n    function getNumDistributionTokens() public view returns (uint256) {\n        return distributionTokens.length();\n    }\n\n    /**\n     * @param addr The user to look up staking information for.\n     * @return The number of staking tokens deposited for addr.\n     */\n    function totalStakedFor(address addr) public view returns (uint256) {\n        return _userTotals[addr];\n    }\n\n    /**\n     * @return Number of unlock schedules.\n     */\n    function unlockScheduleCount(address token) public view returns (uint256) {\n        return unlockSchedules[token].length;\n    }\n\n    function getUnlockSchedulesFor(address token) public view returns (UnlockSchedule[] memory) {\n        return unlockSchedules[token];\n    }\n\n    /// ===== Public Actions =====\n\n    /**\n     * @dev Transfers amount of deposit tokens from the user.\n     * @param amount Number of deposit tokens to stake.\n     */\n    function stake(uint256 amount, bytes calldata data) external {\n        _onlyAfterStart();\n        _stakeFor(msg.sender, msg.sender, amount);\n    }\n\n    /**\n     * @dev Transfers amount of deposit tokens from the caller on behalf of user.\n     * @param user User address who gains credit for this stake operation.\n     * @param amount Number of deposit tokens to stake.\n     * @param data Not used.\n     */\n    function stakeFor(\n        address user,\n        uint256 amount,\n        bytes calldata data\n    ) external {\n        _onlyAfterStart();\n        _stakeFor(msg.sender, user, amount);\n    }\n\n    /**\n     * @dev Unstakes a certain amount of previously deposited tokens. User also receives their\n     * alotted number of distribution tokens.\n     * @param amount Number of deposit tokens to unstake / withdraw.\n     * @param data Not used.\n     */\n    function unstake(uint256 amount, bytes calldata data) external {\n        _onlyAfterStart();\n        _unstakeFor(msg.sender, amount);\n    }\n\n    /// ===== Permissioned Actions: Admins =====\n    \n    function addDistributionToken(address token) external {\n        _onlyAdmin();\n        distributionTokens.add(token);\n    }\n\n    /// ===== Permissioned Actions: Token Lockers =====\n\n    /**\n     * @dev This funcion allows the contract owner to pledge more distribution tokens, along\n     *      with the associated \"unlock schedule\". These locked tokens immediately begin unlocking\n     *      linearly over the duraction of durationSec timeframe.\n     * @param token Token to lock.\n     * @param amount Number of distribution tokens to lock. These are transferred from the caller.\n     * @param durationSec Length of time to linear unlock the tokens.\n     * @param startTime Time to start distribution.\n     */\n    function signalTokenLock(\n        address token,\n        uint256 amount,\n        uint256 durationSec,\n        uint256 startTime\n    ) external {\n        _onlyTokenLocker();   \n        require(startTime >= globalStartTime, \"BadgerGeyser: Schedule cannot start before global start time\");\n        require(distributionTokens.contains(token), \"BadgerGeyser: Token not approved by admin\");\n     \n        _signalTokenLock(token, amount, durationSec, startTime);\n    }\n\n    /// ===== Internal Implementations =====\n\n    /**\n     * @dev Internal implementation of staking methods.\n     * @param staker User address who deposits tokens to stake.\n     * @param beneficiary User address who gains credit for this stake operation.\n     * @param amount Number of deposit tokens to stake.\n     */\n    function _stakeFor(\n        address staker,\n        address beneficiary,\n        uint256 amount\n    ) internal {\n        require(amount > 0, \"BadgerGeyser: stake amount is zero\");\n        require(beneficiary != address(0), \"BadgerGeyser: beneficiary is zero address\");\n\n        // 1. User Accounting\n        _userTotals[beneficiary] = _userTotals[beneficiary].add(amount);\n\n        // 2. Global Accounting\n        totalStaked = totalStaked.add(amount);\n\n        _stakingToken.safeTransferFrom(staker, address(this), amount);\n\n        emit Staked(beneficiary, amount, totalStakedFor(beneficiary), now, block.number, \"\");\n    }\n\n    /**\n     * @dev Unstakes a certain amount of previously deposited tokens. User also receives their\n     * alotted number of distribution tokens.\n     * @param amount Number of deposit tokens to unstake / withdraw.\n     */\n    function _unstakeFor(address user, uint256 amount) internal {\n        // checks\n        require(amount > 0, \"BadgerGeyser: unstake amount is zero\");\n        require(totalStakedFor(user) >= amount, \"BadgerGeyser: unstake amount is greater than total user stakes\");\n\n        // 1. User Accounting\n        _userTotals[user] = _userTotals[user].sub(amount);\n\n        // 2. Global Accounting\n        totalStaked = totalStaked.sub(amount);\n\n        // interactions\n        _stakingToken.safeTransfer(user, amount);\n\n        emit Unstaked(user, amount, totalStakedFor(user), now, block.number, \"\");\n    }\n\n    function _signalTokenLock(\n        address token,\n        uint256 amount,\n        uint256 durationSec,\n        uint256 startTime\n    ) internal {\n\n        UnlockSchedule memory schedule;\n        schedule.initialLocked = amount;\n        schedule.endAtSec = startTime.add(durationSec);\n        schedule.durationSec = durationSec;\n        schedule.startTime = startTime;\n        unlockSchedules[token].push(schedule);\n\n        emit TokensLocked(token, amount, durationSec, startTime, schedule.endAtSec, now, \"\");\n    }\n}\n",
  "sourcePath": "contracts/badger-geyser/BadgerGeyser.sol",
  "type": "contract"
}