{
	"abi": [
		{
			"anonymous": false,
			"inputs": [
				{
					"indexed": true,
					"internalType": "address",
					"name": "user",
					"type": "address"
				},
				{
					"indexed": true,
					"internalType": "address",
					"name": "token",
					"type": "address"
				},
				{
					"indexed": false,
					"internalType": "uint256",
					"name": "amount",
					"type": "uint256"
				},
				{
					"indexed": true,
					"internalType": "uint256",
					"name": "cycle",
					"type": "uint256"
				},
				{
					"indexed": false,
					"internalType": "uint256",
					"name": "timestamp",
					"type": "uint256"
				},
				{
					"indexed": false,
					"internalType": "uint256",
					"name": "blockNumber",
					"type": "uint256"
				}
			],
			"name": "Claimed",
			"type": "event"
		},
		{
			"anonymous": false,
			"inputs": [
				{
					"indexed": true,
					"internalType": "bytes32",
					"name": "root",
					"type": "bytes32"
				}
			],
			"name": "InsufficientFundsForRoot",
			"type": "event"
		},
		{
			"anonymous": false,
			"inputs": [
				{
					"indexed": false,
					"internalType": "address",
					"name": "account",
					"type": "address"
				}
			],
			"name": "Paused",
			"type": "event"
		},
		{
			"anonymous": false,
			"inputs": [
				{
					"indexed": true,
					"internalType": "bytes32",
					"name": "role",
					"type": "bytes32"
				},
				{
					"indexed": true,
					"internalType": "bytes32",
					"name": "previousAdminRole",
					"type": "bytes32"
				},
				{
					"indexed": true,
					"internalType": "bytes32",
					"name": "newAdminRole",
					"type": "bytes32"
				}
			],
			"name": "RoleAdminChanged",
			"type": "event"
		},
		{
			"anonymous": false,
			"inputs": [
				{
					"indexed": true,
					"internalType": "bytes32",
					"name": "role",
					"type": "bytes32"
				},
				{
					"indexed": true,
					"internalType": "address",
					"name": "account",
					"type": "address"
				},
				{
					"indexed": true,
					"internalType": "address",
					"name": "sender",
					"type": "address"
				}
			],
			"name": "RoleGranted",
			"type": "event"
		},
		{
			"anonymous": false,
			"inputs": [
				{
					"indexed": true,
					"internalType": "bytes32",
					"name": "role",
					"type": "bytes32"
				},
				{
					"indexed": true,
					"internalType": "address",
					"name": "account",
					"type": "address"
				},
				{
					"indexed": true,
					"internalType": "address",
					"name": "sender",
					"type": "address"
				}
			],
			"name": "RoleRevoked",
			"type": "event"
		},
		{
			"anonymous": false,
			"inputs": [
				{
					"indexed": true,
					"internalType": "uint256",
					"name": "cycle",
					"type": "uint256"
				},
				{
					"indexed": true,
					"internalType": "bytes32",
					"name": "root",
					"type": "bytes32"
				},
				{
					"indexed": true,
					"internalType": "bytes32",
					"name": "contentHash",
					"type": "bytes32"
				},
				{
					"indexed": false,
					"internalType": "uint256",
					"name": "timestamp",
					"type": "uint256"
				},
				{
					"indexed": false,
					"internalType": "uint256",
					"name": "blockNumber",
					"type": "uint256"
				}
			],
			"name": "RootProposed",
			"type": "event"
		},
		{
			"anonymous": false,
			"inputs": [
				{
					"indexed": true,
					"internalType": "uint256",
					"name": "cycle",
					"type": "uint256"
				},
				{
					"indexed": true,
					"internalType": "bytes32",
					"name": "root",
					"type": "bytes32"
				},
				{
					"indexed": true,
					"internalType": "bytes32",
					"name": "contentHash",
					"type": "bytes32"
				},
				{
					"indexed": false,
					"internalType": "uint256",
					"name": "timestamp",
					"type": "uint256"
				},
				{
					"indexed": false,
					"internalType": "uint256",
					"name": "blockNumber",
					"type": "uint256"
				}
			],
			"name": "RootUpdated",
			"type": "event"
		},
		{
			"anonymous": false,
			"inputs": [
				{
					"indexed": false,
					"internalType": "address",
					"name": "account",
					"type": "address"
				}
			],
			"name": "Unpaused",
			"type": "event"
		},
		{
			"inputs": [],
			"name": "DEFAULT_ADMIN_ROLE",
			"outputs": [
				{
					"internalType": "bytes32",
					"name": "",
					"type": "bytes32"
				}
			],
			"stateMutability": "view",
			"type": "function"
		},
		{
			"inputs": [],
			"name": "GUARDIAN_ROLE",
			"outputs": [
				{
					"internalType": "bytes32",
					"name": "",
					"type": "bytes32"
				}
			],
			"stateMutability": "view",
			"type": "function"
		},
		{
			"inputs": [],
			"name": "ROOT_UPDATER_ROLE",
			"outputs": [
				{
					"internalType": "bytes32",
					"name": "",
					"type": "bytes32"
				}
			],
			"stateMutability": "view",
			"type": "function"
		},
		{
			"inputs": [
				{
					"internalType": "bytes32",
					"name": "root",
					"type": "bytes32"
				},
				{
					"internalType": "bytes32",
					"name": "contentHash",
					"type": "bytes32"
				},
				{
					"internalType": "uint256",
					"name": "cycle",
					"type": "uint256"
				}
			],
			"name": "approveRoot",
			"outputs": [],
			"stateMutability": "nonpayable",
			"type": "function"
		},
		{
			"inputs": [
				{
					"internalType": "address[]",
					"name": "tokens",
					"type": "address[]"
				},
				{
					"internalType": "uint256[]",
					"name": "cumulativeAmounts",
					"type": "uint256[]"
				},
				{
					"internalType": "uint256",
					"name": "index",
					"type": "uint256"
				},
				{
					"internalType": "uint256",
					"name": "cycle",
					"type": "uint256"
				},
				{
					"internalType": "bytes32[]",
					"name": "merkleProof",
					"type": "bytes32[]"
				}
			],
			"name": "claim",
			"outputs": [],
			"stateMutability": "nonpayable",
			"type": "function"
		},
		{
			"inputs": [
				{
					"internalType": "address",
					"name": "",
					"type": "address"
				},
				{
					"internalType": "address",
					"name": "",
					"type": "address"
				}
			],
			"name": "claimed",
			"outputs": [
				{
					"internalType": "uint256",
					"name": "",
					"type": "uint256"
				}
			],
			"stateMutability": "view",
			"type": "function"
		},
		{
			"inputs": [],
			"name": "currentCycle",
			"outputs": [
				{
					"internalType": "uint256",
					"name": "",
					"type": "uint256"
				}
			],
			"stateMutability": "view",
			"type": "function"
		},
		{
			"inputs": [
				{
					"internalType": "address",
					"name": "user",
					"type": "address"
				},
				{
					"internalType": "address[]",
					"name": "tokens",
					"type": "address[]"
				}
			],
			"name": "getClaimedFor",
			"outputs": [
				{
					"internalType": "address[]",
					"name": "",
					"type": "address[]"
				},
				{
					"internalType": "uint256[]",
					"name": "",
					"type": "uint256[]"
				}
			],
			"stateMutability": "view",
			"type": "function"
		},
		{
			"inputs": [],
			"name": "getCurrentMerkleData",
			"outputs": [
				{
					"components": [
						{
							"internalType": "bytes32",
							"name": "root",
							"type": "bytes32"
						},
						{
							"internalType": "bytes32",
							"name": "contentHash",
							"type": "bytes32"
						},
						{
							"internalType": "uint256",
							"name": "timestamp",
							"type": "uint256"
						},
						{
							"internalType": "uint256",
							"name": "blockNumber",
							"type": "uint256"
						}
					],
					"internalType": "struct BadgerTree.MerkleData",
					"name": "",
					"type": "tuple"
				}
			],
			"stateMutability": "view",
			"type": "function"
		},
		{
			"inputs": [],
			"name": "getPendingMerkleData",
			"outputs": [
				{
					"components": [
						{
							"internalType": "bytes32",
							"name": "root",
							"type": "bytes32"
						},
						{
							"internalType": "bytes32",
							"name": "contentHash",
							"type": "bytes32"
						},
						{
							"internalType": "uint256",
							"name": "timestamp",
							"type": "uint256"
						},
						{
							"internalType": "uint256",
							"name": "blockNumber",
							"type": "uint256"
						}
					],
					"internalType": "struct BadgerTree.MerkleData",
					"name": "",
					"type": "tuple"
				}
			],
			"stateMutability": "view",
			"type": "function"
		},
		{
			"inputs": [
				{
					"internalType": "bytes32",
					"name": "role",
					"type": "bytes32"
				}
			],
			"name": "getRoleAdmin",
			"outputs": [
				{
					"internalType": "bytes32",
					"name": "",
					"type": "bytes32"
				}
			],
			"stateMutability": "view",
			"type": "function"
		},
		{
			"inputs": [
				{
					"internalType": "bytes32",
					"name": "role",
					"type": "bytes32"
				},
				{
					"internalType": "uint256",
					"name": "index",
					"type": "uint256"
				}
			],
			"name": "getRoleMember",
			"outputs": [
				{
					"internalType": "address",
					"name": "",
					"type": "address"
				}
			],
			"stateMutability": "view",
			"type": "function"
		},
		{
			"inputs": [
				{
					"internalType": "bytes32",
					"name": "role",
					"type": "bytes32"
				}
			],
			"name": "getRoleMemberCount",
			"outputs": [
				{
					"internalType": "uint256",
					"name": "",
					"type": "uint256"
				}
			],
			"stateMutability": "view",
			"type": "function"
		},
		{
			"inputs": [
				{
					"internalType": "bytes32",
					"name": "role",
					"type": "bytes32"
				},
				{
					"internalType": "address",
					"name": "account",
					"type": "address"
				}
			],
			"name": "grantRole",
			"outputs": [],
			"stateMutability": "nonpayable",
			"type": "function"
		},
		{
			"inputs": [],
			"name": "hasPendingRoot",
			"outputs": [
				{
					"internalType": "bool",
					"name": "",
					"type": "bool"
				}
			],
			"stateMutability": "view",
			"type": "function"
		},
		{
			"inputs": [
				{
					"internalType": "bytes32",
					"name": "role",
					"type": "bytes32"
				},
				{
					"internalType": "address",
					"name": "account",
					"type": "address"
				}
			],
			"name": "hasRole",
			"outputs": [
				{
					"internalType": "bool",
					"name": "",
					"type": "bool"
				}
			],
			"stateMutability": "view",
			"type": "function"
		},
		{
			"inputs": [
				{
					"internalType": "address",
					"name": "admin",
					"type": "address"
				},
				{
					"internalType": "address",
					"name": "initialUpdater",
					"type": "address"
				},
				{
					"internalType": "address",
					"name": "initialGuardian",
					"type": "address"
				}
			],
			"name": "initialize",
			"outputs": [],
			"stateMutability": "nonpayable",
			"type": "function"
		},
		{
			"inputs": [],
			"name": "lastProposeBlockNumber",
			"outputs": [
				{
					"internalType": "uint256",
					"name": "",
					"type": "uint256"
				}
			],
			"stateMutability": "view",
			"type": "function"
		},
		{
			"inputs": [],
			"name": "lastProposeTimestamp",
			"outputs": [
				{
					"internalType": "uint256",
					"name": "",
					"type": "uint256"
				}
			],
			"stateMutability": "view",
			"type": "function"
		},
		{
			"inputs": [],
			"name": "lastPublishBlockNumber",
			"outputs": [
				{
					"internalType": "uint256",
					"name": "",
					"type": "uint256"
				}
			],
			"stateMutability": "view",
			"type": "function"
		},
		{
			"inputs": [],
			"name": "lastPublishTimestamp",
			"outputs": [
				{
					"internalType": "uint256",
					"name": "",
					"type": "uint256"
				}
			],
			"stateMutability": "view",
			"type": "function"
		},
		{
			"inputs": [],
			"name": "merkleContentHash",
			"outputs": [
				{
					"internalType": "bytes32",
					"name": "",
					"type": "bytes32"
				}
			],
			"stateMutability": "view",
			"type": "function"
		},
		{
			"inputs": [],
			"name": "merkleRoot",
			"outputs": [
				{
					"internalType": "bytes32",
					"name": "",
					"type": "bytes32"
				}
			],
			"stateMutability": "view",
			"type": "function"
		},
		{
			"inputs": [],
			"name": "pause",
			"outputs": [],
			"stateMutability": "nonpayable",
			"type": "function"
		},
		{
			"inputs": [],
			"name": "paused",
			"outputs": [
				{
					"internalType": "bool",
					"name": "",
					"type": "bool"
				}
			],
			"stateMutability": "view",
			"type": "function"
		},
		{
			"inputs": [],
			"name": "pendingCycle",
			"outputs": [
				{
					"internalType": "uint256",
					"name": "",
					"type": "uint256"
				}
			],
			"stateMutability": "view",
			"type": "function"
		},
		{
			"inputs": [],
			"name": "pendingMerkleContentHash",
			"outputs": [
				{
					"internalType": "bytes32",
					"name": "",
					"type": "bytes32"
				}
			],
			"stateMutability": "view",
			"type": "function"
		},
		{
			"inputs": [],
			"name": "pendingMerkleRoot",
			"outputs": [
				{
					"internalType": "bytes32",
					"name": "",
					"type": "bytes32"
				}
			],
			"stateMutability": "view",
			"type": "function"
		},
		{
			"inputs": [
				{
					"internalType": "bytes32",
					"name": "root",
					"type": "bytes32"
				},
				{
					"internalType": "bytes32",
					"name": "contentHash",
					"type": "bytes32"
				},
				{
					"internalType": "uint256",
					"name": "cycle",
					"type": "uint256"
				}
			],
			"name": "proposeRoot",
			"outputs": [],
			"stateMutability": "nonpayable",
			"type": "function"
		},
		{
			"inputs": [
				{
					"internalType": "bytes32",
					"name": "role",
					"type": "bytes32"
				},
				{
					"internalType": "address",
					"name": "account",
					"type": "address"
				}
			],
			"name": "renounceRole",
			"outputs": [],
			"stateMutability": "nonpayable",
			"type": "function"
		},
		{
			"inputs": [
				{
					"internalType": "bytes32",
					"name": "role",
					"type": "bytes32"
				},
				{
					"internalType": "address",
					"name": "account",
					"type": "address"
				}
			],
			"name": "revokeRole",
			"outputs": [],
			"stateMutability": "nonpayable",
			"type": "function"
		},
		{
			"inputs": [
				{
					"internalType": "address",
					"name": "",
					"type": "address"
				}
			],
			"name": "totalClaimed",
			"outputs": [
				{
					"internalType": "uint256",
					"name": "",
					"type": "uint256"
				}
			],
			"stateMutability": "view",
			"type": "function"
		},
		{
			"inputs": [],
			"name": "unpause",
			"outputs": [],
			"stateMutability": "nonpayable",
			"type": "function"
		}
	],
	"bytecode": "608060405234801561001057600080fd5b50611df6806100206000396000f3fe608060405234801561001057600080fd5b50600436106101fb5760003560e01c80639010d07c1161011a578063b20cd555116100ad578063d547741f1161007c578063d547741f146103a6578063d9ab2c5c146103b9578063ef5d9ae8146103c1578063f6162b01146103d4578063fe0317ef146103e7576101fb565b8063b20cd55514610370578063bab2f55214610378578063c0c53b8b14610380578063ca15c87314610393576101fb565b806397c9c12f116100e957806397c9c12f14610337578063a155285f1461033f578063a217fddf14610347578063a2fcfd681461034f576101fb565b80639010d07c146102f457806391d14854146103145780639637f4751461032757806396f7cd571461032f576101fb565b80632f37a7741161019257806366739d3b1161016157806366739d3b146102c95780638270d87b146102dc5780638456cb59146102e45780638cbc762e146102ec576101fb565b80632f37a7741461029157806336568abe146102a65780633f4ba83a146102b95780635c975abb146102c1576101fb565b8063248a9ca3116101ce578063248a9ca31461025b57806324ea54f41461026e5780632eb4a7ab146102765780632f2ff15d1461027e576101fb565b80630c9cbf0e146102005780630d4202ce14610229578063116037cc1461023e5780631fe065ad14610253575b600080fd5b61021361020e366004611528565b6103ef565b6040516102209190611928565b60405180910390f35b61023161040c565b6040516102209190611d38565b61025161024c36600461176d565b610442565b005b61021361051a565b61021361026936600461171b565b610520565b610213610535565b610213610559565b61025161028c366004611733565b61055f565b6102996105a7565b604051610220919061191d565b6102516102b4366004611733565b6105c1565b610251610603565b610299610615565b6102516102d736600461176d565b61061e565b6102136106c6565b6102516106cc565b6102136106dc565b610307610302366004611798565b6106e2565b6040516102209190611862565b610299610322366004611733565b610703565b61021361071b565b610213610721565b610213610727565b61021361072d565b610213610733565b61036261035d3660046115a1565b610738565b60405161022092919061188f565b61023161080d565b610213610843565b61025161038e36600461155c565b610849565b6102136103a136600461171b565b61093d565b6102516103b4366004611733565b610954565b61021361098e565b6102136103cf36600461150d565b6109b1565b6102516103e2366004611652565b6109c3565b610213610dc4565b60a160209081526000928352604080842090915290825290205481565b61041461148d565b6040518060800160405280609d548152602001609e548152602001609f54815260200160a054815250905090565b609d54831461046c5760405162461bcd60e51b815260040161046390611aa3565b60405180910390fd5b609e54821461048d5760405162461bcd60e51b815260040161046390611b45565b609c5481146104ae5760405162461bcd60e51b815260040161046390611cc0565b6097546104bc906001610dca565b60978190556098849055609983905542609a81905543609b8190556040518593879390927f03934c24f0815369800391139ad44a2b4ac75e07cbbf74bdae8c3d9ab0caca159261050d9291906117ce565b60405180910390a4505050565b60995481565b60009081526033602052604090206002015490565b7f55435dd261a4b9b3364963f7738a7a662ad9c84396d64be3365284bb7f0a504181565b60985481565b60008281526033602052604090206002015461057d90610322610def565b6105995760405162461bcd60e51b8152600401610463906119c6565b6105a38282610df3565b5050565b6097546000906105b8906001610dca565b609c5414905090565b6105c9610def565b6001600160a01b0316816001600160a01b0316146105f95760405162461bcd60e51b815260040161046390611ce9565b6105a38282610e5c565b61060b610ec5565b610613610f0b565b565b60655460ff1690565b60655460ff16156106415760405162461bcd60e51b815260040161046390611b1b565b610649610f77565b609754610657906001610dca565b81146106755760405162461bcd60e51b815260040161046390611cc0565b609c819055609d839055609e82905542609f8190554360a08190556040518492869285927fdb07d3ace4eb8cb6d13437eec22aee8fceb4200c6b31945a3fcd75758d9bd34b9261050d9290916117ce565b609b5481565b6106d4610ec5565b610613610fbc565b609f5481565b60008281526033602052604081206106fa9083611015565b90505b92915050565b60008281526033602052604081206106fa9083611021565b609d5481565b609a5481565b60a05481565b609c5481565b600081565b6060806060835167ffffffffffffffff8111801561075557600080fd5b5060405190808252806020026020018201604052801561077f578160200160208202803683370190505b50905060005b84518110156107ff576001600160a01b038616600090815260a16020526040812086519091908790849081106107b757fe5b60200260200101516001600160a01b03166001600160a01b03168152602001908152602001600020548282815181106107ec57fe5b6020908102919091010152600101610785565b5083925090505b9250929050565b61081561148d565b604051806080016040528060985481526020016099548152602001609a54815260200160a054815250905090565b60975481565b600054610100900460ff16806108625750610862611036565b80610870575060005460ff16155b61088c5760405162461bcd60e51b815260040161046390611b75565b600054610100900460ff161580156108b7576000805460ff1961ff0019909116610100171660011790555b6108bf61103c565b6108c76110cf565b6108d2600085610599565b6108fb7e9ab23a1010d07a0450a1fbea1d84169b57d2c2273b54bff0f20c3e90199b5d84610599565b6109257f55435dd261a4b9b3364963f7738a7a662ad9c84396d64be3365284bb7f0a504183610599565b8015610937576000805461ff00191690555b50505050565b60008181526033602052604081206106fd9061115b565b60008281526033602052604090206002015461097290610322610def565b6105f95760405162461bcd60e51b815260040161046390611acb565b7e9ab23a1010d07a0450a1fbea1d84169b57d2c2273b54bff0f20c3e90199b5d81565b60a26020526000908152604090205481565b60655460ff16156109e65760405162461bcd60e51b815260040161046390611b1b565b6097548314610a075760405162461bcd60e51b815260040161046390611bec565b60008433858b8b8b8b604051602001610a2697969594939291906117dc565b604051602081830303815290604052805190602001209050610a7f838380806020026020016040519081016040528093929190818152602001838360200280828437600092019190915250506098549150849050611166565b610a9b5760405162461bcd60e51b815260040161046390611c99565b60005b88811015610db85733600090815260a160205260408120610b1d90828d8d86818110610ac657fe5b9050602002016020810190610adb919061150d565b6001600160a01b03166001600160a01b03168152602001908152602001600020548a8a85818110610b0857fe5b9050602002013561120390919063ffffffff16565b905060008111610b3f5760405162461bcd60e51b815260040161046390611c4a565b33600090815260a160205260408120610b96918391908e8e87818110610b6157fe5b9050602002016020810190610b76919061150d565b6001600160a01b0316815260208101919091526040016000205490610dca565b33600090815260a160205260408120908d8d86818110610bb257fe5b9050602002016020810190610bc7919061150d565b6001600160a01b03168152602081019190915260400160002055888883818110610bed57fe5b33600090815260a160209081526040822092029390930135929091508d8d86818110610c1557fe5b9050602002016020810190610c2a919061150d565b6001600160a01b03166001600160a01b031681526020019081526020016000205414610c685760405162461bcd60e51b815260040161046390611c13565b8a8a83818110610c7457fe5b9050602002016020810190610c89919061150d565b6001600160a01b031663a9059cbb338b8b86818110610ca457fe5b905060200201356040518363ffffffff1660e01b8152600401610cc8929190611876565b602060405180830381600087803b158015610ce257600080fd5b505af1158015610cf6573d6000803e3d6000fd5b505050506040513d601f19601f82011682018060405250810190610d1a91906116fb565b610d365760405162461bcd60e51b815260040161046390611a43565b858b8b84818110610d4357fe5b9050602002016020810190610d58919061150d565b6001600160a01b0316337f6f9c9826be5976f3f82a3490c52a83328ce2ec7be9e62dcb39c26da5148d7c768c8c87818110610d8f57fe5b905060200201354243604051610da793929190611d63565b60405180910390a450600101610a9e565b50505050505050505050565b609e5481565b6000828201838110156106fa5760405162461bcd60e51b815260040161046390611a6c565b3390565b6000828152603360205260409020610e0b9082611245565b156105a357610e18610def565b6001600160a01b0316816001600160a01b0316837f2f8788117e7eff1d82e926ec794901d17c78024a50270940304540a733656f0d60405160405180910390a45050565b6000828152603360205260409020610e74908261125a565b156105a357610e81610def565b6001600160a01b0316816001600160a01b0316837ff6391f5c32d9c69d2a47ea670b442974b53935d1edc7fd64eb21e047a839171b60405160405180910390a45050565b610eef7f55435dd261a4b9b3364963f7738a7a662ad9c84396d64be3365284bb7f0a504133610703565b6106135760405162461bcd60e51b815260040161046390611c73565b60655460ff16610f2d5760405162461bcd60e51b815260040161046390611a15565b6065805460ff191690557f5db9ee0a495bf2e6ff9c91a7834c1ba4fdd244a5e8aa4e537bd38aeae4b073aa610f60610def565b604051610f6d9190611862565b60405180910390a1565b610fa07e9ab23a1010d07a0450a1fbea1d84169b57d2c2273b54bff0f20c3e90199b5d33610703565b6106135760405162461bcd60e51b815260040161046390611bc3565b60655460ff1615610fdf5760405162461bcd60e51b815260040161046390611b1b565b6065805460ff191660011790557f62e78cea01bee320cd4e420270b5ea74000d11b0c9f74754ebdbfc544b05a258610f60610def565b60006106fa838361126f565b60006106fa836001600160a01b0384166112b4565b303b1590565b600054610100900460ff16806110555750611055611036565b80611063575060005460ff16155b61107f5760405162461bcd60e51b815260040161046390611b75565b600054610100900460ff161580156110aa576000805460ff1961ff0019909116610100171660011790555b6110b26112cc565b6110ba6112cc565b80156110cc576000805461ff00191690555b50565b600054610100900460ff16806110e857506110e8611036565b806110f6575060005460ff16155b6111125760405162461bcd60e51b815260040161046390611b75565b600054610100900460ff1615801561113d576000805460ff1961ff0019909116610100171660011790555b6065805460ff1916905580156110cc576000805461ff001916905550565b60006106fd8261134d565b600081815b85518110156111f857600086828151811061118257fe5b602002602001015190508083116111c35782816040516020016111a69291906117ce565b6040516020818303038152906040528051906020012092506111ef565b80836040516020016111d69291906117ce565b6040516020818303038152906040528051906020012092505b5060010161116b565b509092149392505050565b60006106fa83836040518060400160405280601e81526020017f536166654d6174683a207375627472616374696f6e206f766572666c6f770000815250611351565b60006106fa836001600160a01b03841661137d565b60006106fa836001600160a01b0384166113c7565b815460009082106112925760405162461bcd60e51b815260040161046390611984565b8260000182815481106112a157fe5b9060005260206000200154905092915050565b60009081526001919091016020526040902054151590565b600054610100900460ff16806112e557506112e5611036565b806112f3575060005460ff16155b61130f5760405162461bcd60e51b815260040161046390611b75565b600054610100900460ff161580156110ba576000805460ff1961ff00199091166101001716600117905580156110cc576000805461ff001916905550565b5490565b600081848411156113755760405162461bcd60e51b81526004016104639190611931565b505050900390565b600061138983836112b4565b6113bf575081546001818101845560008481526020808220909301849055845484825282860190935260409020919091556106fd565b5060006106fd565b6000818152600183016020526040812054801561148357835460001980830191908101906000908790839081106113fa57fe5b906000526020600020015490508087600001848154811061141757fe5b60009182526020808320909101929092558281526001898101909252604090209084019055865487908061144757fe5b600190038181906000526020600020016000905590558660010160008781526020019081526020016000206000905560019450505050506106fd565b60009150506106fd565b60408051608081018252600080825260208201819052918101829052606081019190915290565b80356001600160a01b03811681146106fd57600080fd5b60008083601f8401126114dc578182fd5b50813567ffffffffffffffff8111156114f3578182fd5b602083019150836020808302850101111561080657600080fd5b60006020828403121561151e578081fd5b6106fa83836114b4565b6000806040838503121561153a578081fd5b61154484846114b4565b915061155384602085016114b4565b90509250929050565b600080600060608486031215611570578081fd5b61157a85856114b4565b925061158985602086016114b4565b915061159885604086016114b4565b90509250925092565b600080604083850312156115b3578182fd5b6115bd84846114b4565b915060208084013567ffffffffffffffff8111156115d9578283fd5b8401601f810186136115e9578283fd5b80356115fc6115f782611da0565b611d79565b81815283810190838501858402850186018a1015611618578687fd5b8694505b838510156116425761162e8a826114b4565b83526001949094019391850191850161161c565b5080955050505050509250929050565b60008060008060008060008060a0898b03121561166d578384fd5b883567ffffffffffffffff80821115611684578586fd5b6116908c838d016114cb565b909a50985060208b01359150808211156116a8578586fd5b6116b48c838d016114cb565b909850965060408b0135955060608b0135945060808b01359150808211156116da578384fd5b506116e78b828c016114cb565b999c989b5096995094979396929594505050565b60006020828403121561170c578081fd5b815180151581146106fa578182fd5b60006020828403121561172c578081fd5b5035919050565b60008060408385031215611745578182fd5b8235915060208301356001600160a01b0381168114611762578182fd5b809150509250929050565b600080600060608486031215611781578283fd5b505081359360208301359350604090920135919050565b600080604083850312156117aa578182fd5b50508035926020909101359150565b815260200190565b6001600160a01b03169052565b918252602082015260400190565b600088825260206bffffffffffffffffffffffff198960601b16818401528760348401526054830187835b88811015611835578184016001600160a01b0361182482856114b4565b168452928401929150600101611807565b50506001600160fb1b0385111561184a578283fd5b90840290818682370190815298975050505050505050565b6001600160a01b0391909116815260200190565b6001600160a01b03929092168252602082015260400190565b604080825283519082018190526000906020906060840190828701845b828110156118cf576118bf8483516117c1565b92840192908401906001016118ac565b505050838103828501528085516118e68184611928565b91508387019250845b81811015611910576119028385516117b9565b9385019392506001016118ef565b5090979650505050505050565b901515815260200190565b90815260200190565b6000602080835283518082850152825b8181101561195d57858101830151858201604001528201611941565b8181111561196e5783604083870101525b50601f01601f1916929092016040019392505050565b60208082526022908201527f456e756d657261626c655365743a20696e646578206f7574206f6620626f756e604082015261647360f01b606082015260800190565b6020808252602f908201527f416363657373436f6e74726f6c3a2073656e646572206d75737420626520616e60408201526e0818591b5a5b881d1bc819dc985b9d608a1b606082015260800190565b60208082526014908201527314185d5cd8589b194e881b9bdd081c185d5cd95960621b604082015260600190565b6020808252600f908201526e151c985b9cd9995c8819985a5b1959608a1b604082015260600190565b6020808252601b908201527f536166654d6174683a206164646974696f6e206f766572666c6f770000000000604082015260600190565b6020808252600e908201526d125b98dbdc9c9958dd081c9bdbdd60921b604082015260600190565b60208082526030908201527f416363657373436f6e74726f6c3a2073656e646572206d75737420626520616e60408201526f2061646d696e20746f207265766f6b6560801b606082015260800190565b60208082526010908201526f14185d5cd8589b194e881c185d5cd95960821b604082015260600190565b602080825260169082015275092dcc6dee4e4cac6e840c6dedce8cadce840d0c2e6d60531b604082015260600190565b6020808252602e908201527f496e697469616c697a61626c653a20636f6e747261637420697320616c72656160408201526d191e481a5b9a5d1a585b1a5e995960921b606082015260800190565b6020808252600f908201526e37b7363ca937b7ba2ab83230ba32b960891b604082015260600190565b6020808252600d908201526c496e76616c6964206379636c6560981b604082015260600190565b60208082526017908201527f436c61696d656420616d6f756e74206d69736d61746368000000000000000000604082015260600190565b6020808252600f908201526e45786365737369766520636c61696d60881b604082015260600190565b6020808252600c908201526b37b7363ca3bab0b93234b0b760a11b604082015260600190565b6020808252600d908201526c24b73b30b634b210383937b7b360991b604082015260600190565b6020808252600f908201526e496e636f7272656374206379636c6560881b604082015260600190565b6020808252602f908201527f416363657373436f6e74726f6c3a2063616e206f6e6c792072656e6f756e636560408201526e103937b632b9903337b91039b2b63360891b606082015260800190565b8151815260208083015190820152604080830151908201526060918201519181019190915260800190565b9283526020830191909152604082015260600190565b60405181810167ffffffffffffffff81118282101715611d9857600080fd5b604052919050565b600067ffffffffffffffff821115611db6578081fd5b506020908102019056fea2646970667358221220f77557becf618c992b252e27a8b433c066853124736ede03d80413bafcae132a64736f6c634300060c0033",
	"bytecodeSha1": "f1a306424a77ddfb81455df7858e71adf0d146fa",
	"compiler": {
		"evm_version": "istanbul",
		"optimizer": {
			"enabled": true,
			"runs": 200
		},
		"version": "0.6.12"
	},
	"contractName": "BadgerTree",
	"language": "Solidity",
	"natspec": {
		"kind": "dev",
		"methods": {
			"approveRoot(bytes32,bytes32,uint256)": {
				"notice": "Approve the current pending root and content hash"
			},
			"claim(address[],uint256[],uint256,uint256,bytes32[])": {
				"notice": "Claim accumulated rewards for a set of tokens at a given cycle number"
			},
			"getRoleAdmin(bytes32)": {
				"details": "Returns the admin role that controls `role`. See {grantRole} and {revokeRole}. To change a role's admin, use {_setRoleAdmin}."
			},
			"getRoleMember(bytes32,uint256)": {
				"details": "Returns one of the accounts that have `role`. `index` must be a value between 0 and {getRoleMemberCount}, non-inclusive. Role bearers are not sorted in any particular way, and their ordering may change at any point. WARNING: When using {getRoleMember} and {getRoleMemberCount}, make sure you perform all queries on the same block. See the following https://forum.openzeppelin.com/t/iterating-over-elements-on-enumerableset-in-openzeppelin-contracts/2296[forum post] for more information."
			},
			"getRoleMemberCount(bytes32)": {
				"details": "Returns the number of accounts that have `role`. Can be used together with {getRoleMember} to enumerate all bearers of a role."
			},
			"grantRole(bytes32,address)": {
				"details": "Grants `role` to `account`. If `account` had not been already granted `role`, emits a {RoleGranted} event. Requirements: - the caller must have ``role``'s admin role."
			},
			"hasRole(bytes32,address)": {
				"details": "Returns `true` if `account` has been granted `role`."
			},
			"pause()": {
				"notice": "Pause publishing of new roots"
			},
			"paused()": {
				"details": "Returns true if the contract is paused, and false otherwise."
			},
			"proposeRoot(bytes32,bytes32,uint256)": {
				"notice": "Propose a new root and content hash, which will be stored as pending until approved"
			},
			"renounceRole(bytes32,address)": {
				"details": "Revokes `role` from the calling account. Roles are often managed via {grantRole} and {revokeRole}: this function's purpose is to provide a mechanism for accounts to lose their privileges if they are compromised (such as when a trusted device is misplaced). If the calling account had been granted `role`, emits a {RoleRevoked} event. Requirements: - the caller must be `account`."
			},
			"revokeRole(bytes32,address)": {
				"details": "Revokes `role` from `account`. If `account` had been granted `role`, emits a {RoleRevoked} event. Requirements: - the caller must have ``role``'s admin role."
			},
			"unpause()": {
				"notice": "Unpause publishing of new roots"
			}
		},
		"version": 1
	},
	"opcodes": "PUSH1 0x80 PUSH1 0x40 MSTORE CALLVALUE DUP1 ISZERO PUSH2 0x10 JUMPI PUSH1 0x0 DUP1 REVERT JUMPDEST POP PUSH1 0x4 CALLDATASIZE LT PUSH2 0x1FB JUMPI PUSH1 0x0 CALLDATALOAD PUSH1 0xE0 SHR DUP1 PUSH4 0x9010D07C GT PUSH2 0x11A JUMPI DUP1 PUSH4 0xB20CD555 GT PUSH2 0xAD JUMPI DUP1 PUSH4 0xD547741F GT PUSH2 0x7C JUMPI DUP1 PUSH4 0xD547741F EQ PUSH2 0x3A6 JUMPI DUP1 PUSH4 0xD9AB2C5C EQ PUSH2 0x3B9 JUMPI DUP1 PUSH4 0xEF5D9AE8 EQ PUSH2 0x3C1 JUMPI DUP1 PUSH4 0xF6162B01 EQ PUSH2 0x3D4 JUMPI DUP1 PUSH4 0xFE0317EF EQ PUSH2 0x3E7 JUMPI PUSH2 0x1FB JUMP JUMPDEST DUP1 PUSH4 0xB20CD555 EQ PUSH2 0x370 JUMPI DUP1 PUSH4 0xBAB2F552 EQ PUSH2 0x378 JUMPI DUP1 PUSH4 0xC0C53B8B EQ PUSH2 0x380 JUMPI DUP1 PUSH4 0xCA15C873 EQ PUSH2 0x393 JUMPI PUSH2 0x1FB JUMP JUMPDEST DUP1 PUSH4 0x97C9C12F GT PUSH2 0xE9 JUMPI DUP1 PUSH4 0x97C9C12F EQ PUSH2 0x337 JUMPI DUP1 PUSH4 0xA155285F EQ PUSH2 0x33F JUMPI DUP1 PUSH4 0xA217FDDF EQ PUSH2 0x347 JUMPI DUP1 PUSH4 0xA2FCFD68 EQ PUSH2 0x34F JUMPI PUSH2 0x1FB JUMP JUMPDEST DUP1 PUSH4 0x9010D07C EQ PUSH2 0x2F4 JUMPI DUP1 PUSH4 0x91D14854 EQ PUSH2 0x314 JUMPI DUP1 PUSH4 0x9637F475 EQ PUSH2 0x327 JUMPI DUP1 PUSH4 0x96F7CD57 EQ PUSH2 0x32F JUMPI PUSH2 0x1FB JUMP JUMPDEST DUP1 PUSH4 0x2F37A774 GT PUSH2 0x192 JUMPI DUP1 PUSH4 0x66739D3B GT PUSH2 0x161 JUMPI DUP1 PUSH4 0x66739D3B EQ PUSH2 0x2C9 JUMPI DUP1 PUSH4 0x8270D87B EQ PUSH2 0x2DC JUMPI DUP1 PUSH4 0x8456CB59 EQ PUSH2 0x2E4 JUMPI DUP1 PUSH4 0x8CBC762E EQ PUSH2 0x2EC JUMPI PUSH2 0x1FB JUMP JUMPDEST DUP1 PUSH4 0x2F37A774 EQ PUSH2 0x291 JUMPI DUP1 PUSH4 0x36568ABE EQ PUSH2 0x2A6 JUMPI DUP1 PUSH4 0x3F4BA83A EQ PUSH2 0x2B9 JUMPI DUP1 PUSH4 0x5C975ABB EQ PUSH2 0x2C1 JUMPI PUSH2 0x1FB JUMP JUMPDEST DUP1 PUSH4 0x248A9CA3 GT PUSH2 0x1CE JUMPI DUP1 PUSH4 0x248A9CA3 EQ PUSH2 0x25B JUMPI DUP1 PUSH4 0x24EA54F4 EQ PUSH2 0x26E JUMPI DUP1 PUSH4 0x2EB4A7AB EQ PUSH2 0x276 JUMPI DUP1 PUSH4 0x2F2FF15D EQ PUSH2 0x27E JUMPI PUSH2 0x1FB JUMP JUMPDEST DUP1 PUSH4 0xC9CBF0E EQ PUSH2 0x200 JUMPI DUP1 PUSH4 0xD4202CE EQ PUSH2 0x229 JUMPI DUP1 PUSH4 0x116037CC EQ PUSH2 0x23E JUMPI DUP1 PUSH4 0x1FE065AD EQ PUSH2 0x253 JUMPI JUMPDEST PUSH1 0x0 DUP1 REVERT JUMPDEST PUSH2 0x213 PUSH2 0x20E CALLDATASIZE PUSH1 0x4 PUSH2 0x1528 JUMP JUMPDEST PUSH2 0x3EF JUMP JUMPDEST PUSH1 0x40 MLOAD PUSH2 0x220 SWAP2 SWAP1 PUSH2 0x1928 JUMP JUMPDEST PUSH1 0x40 MLOAD DUP1 SWAP2 SUB SWAP1 RETURN JUMPDEST PUSH2 0x231 PUSH2 0x40C JUMP JUMPDEST PUSH1 0x40 MLOAD PUSH2 0x220 SWAP2 SWAP1 PUSH2 0x1D38 JUMP JUMPDEST PUSH2 0x251 PUSH2 0x24C CALLDATASIZE PUSH1 0x4 PUSH2 0x176D JUMP JUMPDEST PUSH2 0x442 JUMP JUMPDEST STOP JUMPDEST PUSH2 0x213 PUSH2 0x51A JUMP JUMPDEST PUSH2 0x213 PUSH2 0x269 CALLDATASIZE PUSH1 0x4 PUSH2 0x171B JUMP JUMPDEST PUSH2 0x520 JUMP JUMPDEST PUSH2 0x213 PUSH2 0x535 JUMP JUMPDEST PUSH2 0x213 PUSH2 0x559 JUMP JUMPDEST PUSH2 0x251 PUSH2 0x28C CALLDATASIZE PUSH1 0x4 PUSH2 0x1733 JUMP JUMPDEST PUSH2 0x55F JUMP JUMPDEST PUSH2 0x299 PUSH2 0x5A7 JUMP JUMPDEST PUSH1 0x40 MLOAD PUSH2 0x220 SWAP2 SWAP1 PUSH2 0x191D JUMP JUMPDEST PUSH2 0x251 PUSH2 0x2B4 CALLDATASIZE PUSH1 0x4 PUSH2 0x1733 JUMP JUMPDEST PUSH2 0x5C1 JUMP JUMPDEST PUSH2 0x251 PUSH2 0x603 JUMP JUMPDEST PUSH2 0x299 PUSH2 0x615 JUMP JUMPDEST PUSH2 0x251 PUSH2 0x2D7 CALLDATASIZE PUSH1 0x4 PUSH2 0x176D JUMP JUMPDEST PUSH2 0x61E JUMP JUMPDEST PUSH2 0x213 PUSH2 0x6C6 JUMP JUMPDEST PUSH2 0x251 PUSH2 0x6CC JUMP JUMPDEST PUSH2 0x213 PUSH2 0x6DC JUMP JUMPDEST PUSH2 0x307 PUSH2 0x302 CALLDATASIZE PUSH1 0x4 PUSH2 0x1798 JUMP JUMPDEST PUSH2 0x6E2 JUMP JUMPDEST PUSH1 0x40 MLOAD PUSH2 0x220 SWAP2 SWAP1 PUSH2 0x1862 JUMP JUMPDEST PUSH2 0x299 PUSH2 0x322 CALLDATASIZE PUSH1 0x4 PUSH2 0x1733 JUMP JUMPDEST PUSH2 0x703 JUMP JUMPDEST PUSH2 0x213 PUSH2 0x71B JUMP JUMPDEST PUSH2 0x213 PUSH2 0x721 JUMP JUMPDEST PUSH2 0x213 PUSH2 0x727 JUMP JUMPDEST PUSH2 0x213 PUSH2 0x72D JUMP JUMPDEST PUSH2 0x213 PUSH2 0x733 JUMP JUMPDEST PUSH2 0x362 PUSH2 0x35D CALLDATASIZE PUSH1 0x4 PUSH2 0x15A1 JUMP JUMPDEST PUSH2 0x738 JUMP JUMPDEST PUSH1 0x40 MLOAD PUSH2 0x220 SWAP3 SWAP2 SWAP1 PUSH2 0x188F JUMP JUMPDEST PUSH2 0x231 PUSH2 0x80D JUMP JUMPDEST PUSH2 0x213 PUSH2 0x843 JUMP JUMPDEST PUSH2 0x251 PUSH2 0x38E CALLDATASIZE PUSH1 0x4 PUSH2 0x155C JUMP JUMPDEST PUSH2 0x849 JUMP JUMPDEST PUSH2 0x213 PUSH2 0x3A1 CALLDATASIZE PUSH1 0x4 PUSH2 0x171B JUMP JUMPDEST PUSH2 0x93D JUMP JUMPDEST PUSH2 0x251 PUSH2 0x3B4 CALLDATASIZE PUSH1 0x4 PUSH2 0x1733 JUMP JUMPDEST PUSH2 0x954 JUMP JUMPDEST PUSH2 0x213 PUSH2 0x98E JUMP JUMPDEST PUSH2 0x213 PUSH2 0x3CF CALLDATASIZE PUSH1 0x4 PUSH2 0x150D JUMP JUMPDEST PUSH2 0x9B1 JUMP JUMPDEST PUSH2 0x251 PUSH2 0x3E2 CALLDATASIZE PUSH1 0x4 PUSH2 0x1652 JUMP JUMPDEST PUSH2 0x9C3 JUMP JUMPDEST PUSH2 0x213 PUSH2 0xDC4 JUMP JUMPDEST PUSH1 0xA1 PUSH1 0x20 SWAP1 DUP2 MSTORE PUSH1 0x0 SWAP3 DUP4 MSTORE PUSH1 0x40 DUP1 DUP5 KECCAK256 SWAP1 SWAP2 MSTORE SWAP1 DUP3 MSTORE SWAP1 KECCAK256 SLOAD DUP2 JUMP JUMPDEST PUSH2 0x414 PUSH2 0x148D JUMP JUMPDEST PUSH1 0x40 MLOAD DUP1 PUSH1 0x80 ADD PUSH1 0x40 MSTORE DUP1 PUSH1 0x9D SLOAD DUP2 MSTORE PUSH1 0x20 ADD PUSH1 0x9E SLOAD DUP2 MSTORE PUSH1 0x20 ADD PUSH1 0x9F SLOAD DUP2 MSTORE PUSH1 0x20 ADD PUSH1 0xA0 SLOAD DUP2 MSTORE POP SWAP1 POP SWAP1 JUMP JUMPDEST PUSH1 0x9D SLOAD DUP4 EQ PUSH2 0x46C JUMPI PUSH1 0x40 MLOAD PUSH3 0x461BCD PUSH1 0xE5 SHL DUP2 MSTORE PUSH1 0x4 ADD PUSH2 0x463 SWAP1 PUSH2 0x1AA3 JUMP JUMPDEST PUSH1 0x40 MLOAD DUP1 SWAP2 SUB SWAP1 REVERT JUMPDEST PUSH1 0x9E SLOAD DUP3 EQ PUSH2 0x48D JUMPI PUSH1 0x40 MLOAD PUSH3 0x461BCD PUSH1 0xE5 SHL DUP2 MSTORE PUSH1 0x4 ADD PUSH2 0x463 SWAP1 PUSH2 0x1B45 JUMP JUMPDEST PUSH1 0x9C SLOAD DUP2 EQ PUSH2 0x4AE JUMPI PUSH1 0x40 MLOAD PUSH3 0x461BCD PUSH1 0xE5 SHL DUP2 MSTORE PUSH1 0x4 ADD PUSH2 0x463 SWAP1 PUSH2 0x1CC0 JUMP JUMPDEST PUSH1 0x97 SLOAD PUSH2 0x4BC SWAP1 PUSH1 0x1 PUSH2 0xDCA JUMP JUMPDEST PUSH1 0x97 DUP2 SWAP1 SSTORE PUSH1 0x98 DUP5 SWAP1 SSTORE PUSH1 0x99 DUP4 SWAP1 SSTORE TIMESTAMP PUSH1 0x9A DUP2 SWAP1 SSTORE NUMBER PUSH1 0x9B DUP2 SWAP1 SSTORE PUSH1 0x40 MLOAD DUP6 SWAP4 DUP8 SWAP4 SWAP1 SWAP3 PUSH32 0x3934C24F0815369800391139AD44A2B4AC75E07CBBF74BDAE8C3D9AB0CACA15 SWAP3 PUSH2 0x50D SWAP3 SWAP2 SWAP1 PUSH2 0x17CE JUMP JUMPDEST PUSH1 0x40 MLOAD DUP1 SWAP2 SUB SWAP1 LOG4 POP POP POP JUMP JUMPDEST PUSH1 0x99 SLOAD DUP2 JUMP JUMPDEST PUSH1 0x0 SWAP1 DUP2 MSTORE PUSH1 0x33 PUSH1 0x20 MSTORE PUSH1 0x40 SWAP1 KECCAK256 PUSH1 0x2 ADD SLOAD SWAP1 JUMP JUMPDEST PUSH32 0x55435DD261A4B9B3364963F7738A7A662AD9C84396D64BE3365284BB7F0A5041 DUP2 JUMP JUMPDEST PUSH1 0x98 SLOAD DUP2 JUMP JUMPDEST PUSH1 0x0 DUP3 DUP2 MSTORE PUSH1 0x33 PUSH1 0x20 MSTORE PUSH1 0x40 SWAP1 KECCAK256 PUSH1 0x2 ADD SLOAD PUSH2 0x57D SWAP1 PUSH2 0x322 PUSH2 0xDEF JUMP JUMPDEST PUSH2 0x599 JUMPI PUSH1 0x40 MLOAD PUSH3 0x461BCD PUSH1 0xE5 SHL DUP2 MSTORE PUSH1 0x4 ADD PUSH2 0x463 SWAP1 PUSH2 0x19C6 JUMP JUMPDEST PUSH2 0x5A3 DUP3 DUP3 PUSH2 0xDF3 JUMP JUMPDEST POP POP JUMP JUMPDEST PUSH1 0x97 SLOAD PUSH1 0x0 SWAP1 PUSH2 0x5B8 SWAP1 PUSH1 0x1 PUSH2 0xDCA JUMP JUMPDEST PUSH1 0x9C SLOAD EQ SWAP1 POP SWAP1 JUMP JUMPDEST PUSH2 0x5C9 PUSH2 0xDEF JUMP JUMPDEST PUSH1 0x1 PUSH1 0x1 PUSH1 0xA0 SHL SUB AND DUP2 PUSH1 0x1 PUSH1 0x1 PUSH1 0xA0 SHL SUB AND EQ PUSH2 0x5F9 JUMPI PUSH1 0x40 MLOAD PUSH3 0x461BCD PUSH1 0xE5 SHL DUP2 MSTORE PUSH1 0x4 ADD PUSH2 0x463 SWAP1 PUSH2 0x1CE9 JUMP JUMPDEST PUSH2 0x5A3 DUP3 DUP3 PUSH2 0xE5C JUMP JUMPDEST PUSH2 0x60B PUSH2 0xEC5 JUMP JUMPDEST PUSH2 0x613 PUSH2 0xF0B JUMP JUMPDEST JUMP JUMPDEST PUSH1 0x65 SLOAD PUSH1 0xFF AND SWAP1 JUMP JUMPDEST PUSH1 0x65 SLOAD PUSH1 0xFF AND ISZERO PUSH2 0x641 JUMPI PUSH1 0x40 MLOAD PUSH3 0x461BCD PUSH1 0xE5 SHL DUP2 MSTORE PUSH1 0x4 ADD PUSH2 0x463 SWAP1 PUSH2 0x1B1B JUMP JUMPDEST PUSH2 0x649 PUSH2 0xF77 JUMP JUMPDEST PUSH1 0x97 SLOAD PUSH2 0x657 SWAP1 PUSH1 0x1 PUSH2 0xDCA JUMP JUMPDEST DUP2 EQ PUSH2 0x675 JUMPI PUSH1 0x40 MLOAD PUSH3 0x461BCD PUSH1 0xE5 SHL DUP2 MSTORE PUSH1 0x4 ADD PUSH2 0x463 SWAP1 PUSH2 0x1CC0 JUMP JUMPDEST PUSH1 0x9C DUP2 SWAP1 SSTORE PUSH1 0x9D DUP4 SWAP1 SSTORE PUSH1 0x9E DUP3 SWAP1 SSTORE TIMESTAMP PUSH1 0x9F DUP2 SWAP1 SSTORE NUMBER PUSH1 0xA0 DUP2 SWAP1 SSTORE PUSH1 0x40 MLOAD DUP5 SWAP3 DUP7 SWAP3 DUP6 SWAP3 PUSH32 0xDB07D3ACE4EB8CB6D13437EEC22AEE8FCEB4200C6B31945A3FCD75758D9BD34B SWAP3 PUSH2 0x50D SWAP3 SWAP1 SWAP2 PUSH2 0x17CE JUMP JUMPDEST PUSH1 0x9B SLOAD DUP2 JUMP JUMPDEST PUSH2 0x6D4 PUSH2 0xEC5 JUMP JUMPDEST PUSH2 0x613 PUSH2 0xFBC JUMP JUMPDEST PUSH1 0x9F SLOAD DUP2 JUMP JUMPDEST PUSH1 0x0 DUP3 DUP2 MSTORE PUSH1 0x33 PUSH1 0x20 MSTORE PUSH1 0x40 DUP2 KECCAK256 PUSH2 0x6FA SWAP1 DUP4 PUSH2 0x1015 JUMP JUMPDEST SWAP1 POP JUMPDEST SWAP3 SWAP2 POP POP JUMP JUMPDEST PUSH1 0x0 DUP3 DUP2 MSTORE PUSH1 0x33 PUSH1 0x20 MSTORE PUSH1 0x40 DUP2 KECCAK256 PUSH2 0x6FA SWAP1 DUP4 PUSH2 0x1021 JUMP JUMPDEST PUSH1 0x9D SLOAD DUP2 JUMP JUMPDEST PUSH1 0x9A SLOAD DUP2 JUMP JUMPDEST PUSH1 0xA0 SLOAD DUP2 JUMP JUMPDEST PUSH1 0x9C SLOAD DUP2 JUMP JUMPDEST PUSH1 0x0 DUP2 JUMP JUMPDEST PUSH1 0x60 DUP1 PUSH1 0x60 DUP4 MLOAD PUSH8 0xFFFFFFFFFFFFFFFF DUP2 GT DUP1 ISZERO PUSH2 0x755 JUMPI PUSH1 0x0 DUP1 REVERT JUMPDEST POP PUSH1 0x40 MLOAD SWAP1 DUP1 DUP3 MSTORE DUP1 PUSH1 0x20 MUL PUSH1 0x20 ADD DUP3 ADD PUSH1 0x40 MSTORE DUP1 ISZERO PUSH2 0x77F JUMPI DUP2 PUSH1 0x20 ADD PUSH1 0x20 DUP3 MUL DUP1 CALLDATASIZE DUP4 CALLDATACOPY ADD SWAP1 POP JUMPDEST POP SWAP1 POP PUSH1 0x0 JUMPDEST DUP5 MLOAD DUP2 LT ISZERO PUSH2 0x7FF JUMPI PUSH1 0x1 PUSH1 0x1 PUSH1 0xA0 SHL SUB DUP7 AND PUSH1 0x0 SWAP1 DUP2 MSTORE PUSH1 0xA1 PUSH1 0x20 MSTORE PUSH1 0x40 DUP2 KECCAK256 DUP7 MLOAD SWAP1 SWAP2 SWAP1 DUP8 SWAP1 DUP5 SWAP1 DUP2 LT PUSH2 0x7B7 JUMPI INVALID JUMPDEST PUSH1 0x20 MUL PUSH1 0x20 ADD ADD MLOAD PUSH1 0x1 PUSH1 0x1 PUSH1 0xA0 SHL SUB AND PUSH1 0x1 PUSH1 0x1 PUSH1 0xA0 SHL SUB AND DUP2 MSTORE PUSH1 0x20 ADD SWAP1 DUP2 MSTORE PUSH1 0x20 ADD PUSH1 0x0 KECCAK256 SLOAD DUP3 DUP3 DUP2 MLOAD DUP2 LT PUSH2 0x7EC JUMPI INVALID JUMPDEST PUSH1 0x20 SWAP1 DUP2 MUL SWAP2 SWAP1 SWAP2 ADD ADD MSTORE PUSH1 0x1 ADD PUSH2 0x785 JUMP JUMPDEST POP DUP4 SWAP3 POP SWAP1 POP JUMPDEST SWAP3 POP SWAP3 SWAP1 POP JUMP JUMPDEST PUSH2 0x815 PUSH2 0x148D JUMP JUMPDEST PUSH1 0x40 MLOAD DUP1 PUSH1 0x80 ADD PUSH1 0x40 MSTORE DUP1 PUSH1 0x98 SLOAD DUP2 MSTORE PUSH1 0x20 ADD PUSH1 0x99 SLOAD DUP2 MSTORE PUSH1 0x20 ADD PUSH1 0x9A SLOAD DUP2 MSTORE PUSH1 0x20 ADD PUSH1 0xA0 SLOAD DUP2 MSTORE POP SWAP1 POP SWAP1 JUMP JUMPDEST PUSH1 0x97 SLOAD DUP2 JUMP JUMPDEST PUSH1 0x0 SLOAD PUSH2 0x100 SWAP1 DIV PUSH1 0xFF AND DUP1 PUSH2 0x862 JUMPI POP PUSH2 0x862 PUSH2 0x1036 JUMP JUMPDEST DUP1 PUSH2 0x870 JUMPI POP PUSH1 0x0 SLOAD PUSH1 0xFF AND ISZERO JUMPDEST PUSH2 0x88C JUMPI PUSH1 0x40 MLOAD PUSH3 0x461BCD PUSH1 0xE5 SHL DUP2 MSTORE PUSH1 0x4 ADD PUSH2 0x463 SWAP1 PUSH2 0x1B75 JUMP JUMPDEST PUSH1 0x0 SLOAD PUSH2 0x100 SWAP1 DIV PUSH1 0xFF AND ISZERO DUP1 ISZERO PUSH2 0x8B7 JUMPI PUSH1 0x0 DUP1 SLOAD PUSH1 0xFF NOT PUSH2 0xFF00 NOT SWAP1 SWAP2 AND PUSH2 0x100 OR AND PUSH1 0x1 OR SWAP1 SSTORE JUMPDEST PUSH2 0x8BF PUSH2 0x103C JUMP JUMPDEST PUSH2 0x8C7 PUSH2 0x10CF JUMP JUMPDEST PUSH2 0x8D2 PUSH1 0x0 DUP6 PUSH2 0x599 JUMP JUMPDEST PUSH2 0x8FB PUSH31 0x9AB23A1010D07A0450A1FBEA1D84169B57D2C2273B54BFF0F20C3E90199B5D DUP5 PUSH2 0x599 JUMP JUMPDEST PUSH2 0x925 PUSH32 0x55435DD261A4B9B3364963F7738A7A662AD9C84396D64BE3365284BB7F0A5041 DUP4 PUSH2 0x599 JUMP JUMPDEST DUP1 ISZERO PUSH2 0x937 JUMPI PUSH1 0x0 DUP1 SLOAD PUSH2 0xFF00 NOT AND SWAP1 SSTORE JUMPDEST POP POP POP POP JUMP JUMPDEST PUSH1 0x0 DUP2 DUP2 MSTORE PUSH1 0x33 PUSH1 0x20 MSTORE PUSH1 0x40 DUP2 KECCAK256 PUSH2 0x6FD SWAP1 PUSH2 0x115B JUMP JUMPDEST PUSH1 0x0 DUP3 DUP2 MSTORE PUSH1 0x33 PUSH1 0x20 MSTORE PUSH1 0x40 SWAP1 KECCAK256 PUSH1 0x2 ADD SLOAD PUSH2 0x972 SWAP1 PUSH2 0x322 PUSH2 0xDEF JUMP JUMPDEST PUSH2 0x5F9 JUMPI PUSH1 0x40 MLOAD PUSH3 0x461BCD PUSH1 0xE5 SHL DUP2 MSTORE PUSH1 0x4 ADD PUSH2 0x463 SWAP1 PUSH2 0x1ACB JUMP JUMPDEST PUSH31 0x9AB23A1010D07A0450A1FBEA1D84169B57D2C2273B54BFF0F20C3E90199B5D DUP2 JUMP JUMPDEST PUSH1 0xA2 PUSH1 0x20 MSTORE PUSH1 0x0 SWAP1 DUP2 MSTORE PUSH1 0x40 SWAP1 KECCAK256 SLOAD DUP2 JUMP JUMPDEST PUSH1 0x65 SLOAD PUSH1 0xFF AND ISZERO PUSH2 0x9E6 JUMPI PUSH1 0x40 MLOAD PUSH3 0x461BCD PUSH1 0xE5 SHL DUP2 MSTORE PUSH1 0x4 ADD PUSH2 0x463 SWAP1 PUSH2 0x1B1B JUMP JUMPDEST PUSH1 0x97 SLOAD DUP4 EQ PUSH2 0xA07 JUMPI PUSH1 0x40 MLOAD PUSH3 0x461BCD PUSH1 0xE5 SHL DUP2 MSTORE PUSH1 0x4 ADD PUSH2 0x463 SWAP1 PUSH2 0x1BEC JUMP JUMPDEST PUSH1 0x0 DUP5 CALLER DUP6 DUP12 DUP12 DUP12 DUP12 PUSH1 0x40 MLOAD PUSH1 0x20 ADD PUSH2 0xA26 SWAP8 SWAP7 SWAP6 SWAP5 SWAP4 SWAP3 SWAP2 SWAP1 PUSH2 0x17DC JUMP JUMPDEST PUSH1 0x40 MLOAD PUSH1 0x20 DUP2 DUP4 SUB SUB DUP2 MSTORE SWAP1 PUSH1 0x40 MSTORE DUP1 MLOAD SWAP1 PUSH1 0x20 ADD KECCAK256 SWAP1 POP PUSH2 0xA7F DUP4 DUP4 DUP1 DUP1 PUSH1 0x20 MUL PUSH1 0x20 ADD PUSH1 0x40 MLOAD SWAP1 DUP2 ADD PUSH1 0x40 MSTORE DUP1 SWAP4 SWAP3 SWAP2 SWAP1 DUP2 DUP2 MSTORE PUSH1 0x20 ADD DUP4 DUP4 PUSH1 0x20 MUL DUP1 DUP3 DUP5 CALLDATACOPY PUSH1 0x0 SWAP3 ADD SWAP2 SWAP1 SWAP2 MSTORE POP POP PUSH1 0x98 SLOAD SWAP2 POP DUP5 SWAP1 POP PUSH2 0x1166 JUMP JUMPDEST PUSH2 0xA9B JUMPI PUSH1 0x40 MLOAD PUSH3 0x461BCD PUSH1 0xE5 SHL DUP2 MSTORE PUSH1 0x4 ADD PUSH2 0x463 SWAP1 PUSH2 0x1C99 JUMP JUMPDEST PUSH1 0x0 JUMPDEST DUP9 DUP2 LT ISZERO PUSH2 0xDB8 JUMPI CALLER PUSH1 0x0 SWAP1 DUP2 MSTORE PUSH1 0xA1 PUSH1 0x20 MSTORE PUSH1 0x40 DUP2 KECCAK256 PUSH2 0xB1D SWAP1 DUP3 DUP14 DUP14 DUP7 DUP2 DUP2 LT PUSH2 0xAC6 JUMPI INVALID JUMPDEST SWAP1 POP PUSH1 0x20 MUL ADD PUSH1 0x20 DUP2 ADD SWAP1 PUSH2 0xADB SWAP2 SWAP1 PUSH2 0x150D JUMP JUMPDEST PUSH1 0x1 PUSH1 0x1 PUSH1 0xA0 SHL SUB AND PUSH1 0x1 PUSH1 0x1 PUSH1 0xA0 SHL SUB AND DUP2 MSTORE PUSH1 0x20 ADD SWAP1 DUP2 MSTORE PUSH1 0x20 ADD PUSH1 0x0 KECCAK256 SLOAD DUP11 DUP11 DUP6 DUP2 DUP2 LT PUSH2 0xB08 JUMPI INVALID JUMPDEST SWAP1 POP PUSH1 0x20 MUL ADD CALLDATALOAD PUSH2 0x1203 SWAP1 SWAP2 SWAP1 PUSH4 0xFFFFFFFF AND JUMP JUMPDEST SWAP1 POP PUSH1 0x0 DUP2 GT PUSH2 0xB3F JUMPI PUSH1 0x40 MLOAD PUSH3 0x461BCD PUSH1 0xE5 SHL DUP2 MSTORE PUSH1 0x4 ADD PUSH2 0x463 SWAP1 PUSH2 0x1C4A JUMP JUMPDEST CALLER PUSH1 0x0 SWAP1 DUP2 MSTORE PUSH1 0xA1 PUSH1 0x20 MSTORE PUSH1 0x40 DUP2 KECCAK256 PUSH2 0xB96 SWAP2 DUP4 SWAP2 SWAP1 DUP15 DUP15 DUP8 DUP2 DUP2 LT PUSH2 0xB61 JUMPI INVALID JUMPDEST SWAP1 POP PUSH1 0x20 MUL ADD PUSH1 0x20 DUP2 ADD SWAP1 PUSH2 0xB76 SWAP2 SWAP1 PUSH2 0x150D JUMP JUMPDEST PUSH1 0x1 PUSH1 0x1 PUSH1 0xA0 SHL SUB AND DUP2 MSTORE PUSH1 0x20 DUP2 ADD SWAP2 SWAP1 SWAP2 MSTORE PUSH1 0x40 ADD PUSH1 0x0 KECCAK256 SLOAD SWAP1 PUSH2 0xDCA JUMP JUMPDEST CALLER PUSH1 0x0 SWAP1 DUP2 MSTORE PUSH1 0xA1 PUSH1 0x20 MSTORE PUSH1 0x40 DUP2 KECCAK256 SWAP1 DUP14 DUP14 DUP7 DUP2 DUP2 LT PUSH2 0xBB2 JUMPI INVALID JUMPDEST SWAP1 POP PUSH1 0x20 MUL ADD PUSH1 0x20 DUP2 ADD SWAP1 PUSH2 0xBC7 SWAP2 SWAP1 PUSH2 0x150D JUMP JUMPDEST PUSH1 0x1 PUSH1 0x1 PUSH1 0xA0 SHL SUB AND DUP2 MSTORE PUSH1 0x20 DUP2 ADD SWAP2 SWAP1 SWAP2 MSTORE PUSH1 0x40 ADD PUSH1 0x0 KECCAK256 SSTORE DUP9 DUP9 DUP4 DUP2 DUP2 LT PUSH2 0xBED JUMPI INVALID JUMPDEST CALLER PUSH1 0x0 SWAP1 DUP2 MSTORE PUSH1 0xA1 PUSH1 0x20 SWAP1 DUP2 MSTORE PUSH1 0x40 DUP3 KECCAK256 SWAP3 MUL SWAP4 SWAP1 SWAP4 ADD CALLDATALOAD SWAP3 SWAP1 SWAP2 POP DUP14 DUP14 DUP7 DUP2 DUP2 LT PUSH2 0xC15 JUMPI INVALID JUMPDEST SWAP1 POP PUSH1 0x20 MUL ADD PUSH1 0x20 DUP2 ADD SWAP1 PUSH2 0xC2A SWAP2 SWAP1 PUSH2 0x150D JUMP JUMPDEST PUSH1 0x1 PUSH1 0x1 PUSH1 0xA0 SHL SUB AND PUSH1 0x1 PUSH1 0x1 PUSH1 0xA0 SHL SUB AND DUP2 MSTORE PUSH1 0x20 ADD SWAP1 DUP2 MSTORE PUSH1 0x20 ADD PUSH1 0x0 KECCAK256 SLOAD EQ PUSH2 0xC68 JUMPI PUSH1 0x40 MLOAD PUSH3 0x461BCD PUSH1 0xE5 SHL DUP2 MSTORE PUSH1 0x4 ADD PUSH2 0x463 SWAP1 PUSH2 0x1C13 JUMP JUMPDEST DUP11 DUP11 DUP4 DUP2 DUP2 LT PUSH2 0xC74 JUMPI INVALID JUMPDEST SWAP1 POP PUSH1 0x20 MUL ADD PUSH1 0x20 DUP2 ADD SWAP1 PUSH2 0xC89 SWAP2 SWAP1 PUSH2 0x150D JUMP JUMPDEST PUSH1 0x1 PUSH1 0x1 PUSH1 0xA0 SHL SUB AND PUSH4 0xA9059CBB CALLER DUP12 DUP12 DUP7 DUP2 DUP2 LT PUSH2 0xCA4 JUMPI INVALID JUMPDEST SWAP1 POP PUSH1 0x20 MUL ADD CALLDATALOAD PUSH1 0x40 MLOAD DUP4 PUSH4 0xFFFFFFFF AND PUSH1 0xE0 SHL DUP2 MSTORE PUSH1 0x4 ADD PUSH2 0xCC8 SWAP3 SWAP2 SWAP1 PUSH2 0x1876 JUMP JUMPDEST PUSH1 0x20 PUSH1 0x40 MLOAD DUP1 DUP4 SUB DUP2 PUSH1 0x0 DUP8 DUP1 EXTCODESIZE ISZERO DUP1 ISZERO PUSH2 0xCE2 JUMPI PUSH1 0x0 DUP1 REVERT JUMPDEST POP GAS CALL ISZERO DUP1 ISZERO PUSH2 0xCF6 JUMPI RETURNDATASIZE PUSH1 0x0 DUP1 RETURNDATACOPY RETURNDATASIZE PUSH1 0x0 REVERT JUMPDEST POP POP POP POP PUSH1 0x40 MLOAD RETURNDATASIZE PUSH1 0x1F NOT PUSH1 0x1F DUP3 ADD AND DUP3 ADD DUP1 PUSH1 0x40 MSTORE POP DUP2 ADD SWAP1 PUSH2 0xD1A SWAP2 SWAP1 PUSH2 0x16FB JUMP JUMPDEST PUSH2 0xD36 JUMPI PUSH1 0x40 MLOAD PUSH3 0x461BCD PUSH1 0xE5 SHL DUP2 MSTORE PUSH1 0x4 ADD PUSH2 0x463 SWAP1 PUSH2 0x1A43 JUMP JUMPDEST DUP6 DUP12 DUP12 DUP5 DUP2 DUP2 LT PUSH2 0xD43 JUMPI INVALID JUMPDEST SWAP1 POP PUSH1 0x20 MUL ADD PUSH1 0x20 DUP2 ADD SWAP1 PUSH2 0xD58 SWAP2 SWAP1 PUSH2 0x150D JUMP JUMPDEST PUSH1 0x1 PUSH1 0x1 PUSH1 0xA0 SHL SUB AND CALLER PUSH32 0x6F9C9826BE5976F3F82A3490C52A83328CE2EC7BE9E62DCB39C26DA5148D7C76 DUP13 DUP13 DUP8 DUP2 DUP2 LT PUSH2 0xD8F JUMPI INVALID JUMPDEST SWAP1 POP PUSH1 0x20 MUL ADD CALLDATALOAD TIMESTAMP NUMBER PUSH1 0x40 MLOAD PUSH2 0xDA7 SWAP4 SWAP3 SWAP2 SWAP1 PUSH2 0x1D63 JUMP JUMPDEST PUSH1 0x40 MLOAD DUP1 SWAP2 SUB SWAP1 LOG4 POP PUSH1 0x1 ADD PUSH2 0xA9E JUMP JUMPDEST POP POP POP POP POP POP POP POP POP POP JUMP JUMPDEST PUSH1 0x9E SLOAD DUP2 JUMP JUMPDEST PUSH1 0x0 DUP3 DUP3 ADD DUP4 DUP2 LT ISZERO PUSH2 0x6FA JUMPI PUSH1 0x40 MLOAD PUSH3 0x461BCD PUSH1 0xE5 SHL DUP2 MSTORE PUSH1 0x4 ADD PUSH2 0x463 SWAP1 PUSH2 0x1A6C JUMP JUMPDEST CALLER SWAP1 JUMP JUMPDEST PUSH1 0x0 DUP3 DUP2 MSTORE PUSH1 0x33 PUSH1 0x20 MSTORE PUSH1 0x40 SWAP1 KECCAK256 PUSH2 0xE0B SWAP1 DUP3 PUSH2 0x1245 JUMP JUMPDEST ISZERO PUSH2 0x5A3 JUMPI PUSH2 0xE18 PUSH2 0xDEF JUMP JUMPDEST PUSH1 0x1 PUSH1 0x1 PUSH1 0xA0 SHL SUB AND DUP2 PUSH1 0x1 PUSH1 0x1 PUSH1 0xA0 SHL SUB AND DUP4 PUSH32 0x2F8788117E7EFF1D82E926EC794901D17C78024A50270940304540A733656F0D PUSH1 0x40 MLOAD PUSH1 0x40 MLOAD DUP1 SWAP2 SUB SWAP1 LOG4 POP POP JUMP JUMPDEST PUSH1 0x0 DUP3 DUP2 MSTORE PUSH1 0x33 PUSH1 0x20 MSTORE PUSH1 0x40 SWAP1 KECCAK256 PUSH2 0xE74 SWAP1 DUP3 PUSH2 0x125A JUMP JUMPDEST ISZERO PUSH2 0x5A3 JUMPI PUSH2 0xE81 PUSH2 0xDEF JUMP JUMPDEST PUSH1 0x1 PUSH1 0x1 PUSH1 0xA0 SHL SUB AND DUP2 PUSH1 0x1 PUSH1 0x1 PUSH1 0xA0 SHL SUB AND DUP4 PUSH32 0xF6391F5C32D9C69D2A47EA670B442974B53935D1EDC7FD64EB21E047A839171B PUSH1 0x40 MLOAD PUSH1 0x40 MLOAD DUP1 SWAP2 SUB SWAP1 LOG4 POP POP JUMP JUMPDEST PUSH2 0xEEF PUSH32 0x55435DD261A4B9B3364963F7738A7A662AD9C84396D64BE3365284BB7F0A5041 CALLER PUSH2 0x703 JUMP JUMPDEST PUSH2 0x613 JUMPI PUSH1 0x40 MLOAD PUSH3 0x461BCD PUSH1 0xE5 SHL DUP2 MSTORE PUSH1 0x4 ADD PUSH2 0x463 SWAP1 PUSH2 0x1C73 JUMP JUMPDEST PUSH1 0x65 SLOAD PUSH1 0xFF AND PUSH2 0xF2D JUMPI PUSH1 0x40 MLOAD PUSH3 0x461BCD PUSH1 0xE5 SHL DUP2 MSTORE PUSH1 0x4 ADD PUSH2 0x463 SWAP1 PUSH2 0x1A15 JUMP JUMPDEST PUSH1 0x65 DUP1 SLOAD PUSH1 0xFF NOT AND SWAP1 SSTORE PUSH32 0x5DB9EE0A495BF2E6FF9C91A7834C1BA4FDD244A5E8AA4E537BD38AEAE4B073AA PUSH2 0xF60 PUSH2 0xDEF JUMP JUMPDEST PUSH1 0x40 MLOAD PUSH2 0xF6D SWAP2 SWAP1 PUSH2 0x1862 JUMP JUMPDEST PUSH1 0x40 MLOAD DUP1 SWAP2 SUB SWAP1 LOG1 JUMP JUMPDEST PUSH2 0xFA0 PUSH31 0x9AB23A1010D07A0450A1FBEA1D84169B57D2C2273B54BFF0F20C3E90199B5D CALLER PUSH2 0x703 JUMP JUMPDEST PUSH2 0x613 JUMPI PUSH1 0x40 MLOAD PUSH3 0x461BCD PUSH1 0xE5 SHL DUP2 MSTORE PUSH1 0x4 ADD PUSH2 0x463 SWAP1 PUSH2 0x1BC3 JUMP JUMPDEST PUSH1 0x65 SLOAD PUSH1 0xFF AND ISZERO PUSH2 0xFDF JUMPI PUSH1 0x40 MLOAD PUSH3 0x461BCD PUSH1 0xE5 SHL DUP2 MSTORE PUSH1 0x4 ADD PUSH2 0x463 SWAP1 PUSH2 0x1B1B JUMP JUMPDEST PUSH1 0x65 DUP1 SLOAD PUSH1 0xFF NOT AND PUSH1 0x1 OR SWAP1 SSTORE PUSH32 0x62E78CEA01BEE320CD4E420270B5EA74000D11B0C9F74754EBDBFC544B05A258 PUSH2 0xF60 PUSH2 0xDEF JUMP JUMPDEST PUSH1 0x0 PUSH2 0x6FA DUP4 DUP4 PUSH2 0x126F JUMP JUMPDEST PUSH1 0x0 PUSH2 0x6FA DUP4 PUSH1 0x1 PUSH1 0x1 PUSH1 0xA0 SHL SUB DUP5 AND PUSH2 0x12B4 JUMP JUMPDEST ADDRESS EXTCODESIZE ISZERO SWAP1 JUMP JUMPDEST PUSH1 0x0 SLOAD PUSH2 0x100 SWAP1 DIV PUSH1 0xFF AND DUP1 PUSH2 0x1055 JUMPI POP PUSH2 0x1055 PUSH2 0x1036 JUMP JUMPDEST DUP1 PUSH2 0x1063 JUMPI POP PUSH1 0x0 SLOAD PUSH1 0xFF AND ISZERO JUMPDEST PUSH2 0x107F JUMPI PUSH1 0x40 MLOAD PUSH3 0x461BCD PUSH1 0xE5 SHL DUP2 MSTORE PUSH1 0x4 ADD PUSH2 0x463 SWAP1 PUSH2 0x1B75 JUMP JUMPDEST PUSH1 0x0 SLOAD PUSH2 0x100 SWAP1 DIV PUSH1 0xFF AND ISZERO DUP1 ISZERO PUSH2 0x10AA JUMPI PUSH1 0x0 DUP1 SLOAD PUSH1 0xFF NOT PUSH2 0xFF00 NOT SWAP1 SWAP2 AND PUSH2 0x100 OR AND PUSH1 0x1 OR SWAP1 SSTORE JUMPDEST PUSH2 0x10B2 PUSH2 0x12CC JUMP JUMPDEST PUSH2 0x10BA PUSH2 0x12CC JUMP JUMPDEST DUP1 ISZERO PUSH2 0x10CC JUMPI PUSH1 0x0 DUP1 SLOAD PUSH2 0xFF00 NOT AND SWAP1 SSTORE JUMPDEST POP JUMP JUMPDEST PUSH1 0x0 SLOAD PUSH2 0x100 SWAP1 DIV PUSH1 0xFF AND DUP1 PUSH2 0x10E8 JUMPI POP PUSH2 0x10E8 PUSH2 0x1036 JUMP JUMPDEST DUP1 PUSH2 0x10F6 JUMPI POP PUSH1 0x0 SLOAD PUSH1 0xFF AND ISZERO JUMPDEST PUSH2 0x1112 JUMPI PUSH1 0x40 MLOAD PUSH3 0x461BCD PUSH1 0xE5 SHL DUP2 MSTORE PUSH1 0x4 ADD PUSH2 0x463 SWAP1 PUSH2 0x1B75 JUMP JUMPDEST PUSH1 0x0 SLOAD PUSH2 0x100 SWAP1 DIV PUSH1 0xFF AND ISZERO DUP1 ISZERO PUSH2 0x113D JUMPI PUSH1 0x0 DUP1 SLOAD PUSH1 0xFF NOT PUSH2 0xFF00 NOT SWAP1 SWAP2 AND PUSH2 0x100 OR AND PUSH1 0x1 OR SWAP1 SSTORE JUMPDEST PUSH1 0x65 DUP1 SLOAD PUSH1 0xFF NOT AND SWAP1 SSTORE DUP1 ISZERO PUSH2 0x10CC JUMPI PUSH1 0x0 DUP1 SLOAD PUSH2 0xFF00 NOT AND SWAP1 SSTORE POP JUMP JUMPDEST PUSH1 0x0 PUSH2 0x6FD DUP3 PUSH2 0x134D JUMP JUMPDEST PUSH1 0x0 DUP2 DUP2 JUMPDEST DUP6 MLOAD DUP2 LT ISZERO PUSH2 0x11F8 JUMPI PUSH1 0x0 DUP7 DUP3 DUP2 MLOAD DUP2 LT PUSH2 0x1182 JUMPI INVALID JUMPDEST PUSH1 0x20 MUL PUSH1 0x20 ADD ADD MLOAD SWAP1 POP DUP1 DUP4 GT PUSH2 0x11C3 JUMPI DUP3 DUP2 PUSH1 0x40 MLOAD PUSH1 0x20 ADD PUSH2 0x11A6 SWAP3 SWAP2 SWAP1 PUSH2 0x17CE JUMP JUMPDEST PUSH1 0x40 MLOAD PUSH1 0x20 DUP2 DUP4 SUB SUB DUP2 MSTORE SWAP1 PUSH1 0x40 MSTORE DUP1 MLOAD SWAP1 PUSH1 0x20 ADD KECCAK256 SWAP3 POP PUSH2 0x11EF JUMP JUMPDEST DUP1 DUP4 PUSH1 0x40 MLOAD PUSH1 0x20 ADD PUSH2 0x11D6 SWAP3 SWAP2 SWAP1 PUSH2 0x17CE JUMP JUMPDEST PUSH1 0x40 MLOAD PUSH1 0x20 DUP2 DUP4 SUB SUB DUP2 MSTORE SWAP1 PUSH1 0x40 MSTORE DUP1 MLOAD SWAP1 PUSH1 0x20 ADD KECCAK256 SWAP3 POP JUMPDEST POP PUSH1 0x1 ADD PUSH2 0x116B JUMP JUMPDEST POP SWAP1 SWAP3 EQ SWAP4 SWAP3 POP POP POP JUMP JUMPDEST PUSH1 0x0 PUSH2 0x6FA DUP4 DUP4 PUSH1 0x40 MLOAD DUP1 PUSH1 0x40 ADD PUSH1 0x40 MSTORE DUP1 PUSH1 0x1E DUP2 MSTORE PUSH1 0x20 ADD PUSH32 0x536166654D6174683A207375627472616374696F6E206F766572666C6F770000 DUP2 MSTORE POP PUSH2 0x1351 JUMP JUMPDEST PUSH1 0x0 PUSH2 0x6FA DUP4 PUSH1 0x1 PUSH1 0x1 PUSH1 0xA0 SHL SUB DUP5 AND PUSH2 0x137D JUMP JUMPDEST PUSH1 0x0 PUSH2 0x6FA DUP4 PUSH1 0x1 PUSH1 0x1 PUSH1 0xA0 SHL SUB DUP5 AND PUSH2 0x13C7 JUMP JUMPDEST DUP2 SLOAD PUSH1 0x0 SWAP1 DUP3 LT PUSH2 0x1292 JUMPI PUSH1 0x40 MLOAD PUSH3 0x461BCD PUSH1 0xE5 SHL DUP2 MSTORE PUSH1 0x4 ADD PUSH2 0x463 SWAP1 PUSH2 0x1984 JUMP JUMPDEST DUP3 PUSH1 0x0 ADD DUP3 DUP2 SLOAD DUP2 LT PUSH2 0x12A1 JUMPI INVALID JUMPDEST SWAP1 PUSH1 0x0 MSTORE PUSH1 0x20 PUSH1 0x0 KECCAK256 ADD SLOAD SWAP1 POP SWAP3 SWAP2 POP POP JUMP JUMPDEST PUSH1 0x0 SWAP1 DUP2 MSTORE PUSH1 0x1 SWAP2 SWAP1 SWAP2 ADD PUSH1 0x20 MSTORE PUSH1 0x40 SWAP1 KECCAK256 SLOAD ISZERO ISZERO SWAP1 JUMP JUMPDEST PUSH1 0x0 SLOAD PUSH2 0x100 SWAP1 DIV PUSH1 0xFF AND DUP1 PUSH2 0x12E5 JUMPI POP PUSH2 0x12E5 PUSH2 0x1036 JUMP JUMPDEST DUP1 PUSH2 0x12F3 JUMPI POP PUSH1 0x0 SLOAD PUSH1 0xFF AND ISZERO JUMPDEST PUSH2 0x130F JUMPI PUSH1 0x40 MLOAD PUSH3 0x461BCD PUSH1 0xE5 SHL DUP2 MSTORE PUSH1 0x4 ADD PUSH2 0x463 SWAP1 PUSH2 0x1B75 JUMP JUMPDEST PUSH1 0x0 SLOAD PUSH2 0x100 SWAP1 DIV PUSH1 0xFF AND ISZERO DUP1 ISZERO PUSH2 0x10BA JUMPI PUSH1 0x0 DUP1 SLOAD PUSH1 0xFF NOT PUSH2 0xFF00 NOT SWAP1 SWAP2 AND PUSH2 0x100 OR AND PUSH1 0x1 OR SWAP1 SSTORE DUP1 ISZERO PUSH2 0x10CC JUMPI PUSH1 0x0 DUP1 SLOAD PUSH2 0xFF00 NOT AND SWAP1 SSTORE POP JUMP JUMPDEST SLOAD SWAP1 JUMP JUMPDEST PUSH1 0x0 DUP2 DUP5 DUP5 GT ISZERO PUSH2 0x1375 JUMPI PUSH1 0x40 MLOAD PUSH3 0x461BCD PUSH1 0xE5 SHL DUP2 MSTORE PUSH1 0x4 ADD PUSH2 0x463 SWAP2 SWAP1 PUSH2 0x1931 JUMP JUMPDEST POP POP POP SWAP1 SUB SWAP1 JUMP JUMPDEST PUSH1 0x0 PUSH2 0x1389 DUP4 DUP4 PUSH2 0x12B4 JUMP JUMPDEST PUSH2 0x13BF JUMPI POP DUP2 SLOAD PUSH1 0x1 DUP2 DUP2 ADD DUP5 SSTORE PUSH1 0x0 DUP5 DUP2 MSTORE PUSH1 0x20 DUP1 DUP3 KECCAK256 SWAP1 SWAP4 ADD DUP5 SWAP1 SSTORE DUP5 SLOAD DUP5 DUP3 MSTORE DUP3 DUP7 ADD SWAP1 SWAP4 MSTORE PUSH1 0x40 SWAP1 KECCAK256 SWAP2 SWAP1 SWAP2 SSTORE PUSH2 0x6FD JUMP JUMPDEST POP PUSH1 0x0 PUSH2 0x6FD JUMP JUMPDEST PUSH1 0x0 DUP2 DUP2 MSTORE PUSH1 0x1 DUP4 ADD PUSH1 0x20 MSTORE PUSH1 0x40 DUP2 KECCAK256 SLOAD DUP1 ISZERO PUSH2 0x1483 JUMPI DUP4 SLOAD PUSH1 0x0 NOT DUP1 DUP4 ADD SWAP2 SWAP1 DUP2 ADD SWAP1 PUSH1 0x0 SWAP1 DUP8 SWAP1 DUP4 SWAP1 DUP2 LT PUSH2 0x13FA JUMPI INVALID JUMPDEST SWAP1 PUSH1 0x0 MSTORE PUSH1 0x20 PUSH1 0x0 KECCAK256 ADD SLOAD SWAP1 POP DUP1 DUP8 PUSH1 0x0 ADD DUP5 DUP2 SLOAD DUP2 LT PUSH2 0x1417 JUMPI INVALID JUMPDEST PUSH1 0x0 SWAP2 DUP3 MSTORE PUSH1 0x20 DUP1 DUP4 KECCAK256 SWAP1 SWAP2 ADD SWAP3 SWAP1 SWAP3 SSTORE DUP3 DUP2 MSTORE PUSH1 0x1 DUP10 DUP2 ADD SWAP1 SWAP3 MSTORE PUSH1 0x40 SWAP1 KECCAK256 SWAP1 DUP5 ADD SWAP1 SSTORE DUP7 SLOAD DUP8 SWAP1 DUP1 PUSH2 0x1447 JUMPI INVALID JUMPDEST PUSH1 0x1 SWAP1 SUB DUP2 DUP2 SWAP1 PUSH1 0x0 MSTORE PUSH1 0x20 PUSH1 0x0 KECCAK256 ADD PUSH1 0x0 SWAP1 SSTORE SWAP1 SSTORE DUP7 PUSH1 0x1 ADD PUSH1 0x0 DUP8 DUP2 MSTORE PUSH1 0x20 ADD SWAP1 DUP2 MSTORE PUSH1 0x20 ADD PUSH1 0x0 KECCAK256 PUSH1 0x0 SWAP1 SSTORE PUSH1 0x1 SWAP5 POP POP POP POP POP PUSH2 0x6FD JUMP JUMPDEST PUSH1 0x0 SWAP2 POP POP PUSH2 0x6FD JUMP JUMPDEST PUSH1 0x40 DUP1 MLOAD PUSH1 0x80 DUP2 ADD DUP3 MSTORE PUSH1 0x0 DUP1 DUP3 MSTORE PUSH1 0x20 DUP3 ADD DUP2 SWAP1 MSTORE SWAP2 DUP2 ADD DUP3 SWAP1 MSTORE PUSH1 0x60 DUP2 ADD SWAP2 SWAP1 SWAP2 MSTORE SWAP1 JUMP JUMPDEST DUP1 CALLDATALOAD PUSH1 0x1 PUSH1 0x1 PUSH1 0xA0 SHL SUB DUP2 AND DUP2 EQ PUSH2 0x6FD JUMPI PUSH1 0x0 DUP1 REVERT JUMPDEST PUSH1 0x0 DUP1 DUP4 PUSH1 0x1F DUP5 ADD SLT PUSH2 0x14DC JUMPI DUP2 DUP3 REVERT JUMPDEST POP DUP2 CALLDATALOAD PUSH8 0xFFFFFFFFFFFFFFFF DUP2 GT ISZERO PUSH2 0x14F3 JUMPI DUP2 DUP3 REVERT JUMPDEST PUSH1 0x20 DUP4 ADD SWAP2 POP DUP4 PUSH1 0x20 DUP1 DUP4 MUL DUP6 ADD ADD GT ISZERO PUSH2 0x806 JUMPI PUSH1 0x0 DUP1 REVERT JUMPDEST PUSH1 0x0 PUSH1 0x20 DUP3 DUP5 SUB SLT ISZERO PUSH2 0x151E JUMPI DUP1 DUP2 REVERT JUMPDEST PUSH2 0x6FA DUP4 DUP4 PUSH2 0x14B4 JUMP JUMPDEST PUSH1 0x0 DUP1 PUSH1 0x40 DUP4 DUP6 SUB SLT ISZERO PUSH2 0x153A JUMPI DUP1 DUP2 REVERT JUMPDEST PUSH2 0x1544 DUP5 DUP5 PUSH2 0x14B4 JUMP JUMPDEST SWAP2 POP PUSH2 0x1553 DUP5 PUSH1 0x20 DUP6 ADD PUSH2 0x14B4 JUMP JUMPDEST SWAP1 POP SWAP3 POP SWAP3 SWAP1 POP JUMP JUMPDEST PUSH1 0x0 DUP1 PUSH1 0x0 PUSH1 0x60 DUP5 DUP7 SUB SLT ISZERO PUSH2 0x1570 JUMPI DUP1 DUP2 REVERT JUMPDEST PUSH2 0x157A DUP6 DUP6 PUSH2 0x14B4 JUMP JUMPDEST SWAP3 POP PUSH2 0x1589 DUP6 PUSH1 0x20 DUP7 ADD PUSH2 0x14B4 JUMP JUMPDEST SWAP2 POP PUSH2 0x1598 DUP6 PUSH1 0x40 DUP7 ADD PUSH2 0x14B4 JUMP JUMPDEST SWAP1 POP SWAP3 POP SWAP3 POP SWAP3 JUMP JUMPDEST PUSH1 0x0 DUP1 PUSH1 0x40 DUP4 DUP6 SUB SLT ISZERO PUSH2 0x15B3 JUMPI DUP2 DUP3 REVERT JUMPDEST PUSH2 0x15BD DUP5 DUP5 PUSH2 0x14B4 JUMP JUMPDEST SWAP2 POP PUSH1 0x20 DUP1 DUP5 ADD CALLDATALOAD PUSH8 0xFFFFFFFFFFFFFFFF DUP2 GT ISZERO PUSH2 0x15D9 JUMPI DUP3 DUP4 REVERT JUMPDEST DUP5 ADD PUSH1 0x1F DUP2 ADD DUP7 SGT PUSH2 0x15E9 JUMPI DUP3 DUP4 REVERT JUMPDEST DUP1 CALLDATALOAD PUSH2 0x15FC PUSH2 0x15F7 DUP3 PUSH2 0x1DA0 JUMP JUMPDEST PUSH2 0x1D79 JUMP JUMPDEST DUP2 DUP2 MSTORE DUP4 DUP2 ADD SWAP1 DUP4 DUP6 ADD DUP6 DUP5 MUL DUP6 ADD DUP7 ADD DUP11 LT ISZERO PUSH2 0x1618 JUMPI DUP7 DUP8 REVERT JUMPDEST DUP7 SWAP5 POP JUMPDEST DUP4 DUP6 LT ISZERO PUSH2 0x1642 JUMPI PUSH2 0x162E DUP11 DUP3 PUSH2 0x14B4 JUMP JUMPDEST DUP4 MSTORE PUSH1 0x1 SWAP5 SWAP1 SWAP5 ADD SWAP4 SWAP2 DUP6 ADD SWAP2 DUP6 ADD PUSH2 0x161C JUMP JUMPDEST POP DUP1 SWAP6 POP POP POP POP POP POP SWAP3 POP SWAP3 SWAP1 POP JUMP JUMPDEST PUSH1 0x0 DUP1 PUSH1 0x0 DUP1 PUSH1 0x0 DUP1 PUSH1 0x0 DUP1 PUSH1 0xA0 DUP10 DUP12 SUB SLT ISZERO PUSH2 0x166D JUMPI DUP4 DUP5 REVERT JUMPDEST DUP9 CALLDATALOAD PUSH8 0xFFFFFFFFFFFFFFFF DUP1 DUP3 GT ISZERO PUSH2 0x1684 JUMPI DUP6 DUP7 REVERT JUMPDEST PUSH2 0x1690 DUP13 DUP4 DUP14 ADD PUSH2 0x14CB JUMP JUMPDEST SWAP1 SWAP11 POP SWAP9 POP PUSH1 0x20 DUP12 ADD CALLDATALOAD SWAP2 POP DUP1 DUP3 GT ISZERO PUSH2 0x16A8 JUMPI DUP6 DUP7 REVERT JUMPDEST PUSH2 0x16B4 DUP13 DUP4 DUP14 ADD PUSH2 0x14CB JUMP JUMPDEST SWAP1 SWAP9 POP SWAP7 POP PUSH1 0x40 DUP12 ADD CALLDATALOAD SWAP6 POP PUSH1 0x60 DUP12 ADD CALLDATALOAD SWAP5 POP PUSH1 0x80 DUP12 ADD CALLDATALOAD SWAP2 POP DUP1 DUP3 GT ISZERO PUSH2 0x16DA JUMPI DUP4 DUP5 REVERT JUMPDEST POP PUSH2 0x16E7 DUP12 DUP3 DUP13 ADD PUSH2 0x14CB JUMP JUMPDEST SWAP10 SWAP13 SWAP9 SWAP12 POP SWAP7 SWAP10 POP SWAP5 SWAP8 SWAP4 SWAP7 SWAP3 SWAP6 SWAP5 POP POP POP JUMP JUMPDEST PUSH1 0x0 PUSH1 0x20 DUP3 DUP5 SUB SLT ISZERO PUSH2 0x170C JUMPI DUP1 DUP2 REVERT JUMPDEST DUP2 MLOAD DUP1 ISZERO ISZERO DUP2 EQ PUSH2 0x6FA JUMPI DUP2 DUP3 REVERT JUMPDEST PUSH1 0x0 PUSH1 0x20 DUP3 DUP5 SUB SLT ISZERO PUSH2 0x172C JUMPI DUP1 DUP2 REVERT JUMPDEST POP CALLDATALOAD SWAP2 SWAP1 POP JUMP JUMPDEST PUSH1 0x0 DUP1 PUSH1 0x40 DUP4 DUP6 SUB SLT ISZERO PUSH2 0x1745 JUMPI DUP2 DUP3 REVERT JUMPDEST DUP3 CALLDATALOAD SWAP2 POP PUSH1 0x20 DUP4 ADD CALLDATALOAD PUSH1 0x1 PUSH1 0x1 PUSH1 0xA0 SHL SUB DUP2 AND DUP2 EQ PUSH2 0x1762 JUMPI DUP2 DUP3 REVERT JUMPDEST DUP1 SWAP2 POP POP SWAP3 POP SWAP3 SWAP1 POP JUMP JUMPDEST PUSH1 0x0 DUP1 PUSH1 0x0 PUSH1 0x60 DUP5 DUP7 SUB SLT ISZERO PUSH2 0x1781 JUMPI DUP3 DUP4 REVERT JUMPDEST POP POP DUP2 CALLDATALOAD SWAP4 PUSH1 0x20 DUP4 ADD CALLDATALOAD SWAP4 POP PUSH1 0x40 SWAP1 SWAP3 ADD CALLDATALOAD SWAP2 SWAP1 POP JUMP JUMPDEST PUSH1 0x0 DUP1 PUSH1 0x40 DUP4 DUP6 SUB SLT ISZERO PUSH2 0x17AA JUMPI DUP2 DUP3 REVERT JUMPDEST POP POP DUP1 CALLDATALOAD SWAP3 PUSH1 0x20 SWAP1 SWAP2 ADD CALLDATALOAD SWAP2 POP JUMP JUMPDEST DUP2 MSTORE PUSH1 0x20 ADD SWAP1 JUMP JUMPDEST PUSH1 0x1 PUSH1 0x1 PUSH1 0xA0 SHL SUB AND SWAP1 MSTORE JUMP JUMPDEST SWAP2 DUP3 MSTORE PUSH1 0x20 DUP3 ADD MSTORE PUSH1 0x40 ADD SWAP1 JUMP JUMPDEST PUSH1 0x0 DUP9 DUP3 MSTORE PUSH1 0x20 PUSH12 0xFFFFFFFFFFFFFFFFFFFFFFFF NOT DUP10 PUSH1 0x60 SHL AND DUP2 DUP5 ADD MSTORE DUP8 PUSH1 0x34 DUP5 ADD MSTORE PUSH1 0x54 DUP4 ADD DUP8 DUP4 JUMPDEST DUP9 DUP2 LT ISZERO PUSH2 0x1835 JUMPI DUP2 DUP5 ADD PUSH1 0x1 PUSH1 0x1 PUSH1 0xA0 SHL SUB PUSH2 0x1824 DUP3 DUP6 PUSH2 0x14B4 JUMP JUMPDEST AND DUP5 MSTORE SWAP3 DUP5 ADD SWAP3 SWAP2 POP PUSH1 0x1 ADD PUSH2 0x1807 JUMP JUMPDEST POP POP PUSH1 0x1 PUSH1 0x1 PUSH1 0xFB SHL SUB DUP6 GT ISZERO PUSH2 0x184A JUMPI DUP3 DUP4 REVERT JUMPDEST SWAP1 DUP5 MUL SWAP1 DUP2 DUP7 DUP3 CALLDATACOPY ADD SWAP1 DUP2 MSTORE SWAP9 SWAP8 POP POP POP POP POP POP POP POP JUMP JUMPDEST PUSH1 0x1 PUSH1 0x1 PUSH1 0xA0 SHL SUB SWAP2 SWAP1 SWAP2 AND DUP2 MSTORE PUSH1 0x20 ADD SWAP1 JUMP JUMPDEST PUSH1 0x1 PUSH1 0x1 PUSH1 0xA0 SHL SUB SWAP3 SWAP1 SWAP3 AND DUP3 MSTORE PUSH1 0x20 DUP3 ADD MSTORE PUSH1 0x40 ADD SWAP1 JUMP JUMPDEST PUSH1 0x40 DUP1 DUP3 MSTORE DUP4 MLOAD SWAP1 DUP3 ADD DUP2 SWAP1 MSTORE PUSH1 0x0 SWAP1 PUSH1 0x20 SWAP1 PUSH1 0x60 DUP5 ADD SWAP1 DUP3 DUP8 ADD DUP5 JUMPDEST DUP3 DUP2 LT ISZERO PUSH2 0x18CF JUMPI PUSH2 0x18BF DUP5 DUP4 MLOAD PUSH2 0x17C1 JUMP JUMPDEST SWAP3 DUP5 ADD SWAP3 SWAP1 DUP5 ADD SWAP1 PUSH1 0x1 ADD PUSH2 0x18AC JUMP JUMPDEST POP POP POP DUP4 DUP2 SUB DUP3 DUP6 ADD MSTORE DUP1 DUP6 MLOAD PUSH2 0x18E6 DUP2 DUP5 PUSH2 0x1928 JUMP JUMPDEST SWAP2 POP DUP4 DUP8 ADD SWAP3 POP DUP5 JUMPDEST DUP2 DUP2 LT ISZERO PUSH2 0x1910 JUMPI PUSH2 0x1902 DUP4 DUP6 MLOAD PUSH2 0x17B9 JUMP JUMPDEST SWAP4 DUP6 ADD SWAP4 SWAP3 POP PUSH1 0x1 ADD PUSH2 0x18EF JUMP JUMPDEST POP SWAP1 SWAP8 SWAP7 POP POP POP POP POP POP POP JUMP JUMPDEST SWAP1 ISZERO ISZERO DUP2 MSTORE PUSH1 0x20 ADD SWAP1 JUMP JUMPDEST SWAP1 DUP2 MSTORE PUSH1 0x20 ADD SWAP1 JUMP JUMPDEST PUSH1 0x0 PUSH1 0x20 DUP1 DUP4 MSTORE DUP4 MLOAD DUP1 DUP3 DUP6 ADD MSTORE DUP3 JUMPDEST DUP2 DUP2 LT ISZERO PUSH2 0x195D JUMPI DUP6 DUP2 ADD DUP4 ADD MLOAD DUP6 DUP3 ADD PUSH1 0x40 ADD MSTORE DUP3 ADD PUSH2 0x1941 JUMP JUMPDEST DUP2 DUP2 GT ISZERO PUSH2 0x196E JUMPI DUP4 PUSH1 0x40 DUP4 DUP8 ADD ADD MSTORE JUMPDEST POP PUSH1 0x1F ADD PUSH1 0x1F NOT AND SWAP3 SWAP1 SWAP3 ADD PUSH1 0x40 ADD SWAP4 SWAP3 POP POP POP JUMP JUMPDEST PUSH1 0x20 DUP1 DUP3 MSTORE PUSH1 0x22 SWAP1 DUP3 ADD MSTORE PUSH32 0x456E756D657261626C655365743A20696E646578206F7574206F6620626F756E PUSH1 0x40 DUP3 ADD MSTORE PUSH2 0x6473 PUSH1 0xF0 SHL PUSH1 0x60 DUP3 ADD MSTORE PUSH1 0x80 ADD SWAP1 JUMP JUMPDEST PUSH1 0x20 DUP1 DUP3 MSTORE PUSH1 0x2F SWAP1 DUP3 ADD MSTORE PUSH32 0x416363657373436F6E74726F6C3A2073656E646572206D75737420626520616E PUSH1 0x40 DUP3 ADD MSTORE PUSH15 0x818591B5A5B881D1BC819DC985B9D PUSH1 0x8A SHL PUSH1 0x60 DUP3 ADD MSTORE PUSH1 0x80 ADD SWAP1 JUMP JUMPDEST PUSH1 0x20 DUP1 DUP3 MSTORE PUSH1 0x14 SWAP1 DUP3 ADD MSTORE PUSH20 0x14185D5CD8589B194E881B9BDD081C185D5CD959 PUSH1 0x62 SHL PUSH1 0x40 DUP3 ADD MSTORE PUSH1 0x60 ADD SWAP1 JUMP JUMPDEST PUSH1 0x20 DUP1 DUP3 MSTORE PUSH1 0xF SWAP1 DUP3 ADD MSTORE PUSH15 0x151C985B9CD9995C8819985A5B1959 PUSH1 0x8A SHL PUSH1 0x40 DUP3 ADD MSTORE PUSH1 0x60 ADD SWAP1 JUMP JUMPDEST PUSH1 0x20 DUP1 DUP3 MSTORE PUSH1 0x1B SWAP1 DUP3 ADD MSTORE PUSH32 0x536166654D6174683A206164646974696F6E206F766572666C6F770000000000 PUSH1 0x40 DUP3 ADD MSTORE PUSH1 0x60 ADD SWAP1 JUMP JUMPDEST PUSH1 0x20 DUP1 DUP3 MSTORE PUSH1 0xE SWAP1 DUP3 ADD MSTORE PUSH14 0x125B98DBDC9C9958DD081C9BDBDD PUSH1 0x92 SHL PUSH1 0x40 DUP3 ADD MSTORE PUSH1 0x60 ADD SWAP1 JUMP JUMPDEST PUSH1 0x20 DUP1 DUP3 MSTORE PUSH1 0x30 SWAP1 DUP3 ADD MSTORE PUSH32 0x416363657373436F6E74726F6C3A2073656E646572206D75737420626520616E PUSH1 0x40 DUP3 ADD MSTORE PUSH16 0x2061646D696E20746F207265766F6B65 PUSH1 0x80 SHL PUSH1 0x60 DUP3 ADD MSTORE PUSH1 0x80 ADD SWAP1 JUMP JUMPDEST PUSH1 0x20 DUP1 DUP3 MSTORE PUSH1 0x10 SWAP1 DUP3 ADD MSTORE PUSH16 0x14185D5CD8589B194E881C185D5CD959 PUSH1 0x82 SHL PUSH1 0x40 DUP3 ADD MSTORE PUSH1 0x60 ADD SWAP1 JUMP JUMPDEST PUSH1 0x20 DUP1 DUP3 MSTORE PUSH1 0x16 SWAP1 DUP3 ADD MSTORE PUSH22 0x92DCC6DEE4E4CAC6E840C6DEDCE8CADCE840D0C2E6D PUSH1 0x53 SHL PUSH1 0x40 DUP3 ADD MSTORE PUSH1 0x60 ADD SWAP1 JUMP JUMPDEST PUSH1 0x20 DUP1 DUP3 MSTORE PUSH1 0x2E SWAP1 DUP3 ADD MSTORE PUSH32 0x496E697469616C697A61626C653A20636F6E747261637420697320616C726561 PUSH1 0x40 DUP3 ADD MSTORE PUSH14 0x191E481A5B9A5D1A585B1A5E9959 PUSH1 0x92 SHL PUSH1 0x60 DUP3 ADD MSTORE PUSH1 0x80 ADD SWAP1 JUMP JUMPDEST PUSH1 0x20 DUP1 DUP3 MSTORE PUSH1 0xF SWAP1 DUP3 ADD MSTORE PUSH15 0x37B7363CA937B7BA2AB83230BA32B9 PUSH1 0x89 SHL PUSH1 0x40 DUP3 ADD MSTORE PUSH1 0x60 ADD SWAP1 JUMP JUMPDEST PUSH1 0x20 DUP1 DUP3 MSTORE PUSH1 0xD SWAP1 DUP3 ADD MSTORE PUSH13 0x496E76616C6964206379636C65 PUSH1 0x98 SHL PUSH1 0x40 DUP3 ADD MSTORE PUSH1 0x60 ADD SWAP1 JUMP JUMPDEST PUSH1 0x20 DUP1 DUP3 MSTORE PUSH1 0x17 SWAP1 DUP3 ADD MSTORE PUSH32 0x436C61696D656420616D6F756E74206D69736D61746368000000000000000000 PUSH1 0x40 DUP3 ADD MSTORE PUSH1 0x60 ADD SWAP1 JUMP JUMPDEST PUSH1 0x20 DUP1 DUP3 MSTORE PUSH1 0xF SWAP1 DUP3 ADD MSTORE PUSH15 0x45786365737369766520636C61696D PUSH1 0x88 SHL PUSH1 0x40 DUP3 ADD MSTORE PUSH1 0x60 ADD SWAP1 JUMP JUMPDEST PUSH1 0x20 DUP1 DUP3 MSTORE PUSH1 0xC SWAP1 DUP3 ADD MSTORE PUSH12 0x37B7363CA3BAB0B93234B0B7 PUSH1 0xA1 SHL PUSH1 0x40 DUP3 ADD MSTORE PUSH1 0x60 ADD SWAP1 JUMP JUMPDEST PUSH1 0x20 DUP1 DUP3 MSTORE PUSH1 0xD SWAP1 DUP3 ADD MSTORE PUSH13 0x24B73B30B634B210383937B7B3 PUSH1 0x99 SHL PUSH1 0x40 DUP3 ADD MSTORE PUSH1 0x60 ADD SWAP1 JUMP JUMPDEST PUSH1 0x20 DUP1 DUP3 MSTORE PUSH1 0xF SWAP1 DUP3 ADD MSTORE PUSH15 0x496E636F7272656374206379636C65 PUSH1 0x88 SHL PUSH1 0x40 DUP3 ADD MSTORE PUSH1 0x60 ADD SWAP1 JUMP JUMPDEST PUSH1 0x20 DUP1 DUP3 MSTORE PUSH1 0x2F SWAP1 DUP3 ADD MSTORE PUSH32 0x416363657373436F6E74726F6C3A2063616E206F6E6C792072656E6F756E6365 PUSH1 0x40 DUP3 ADD MSTORE PUSH15 0x103937B632B9903337B91039B2B633 PUSH1 0x89 SHL PUSH1 0x60 DUP3 ADD MSTORE PUSH1 0x80 ADD SWAP1 JUMP JUMPDEST DUP2 MLOAD DUP2 MSTORE PUSH1 0x20 DUP1 DUP4 ADD MLOAD SWAP1 DUP3 ADD MSTORE PUSH1 0x40 DUP1 DUP4 ADD MLOAD SWAP1 DUP3 ADD MSTORE PUSH1 0x60 SWAP2 DUP3 ADD MLOAD SWAP2 DUP2 ADD SWAP2 SWAP1 SWAP2 MSTORE PUSH1 0x80 ADD SWAP1 JUMP JUMPDEST SWAP3 DUP4 MSTORE PUSH1 0x20 DUP4 ADD SWAP2 SWAP1 SWAP2 MSTORE PUSH1 0x40 DUP3 ADD MSTORE PUSH1 0x60 ADD SWAP1 JUMP JUMPDEST PUSH1 0x40 MLOAD DUP2 DUP2 ADD PUSH8 0xFFFFFFFFFFFFFFFF DUP2 GT DUP3 DUP3 LT OR ISZERO PUSH2 0x1D98 JUMPI PUSH1 0x0 DUP1 REVERT JUMPDEST PUSH1 0x40 MSTORE SWAP2 SWAP1 POP JUMP JUMPDEST PUSH1 0x0 PUSH8 0xFFFFFFFFFFFFFFFF DUP3 GT ISZERO PUSH2 0x1DB6 JUMPI DUP1 DUP2 REVERT JUMPDEST POP PUSH1 0x20 SWAP1 DUP2 MUL ADD SWAP1 JUMP INVALID LOG2 PUSH5 0x6970667358 0x22 SLT KECCAK256 0xF7 PUSH22 0x57BECF618C992B252E27A8B433C066853124736EDE03 0xD8 DIV SGT 0xBA 0xFC 0xAE SGT 0x2A PUSH5 0x736F6C6343 STOP MOD 0xC STOP CALLER ",
	"sha1": "cd49f8da63d5566f84cd2f4fecfea475ade2900e",
	"source": "// SPDX-License-Identifier: MIT\n\npragma solidity ^0.6.0;\npragma experimental ABIEncoderV2;\n\nimport \"deps/@openzeppelin/contracts-upgradeable/math/SafeMathUpgradeable.sol\";\nimport \"deps/@openzeppelin/contracts-upgradeable/token/ERC20/IERC20Upgradeable.sol\";\nimport \"deps/@openzeppelin/contracts-upgradeable/access/AccessControlUpgradeable.sol\";\nimport \"deps/@openzeppelin/contracts-upgradeable/utils/PausableUpgradeable.sol\";\nimport \"deps/@openzeppelin/contracts-upgradeable/cryptography/MerkleProofUpgradeable.sol\";\nimport \"interfaces/badger/ICumulativeMultiTokenMerkleDistributor.sol\";\n\ncontract BadgerTree is Initializable, AccessControlUpgradeable, ICumulativeMultiTokenMerkleDistributor, PausableUpgradeable {\n    using SafeMathUpgradeable for uint256;\n\n    struct MerkleData {\n        bytes32 root;\n        bytes32 contentHash;\n        uint256 timestamp;\n        uint256 blockNumber;\n    }\n\n    bytes32 public constant ROOT_UPDATER_ROLE = keccak256(\"ROOT_UPDATER_ROLE\");\n    bytes32 public constant GUARDIAN_ROLE = keccak256(\"GUARDIAN_ROLE\");\n\n    uint256 public currentCycle;\n    bytes32 public merkleRoot;\n    bytes32 public merkleContentHash;\n    uint256 public lastPublishTimestamp;\n    uint256 public lastPublishBlockNumber;\n\n    uint256 public pendingCycle;\n    bytes32 public pendingMerkleRoot;\n    bytes32 public pendingMerkleContentHash;\n    uint256 public lastProposeTimestamp;\n    uint256 public lastProposeBlockNumber;\n\n    mapping(address => mapping(address => uint256)) public claimed;\n    mapping(address => uint256) public totalClaimed;\n\n    function initialize(\n        address admin,\n        address initialUpdater,\n        address initialGuardian\n    ) public initializer {\n        __AccessControl_init();\n        __Pausable_init_unchained();\n\n        _setupRole(DEFAULT_ADMIN_ROLE, admin); // The admin can edit all role permissions\n        _setupRole(ROOT_UPDATER_ROLE, initialUpdater);\n        _setupRole(GUARDIAN_ROLE, initialGuardian);\n    }\n\n    /// ===== Modifiers =====\n\n    /// @notice Admins can approve new root updaters or admins\n    function _onlyAdmin() internal view {\n        require(hasRole(DEFAULT_ADMIN_ROLE, msg.sender), \"onlyAdmin\");\n    }\n\n    /// @notice Root updaters can update the root\n    function _onlyRootUpdater() internal view {\n        require(hasRole(ROOT_UPDATER_ROLE, msg.sender), \"onlyRootUpdater\");\n    }\n\n    function _onlyGuardian() internal view {\n        require(hasRole(GUARDIAN_ROLE, msg.sender), \"onlyGuardian\");\n    }\n\n    function getCurrentMerkleData() external view returns (MerkleData memory) {\n        return MerkleData(merkleRoot, merkleContentHash, lastPublishTimestamp, lastProposeBlockNumber);\n    }\n\n    function getPendingMerkleData() external view returns (MerkleData memory) {\n        return MerkleData(pendingMerkleRoot, pendingMerkleContentHash, lastProposeTimestamp, lastProposeBlockNumber);\n    }\n\n    function hasPendingRoot() external view returns (bool) {\n        return pendingCycle == currentCycle.add(1);\n    }\n\n    function getClaimedFor(address user, address[] memory tokens) public view returns(address[] memory, uint256[] memory) {\n        uint256[] memory userClaimed = new uint256[](tokens.length);\n        for (uint256 i = 0; i < tokens.length; i++) {\n            userClaimed[i] = claimed[user][tokens[i]];\n        }\n        return (tokens, userClaimed);\n    }\n\n    /// @notice Claim accumulated rewards for a set of tokens at a given cycle number\n    function claim(\n        address[] calldata tokens,\n        uint256[] calldata cumulativeAmounts,\n        uint256 index,\n        uint256 cycle,\n        bytes32[] calldata merkleProof\n    ) external whenNotPaused {\n        require(cycle == currentCycle, \"Invalid cycle\");\n\n        // Verify the merkle proof.\n        bytes32 node = keccak256(abi.encodePacked(index, msg.sender, cycle, tokens, cumulativeAmounts));\n        require(MerkleProofUpgradeable.verify(merkleProof, merkleRoot, node), \"Invalid proof\");\n\n        // Claim each token\n        for (uint256 i = 0; i < tokens.length; i++) {\n            uint256 claimable = cumulativeAmounts[i].sub(claimed[msg.sender][tokens[i]]);\n\n            require(claimable > 0, \"Excessive claim\");\n\n            claimed[msg.sender][tokens[i]] = claimed[msg.sender][tokens[i]].add(claimable);\n\n            require(claimed[msg.sender][tokens[i]] == cumulativeAmounts[i], \"Claimed amount mismatch\");\n            require(IERC20Upgradeable(tokens[i]).transfer(msg.sender, cumulativeAmounts[i]), \"Transfer failed\");\n\n            emit Claimed(msg.sender, tokens[i], cumulativeAmounts[i], cycle, now, block.number);\n        }\n    }\n\n    // ===== Root Updater Restricted =====\n\n    /// @notice Propose a new root and content hash, which will be stored as pending until approved\n    function proposeRoot(\n        bytes32 root,\n        bytes32 contentHash,\n        uint256 cycle\n    ) external whenNotPaused {\n        _onlyRootUpdater();\n        require(cycle == currentCycle.add(1), \"Incorrect cycle\");\n\n        pendingCycle = cycle;\n        pendingMerkleRoot = root;\n        pendingMerkleContentHash = contentHash;\n        lastProposeTimestamp = now;\n        lastProposeBlockNumber = block.number;\n\n        emit RootProposed(cycle, pendingMerkleRoot, pendingMerkleContentHash, now, block.number);\n    }\n\n    /// ===== Guardian Restricted =====\n\n    /// @notice Approve the current pending root and content hash\n    function approveRoot(\n        bytes32 root,\n        bytes32 contentHash,\n        uint256 cycle\n    ) external {\n        require(root == pendingMerkleRoot, \"Incorrect root\");\n        require(contentHash == pendingMerkleContentHash, \"Incorrect content hash\");\n        require(cycle == pendingCycle, \"Incorrect cycle\");\n\n        currentCycle = currentCycle.add(1);\n        merkleRoot = root;\n        merkleContentHash = contentHash;\n        lastPublishTimestamp = now;\n        lastPublishBlockNumber = block.number;\n\n        emit RootUpdated(currentCycle, root, contentHash, now, block.number);\n    }\n\n    /// @notice Pause publishing of new roots\n    function pause() external {\n        _onlyGuardian();\n        _pause();\n    }\n\n    /// @notice Unpause publishing of new roots\n    function unpause() external {\n        _onlyGuardian();\n        _unpause();\n    }\n}\n",
	"sourcePath": "contracts/badger-geyser/BadgerTree.sol",
	"type": "contract"
}