{
  "abi": [
    {
      "anonymous": false,
      "inputs": [
        {
          "indexed": false,
          "internalType": "uint256",
          "name": "index",
          "type": "uint256"
        },
        {
          "indexed": false,
          "internalType": "address",
          "name": "account",
          "type": "address"
        },
        {
          "indexed": false,
          "internalType": "uint256",
          "name": "amount",
          "type": "uint256"
        }
      ],
      "name": "Claimed",
      "type": "event"
    },
    {
      "anonymous": false,
      "inputs": [
        {
          "indexed": false,
          "internalType": "uint256",
          "name": "index",
          "type": "uint256"
        },
        {
          "indexed": true,
          "internalType": "address",
          "name": "account",
          "type": "address"
        },
        {
          "indexed": false,
          "internalType": "uint256",
          "name": "amount",
          "type": "uint256"
        },
        {
          "indexed": false,
          "internalType": "uint256",
          "name": "userClaim",
          "type": "uint256"
        },
        {
          "indexed": false,
          "internalType": "uint256",
          "name": "rewardsEscrowClaim",
          "type": "uint256"
        }
      ],
      "name": "Hunt",
      "type": "event"
    },
    {
      "anonymous": false,
      "inputs": [
        {
          "indexed": true,
          "internalType": "address",
          "name": "previousOwner",
          "type": "address"
        },
        {
          "indexed": true,
          "internalType": "address",
          "name": "newOwner",
          "type": "address"
        }
      ],
      "name": "OwnershipTransferred",
      "type": "event"
    },
    {
      "inputs": [],
      "name": "MAX_BPS",
      "outputs": [
        {
          "internalType": "uint256",
          "name": "",
          "type": "uint256"
        }
      ],
      "stateMutability": "view",
      "type": "function"
    },
    {
      "inputs": [
        {
          "internalType": "address",
          "name": "token_",
          "type": "address"
        },
        {
          "internalType": "bytes32",
          "name": "merkleRoot_",
          "type": "bytes32"
        }
      ],
      "name": "__MerkleDistributor_init",
      "outputs": [],
      "stateMutability": "nonpayable",
      "type": "function"
    },
    {
      "inputs": [
        {
          "internalType": "uint256",
          "name": "index",
          "type": "uint256"
        },
        {
          "internalType": "address",
          "name": "account",
          "type": "address"
        },
        {
          "internalType": "uint256",
          "name": "amount",
          "type": "uint256"
        },
        {
          "internalType": "bytes32[]",
          "name": "merkleProof",
          "type": "bytes32[]"
        }
      ],
      "name": "claim",
      "outputs": [],
      "stateMutability": "nonpayable",
      "type": "function"
    },
    {
      "inputs": [],
      "name": "claimsStart",
      "outputs": [
        {
          "internalType": "uint256",
          "name": "",
          "type": "uint256"
        }
      ],
      "stateMutability": "view",
      "type": "function"
    },
    {
      "inputs": [],
      "name": "currentRewardRate",
      "outputs": [
        {
          "internalType": "uint256",
          "name": "",
          "type": "uint256"
        }
      ],
      "stateMutability": "view",
      "type": "function"
    },
    {
      "inputs": [],
      "name": "epochDuration",
      "outputs": [
        {
          "internalType": "uint256",
          "name": "",
          "type": "uint256"
        }
      ],
      "stateMutability": "view",
      "type": "function"
    },
    {
      "inputs": [],
      "name": "finalEpoch",
      "outputs": [
        {
          "internalType": "uint256",
          "name": "",
          "type": "uint256"
        }
      ],
      "stateMutability": "view",
      "type": "function"
    },
    {
      "inputs": [],
      "name": "getClaimsStartTime",
      "outputs": [
        {
          "internalType": "uint256",
          "name": "",
          "type": "uint256"
        }
      ],
      "stateMutability": "view",
      "type": "function"
    },
    {
      "inputs": [],
      "name": "getCurrentEpoch",
      "outputs": [
        {
          "internalType": "uint256",
          "name": "",
          "type": "uint256"
        }
      ],
      "stateMutability": "view",
      "type": "function"
    },
    {
      "inputs": [],
      "name": "getCurrentRewardsRate",
      "outputs": [
        {
          "internalType": "uint256",
          "name": "",
          "type": "uint256"
        }
      ],
      "stateMutability": "view",
      "type": "function"
    },
    {
      "inputs": [],
      "name": "getGracePeriodEnd",
      "outputs": [
        {
          "internalType": "uint256",
          "name": "",
          "type": "uint256"
        }
      ],
      "stateMutability": "view",
      "type": "function"
    },
    {
      "inputs": [],
      "name": "getNextEpochRewardsRate",
      "outputs": [
        {
          "internalType": "uint256",
          "name": "",
          "type": "uint256"
        }
      ],
      "stateMutability": "view",
      "type": "function"
    },
    {
      "inputs": [],
      "name": "getNextEpochStart",
      "outputs": [
        {
          "internalType": "uint256",
          "name": "",
          "type": "uint256"
        }
      ],
      "stateMutability": "view",
      "type": "function"
    },
    {
      "inputs": [],
      "name": "gracePeriod",
      "outputs": [
        {
          "internalType": "uint256",
          "name": "",
          "type": "uint256"
        }
      ],
      "stateMutability": "view",
      "type": "function"
    },
    {
      "inputs": [
        {
          "internalType": "address",
          "name": "token_",
          "type": "address"
        },
        {
          "internalType": "bytes32",
          "name": "merkleRoot_",
          "type": "bytes32"
        },
        {
          "internalType": "uint256",
          "name": "epochDuration_",
          "type": "uint256"
        },
        {
          "internalType": "uint256",
          "name": "rewardReductionPerEpoch_",
          "type": "uint256"
        },
        {
          "internalType": "uint256",
          "name": "claimsStart_",
          "type": "uint256"
        },
        {
          "internalType": "uint256",
          "name": "gracePeriod_",
          "type": "uint256"
        },
        {
          "internalType": "address",
          "name": "rewardsEscrow_",
          "type": "address"
        },
        {
          "internalType": "address",
          "name": "owner_",
          "type": "address"
        }
      ],
      "name": "initialize",
      "outputs": [],
      "stateMutability": "nonpayable",
      "type": "function"
    },
    {
      "inputs": [
        {
          "internalType": "uint256",
          "name": "index",
          "type": "uint256"
        }
      ],
      "name": "isClaimed",
      "outputs": [
        {
          "internalType": "bool",
          "name": "",
          "type": "bool"
        }
      ],
      "stateMutability": "view",
      "type": "function"
    },
    {
      "inputs": [],
      "name": "merkleRoot",
      "outputs": [
        {
          "internalType": "bytes32",
          "name": "",
          "type": "bytes32"
        }
      ],
      "stateMutability": "view",
      "type": "function"
    },
    {
      "inputs": [],
      "name": "owner",
      "outputs": [
        {
          "internalType": "address",
          "name": "",
          "type": "address"
        }
      ],
      "stateMutability": "view",
      "type": "function"
    },
    {
      "inputs": [],
      "name": "recycleExcess",
      "outputs": [],
      "stateMutability": "nonpayable",
      "type": "function"
    },
    {
      "inputs": [],
      "name": "renounceOwnership",
      "outputs": [],
      "stateMutability": "nonpayable",
      "type": "function"
    },
    {
      "inputs": [],
      "name": "rewardReductionPerEpoch",
      "outputs": [
        {
          "internalType": "uint256",
          "name": "",
          "type": "uint256"
        }
      ],
      "stateMutability": "view",
      "type": "function"
    },
    {
      "inputs": [],
      "name": "rewardsEscrow",
      "outputs": [
        {
          "internalType": "address",
          "name": "",
          "type": "address"
        }
      ],
      "stateMutability": "view",
      "type": "function"
    },
    {
      "inputs": [],
      "name": "token",
      "outputs": [
        {
          "internalType": "address",
          "name": "",
          "type": "address"
        }
      ],
      "stateMutability": "view",
      "type": "function"
    },
    {
      "inputs": [
        {
          "internalType": "address",
          "name": "newOwner",
          "type": "address"
        }
      ],
      "name": "transferOwnership",
      "outputs": [],
      "stateMutability": "nonpayable",
      "type": "function"
    }
  ],
  "bytecode": "608060405234801561001057600080fd5b50611521806100206000396000f3fe608060405234801561001057600080fd5b50600436106101585760003560e01c80639e34070f116100c3578063f21579321161007c578063f21579321461033b578063f2fde38b14610343578063f51ace7014610369578063f9f1f30214610371578063fc0c546a14610379578063fd967f471461038157610158565b80639e34070f146102e25780639f2e7b1914610313578063a06db7dc1461031b578063b97dd9e214610323578063be084c771461032b578063e58e230a1461033357610158565b806365c5f94a1161011557806365c5f94a14610296578063715018a61461029e578063829eb92c146102a65780638d0f7e11146102ae5780638da5cb5b146102b657806396d857c5146102da57610158565b80632e7ba6ef1461015d5780632eb4a7ab146101eb5780633a98d88e146102055780634ff0876a1461020d5780635a857e5814610215578063601839ae1461026a575b600080fd5b6101e96004803603608081101561017357600080fd5b8135916001600160a01b0360208201351691604082013591908101906080810160608201356401000000008111156101aa57600080fd5b8201836020820111156101bc57600080fd5b803590602001918460208302840111640100000000831117156101de57600080fd5b509092509050610389565b005b6101f3610721565b60408051918252519081900360200190f35b6101f3610727565b6101f361072d565b6101e9600480360361010081101561022c57600080fd5b506001600160a01b03813581169160208101359160408201359160608101359160808201359160a08101359160c082013581169160e0013516610733565b6101e96004803603604081101561028057600080fd5b506001600160a01b038135169060200135610840565b6101f361090b565b6101e9610979565b6101f3610a2d565b6101f3610a33565b6102be610a92565b604080516001600160a01b039092168252519081900360200190f35b6101f3610aa1565b6102ff600480360360208110156102f857600080fd5b5035610aa7565b604080519115158252519081900360200190f35b6101f3610acd565b6101f3610ad3565b6101f3610ad9565b6101f3610b33565b6101f3610b3e565b6102be610b5c565b6101e96004803603602081101561035957600080fd5b50356001600160a01b0316610b6b565b6101f3610c76565b6101e9610c7c565b6102be610e5e565b6101f3610e73565b6001600160a01b03841633146103d05760405162461bcd60e51b81526004018080602001828103825260328152602001806113fc6032913960400191505060405180910390fd5b6103d985610aa7565b156104155760405162461bcd60e51b81526004018080602001828103825260288152602001806114756028913960400191505060405180910390fd5b600085858560405160200180848152602001836001600160a01b031660601b8152601401828152602001935050505060405160208183030381529060405280519060200120905061049d838380806020026020016040519081016040528093929190818152602001838360200280828437600092019190915250506001549150849050610e79565b6104d85760405162461bcd60e51b81526004018080602001828103825260218152602001806114546021913960400191505060405180910390fd5b6104e186610f22565b60006105016127106104fb6104f4610b33565b8890610f49565b90610fab565b9050600060029054906101000a90046001600160a01b03166001600160a01b031663a9059cbb87836040518363ffffffff1660e01b815260040180836001600160a01b0316815260200182815260200192505050602060405180830381600087803b15801561056f57600080fd5b505af1158015610583573d6000803e3d6000fd5b505050506040513d602081101561059957600080fd5b50516105ec576040805162461bcd60e51b815260206004820152601860248201527f5472616e7366657220746f2075736572206661696c65642e0000000000000000604482015290519081900360640190fd5b8481146106bb5760008054606d546040805163a9059cbb60e01b81526001600160a01b039283166004820152602481018690529051620100009093049091169263a9059cbb926044808401936020939083900390910190829087803b15801561065457600080fd5b505af1158015610668573d6000803e3d6000fd5b505050506040513d602081101561067e57600080fd5b50516106bb5760405162461bcd60e51b81526004018080602001828103825260218152602001806113db6021913960400191505060405180910390fd5b6001600160a01b0386167f8eaf15614908a4e9022141fe4a596b1ab0cb72ab32b25023e3da2a459c9a335c8887846106f38282610fed565b604080519485526020850193909352838301919091526060830152519081900360800190a250505050505050565b60015481565b606c5481565b60695481565b600054610100900460ff168061074c575061074c61102f565b8061075a575060005460ff16155b6107955760405162461bcd60e51b815260040180806020018281038252602e81526020018061149d602e913960400191505060405180910390fd5b600054610100900460ff161580156107c0576000805460ff1961ff0019909116610100171660011790555b6107ca8989610840565b6107d2611035565b6107db82610b6b565b6069879055606a86905560678590556068849055606d80546001600160a01b0319166001600160a01b038516179055612710606b81905560019087908161081e57fe5b0403606c558015610835576000805461ff00191690555b505050505050505050565b600054610100900460ff1680610859575061085961102f565b80610867575060005460ff16155b6108a25760405162461bcd60e51b815260040180806020018281038252602e81526020018061149d602e913960400191505060405180910390fd5b600054610100900460ff161580156108cd576000805460ff1961ff0019909116610100171660011790555b6000805462010000600160b01b031916620100006001600160a01b0386160217905560018290558015610906576000805461ff00191690555b505050565b6000806109256068546067546110e790919063ffffffff16565b90506000610931610ad9565b90508061095057606854606754610947916110e7565b92505050610976565b606954610947906109619083610f49565b606854606754610970916110e7565b906110e7565b90565b610981611141565b6035546001600160a01b039081169116146109e3576040805162461bcd60e51b815260206004820181905260248201527f4f776e61626c653a2063616c6c6572206973206e6f7420746865206f776e6572604482015290519081900360640190fd5b6035546040516000916001600160a01b0316907f8be0079c531659141344cd1fd0a4f28419497f9722a3daafe3b4186f6b6457e0908390a3603580546001600160a01b0319169055565b60675481565b600080610a436001610970610ad9565b905080610a5557612710915050610976565b606c54811115610a69576000915050610976565b610a8a610a81606a5483610f4990919063ffffffff16565b61271090610fed565b915050610976565b6035546001600160a01b031690565b60675490565b6101008104600090815260026020526040902054600160ff9092169190911b9081161490565b606a5481565b60685481565b600080610af36068546067546110e790919063ffffffff16565b905080421015610b07576000915050610976565b6000610b134283610fed565b9050610b2c60016069548381610b2557fe5b04906110e7565b9250505090565b600080610a43610ad9565b6000610b576068546067546110e790919063ffffffff16565b905090565b606d546001600160a01b031681565b610b73611141565b6035546001600160a01b03908116911614610bd5576040805162461bcd60e51b815260206004820181905260248201527f4f776e61626c653a2063616c6c6572206973206e6f7420746865206f776e6572604482015290519081900360640190fd5b6001600160a01b038116610c1a5760405162461bcd60e51b815260040180806020018281038252602681526020018061142e6026913960400191505060405180910390fd5b6035546040516001600160a01b038084169216907f8be0079c531659141344cd1fd0a4f28419497f9722a3daafe3b4186f6b6457e090600090a3603580546001600160a01b0319166001600160a01b0392909216919091179055565b606b5481565b610c84611141565b6035546001600160a01b03908116911614610ce6576040805162461bcd60e51b815260206004820181905260248201527f4f776e61626c653a2063616c6c6572206973206e6f7420746865206f776e6572604482015290519081900360640190fd5b610cee610b33565b158015610d035750606c54610d01610ad9565b115b610d54576040805162461bcd60e51b815260206004820152601860248201527f48756e7420706572696f64206e6f742066696e69736865640000000000000000604482015290519081900360640190fd5b60008054604080516370a0823160e01b81523060048201529051620100009092046001600160a01b0316916370a0823191602480820192602092909190829003018186803b158015610da557600080fd5b505afa158015610db9573d6000803e3d6000fd5b505050506040513d6020811015610dcf57600080fd5b505160008054606d546040805163a9059cbb60e01b81526001600160a01b03928316600482015260248101869052905194955062010000909204169263a9059cbb92604480840193602093929083900390910190829087803b158015610e3457600080fd5b505af1158015610e48573d6000803e3d6000fd5b505050506040513d602081101561090657600080fd5b6000546201000090046001600160a01b031681565b61271081565b600081815b8551811015610f17576000868281518110610e9557fe5b60200260200101519050808311610edc5782816040516020018083815260200182815260200192505050604051602081830303815290604052805190602001209250610f0e565b808360405160200180838152602001828152602001925050506040516020818303038152906040528051906020012092505b50600101610e7e565b509092149392505050565b610100810460009081526002602052604090208054600160ff9093169290921b9091179055565b600082610f5857506000610fa5565b82820282848281610f6557fe5b0414610fa25760405162461bcd60e51b81526004018080602001828103825260218152602001806114cb6021913960400191505060405180910390fd5b90505b92915050565b6000610fa283836040518060400160405280601a81526020017f536166654d6174683a206469766973696f6e206279207a65726f000000000000815250611145565b6000610fa283836040518060400160405280601e81526020017f536166654d6174683a207375627472616374696f6e206f766572666c6f7700008152506111e7565b303b1590565b600054610100900460ff168061104e575061104e61102f565b8061105c575060005460ff16155b6110975760405162461bcd60e51b815260040180806020018281038252602e81526020018061149d602e913960400191505060405180910390fd5b600054610100900460ff161580156110c2576000805460ff1961ff0019909116610100171660011790555b6110ca611241565b6110d26112e1565b80156110e4576000805461ff00191690555b50565b600082820183811015610fa2576040805162461bcd60e51b815260206004820152601b60248201527f536166654d6174683a206164646974696f6e206f766572666c6f770000000000604482015290519081900360640190fd5b3390565b600081836111d15760405162461bcd60e51b81526004018080602001828103825283818151815260200191508051906020019080838360005b8381101561119657818101518382015260200161117e565b50505050905090810190601f1680156111c35780820380516001836020036101000a031916815260200191505b509250505060405180910390fd5b5060008385816111dd57fe5b0495945050505050565b600081848411156112395760405162461bcd60e51b815260206004820181815283516024840152835190928392604490910191908501908083836000831561119657818101518382015260200161117e565b505050900390565b600054610100900460ff168061125a575061125a61102f565b80611268575060005460ff16155b6112a35760405162461bcd60e51b815260040180806020018281038252602e81526020018061149d602e913960400191505060405180910390fd5b600054610100900460ff161580156110d2576000805460ff1961ff00199091166101001716600117905580156110e4576000805461ff001916905550565b600054610100900460ff16806112fa57506112fa61102f565b80611308575060005460ff16155b6113435760405162461bcd60e51b815260040180806020018281038252602e81526020018061149d602e913960400191505060405180910390fd5b600054610100900460ff1615801561136e576000805460ff1961ff0019909116610100171660011790555b6000611378611141565b603580546001600160a01b0319166001600160a01b038316908117909155604051919250906000907f8be0079c531659141344cd1fd0a4f28419497f9722a3daafe3b4186f6b6457e0908290a35080156110e4576000805461ff00191690555056fe5472616e7366657220746f2072657761726473457363726f77206661696c65642e4261646765724469737472696275746f723a2043616e206f6e6c7920636c61696d20666f72206f776e206163636f756e742e4f776e61626c653a206e6577206f776e657220697320746865207a65726f20616464726573734261646765724469737472696275746f723a20496e76616c69642070726f6f662e4261646765724469737472696275746f723a2044726f7020616c726561647920636c61696d65642e496e697469616c697a61626c653a20636f6e747261637420697320616c726561647920696e697469616c697a6564536166654d6174683a206d756c7469706c69636174696f6e206f766572666c6f77a26469706673582212207116bbb34c72989be25cf5df79e3175dc0497e897cd265d675ab2aaad8d6168e64736f6c634300060c0033",
  "bytecodeSha1": "9ccfa18ddefaa00594b09808a009b11a9612ae9f",
  "compiler": {
    "evm_version": "istanbul",
    "optimizer": {
      "enabled": true,
      "runs": 200
    },
    "version": "0.6.12"
  },
  "contractName": "BadgerHunt",
  "language": "Solidity",
  "natspec": {
    "kind": "dev",
    "methods": {
      "claim(uint256,address,uint256,bytes32[])": {
        "notice": "===== Public Actions ====="
      },
      "getClaimsStartTime()": {
        "details": "Get claims start timestamp"
      },
      "getCurrentEpoch()": {
        "details": "Get the current epoch number"
      },
      "getCurrentRewardsRate()": {
        "details": "Get the rewards % of current epoch"
      },
      "getGracePeriodEnd()": {
        "details": "Get grace period end timestamp",
        "notice": "===== View Functions ====="
      },
      "getNextEpochRewardsRate()": {
        "details": "Get the rewards % of following epoch"
      },
      "getNextEpochStart()": {
        "details": "Get the next epoch start"
      },
      "owner()": {
        "details": "Returns the address of the current owner."
      },
      "recycleExcess()": {
        "notice": "After hunt is complete, transfer excess funds to rewardsEscrow "
      },
      "renounceOwnership()": {
        "details": "Leaves the contract without owner. It will not be possible to call `onlyOwner` functions anymore. Can only be called by the current owner. NOTE: Renouncing ownership will leave the contract without an owner, thereby removing any functionality that is only available to the owner."
      },
      "transferOwnership(address)": {
        "details": "Transfers ownership of the contract to a new account (`newOwner`). Can only be called by the current owner."
      }
    },
    "version": 1
  },
  "opcodes": "PUSH1 0x80 PUSH1 0x40 MSTORE CALLVALUE DUP1 ISZERO PUSH2 0x10 JUMPI PUSH1 0x0 DUP1 REVERT JUMPDEST POP PUSH1 0x4 CALLDATASIZE LT PUSH2 0x158 JUMPI PUSH1 0x0 CALLDATALOAD PUSH1 0xE0 SHR DUP1 PUSH4 0x9E34070F GT PUSH2 0xC3 JUMPI DUP1 PUSH4 0xF2157932 GT PUSH2 0x7C JUMPI DUP1 PUSH4 0xF2157932 EQ PUSH2 0x33B JUMPI DUP1 PUSH4 0xF2FDE38B EQ PUSH2 0x343 JUMPI DUP1 PUSH4 0xF51ACE70 EQ PUSH2 0x369 JUMPI DUP1 PUSH4 0xF9F1F302 EQ PUSH2 0x371 JUMPI DUP1 PUSH4 0xFC0C546A EQ PUSH2 0x379 JUMPI DUP1 PUSH4 0xFD967F47 EQ PUSH2 0x381 JUMPI PUSH2 0x158 JUMP JUMPDEST DUP1 PUSH4 0x9E34070F EQ PUSH2 0x2E2 JUMPI DUP1 PUSH4 0x9F2E7B19 EQ PUSH2 0x313 JUMPI DUP1 PUSH4 0xA06DB7DC EQ PUSH2 0x31B JUMPI DUP1 PUSH4 0xB97DD9E2 EQ PUSH2 0x323 JUMPI DUP1 PUSH4 0xBE084C77 EQ PUSH2 0x32B JUMPI DUP1 PUSH4 0xE58E230A EQ PUSH2 0x333 JUMPI PUSH2 0x158 JUMP JUMPDEST DUP1 PUSH4 0x65C5F94A GT PUSH2 0x115 JUMPI DUP1 PUSH4 0x65C5F94A EQ PUSH2 0x296 JUMPI DUP1 PUSH4 0x715018A6 EQ PUSH2 0x29E JUMPI DUP1 PUSH4 0x829EB92C EQ PUSH2 0x2A6 JUMPI DUP1 PUSH4 0x8D0F7E11 EQ PUSH2 0x2AE JUMPI DUP1 PUSH4 0x8DA5CB5B EQ PUSH2 0x2B6 JUMPI DUP1 PUSH4 0x96D857C5 EQ PUSH2 0x2DA JUMPI PUSH2 0x158 JUMP JUMPDEST DUP1 PUSH4 0x2E7BA6EF EQ PUSH2 0x15D JUMPI DUP1 PUSH4 0x2EB4A7AB EQ PUSH2 0x1EB JUMPI DUP1 PUSH4 0x3A98D88E EQ PUSH2 0x205 JUMPI DUP1 PUSH4 0x4FF0876A EQ PUSH2 0x20D JUMPI DUP1 PUSH4 0x5A857E58 EQ PUSH2 0x215 JUMPI DUP1 PUSH4 0x601839AE EQ PUSH2 0x26A JUMPI JUMPDEST PUSH1 0x0 DUP1 REVERT JUMPDEST PUSH2 0x1E9 PUSH1 0x4 DUP1 CALLDATASIZE SUB PUSH1 0x80 DUP2 LT ISZERO PUSH2 0x173 JUMPI PUSH1 0x0 DUP1 REVERT JUMPDEST DUP2 CALLDATALOAD SWAP2 PUSH1 0x1 PUSH1 0x1 PUSH1 0xA0 SHL SUB PUSH1 0x20 DUP3 ADD CALLDATALOAD AND SWAP2 PUSH1 0x40 DUP3 ADD CALLDATALOAD SWAP2 SWAP1 DUP2 ADD SWAP1 PUSH1 0x80 DUP2 ADD PUSH1 0x60 DUP3 ADD CALLDATALOAD PUSH5 0x100000000 DUP2 GT ISZERO PUSH2 0x1AA JUMPI PUSH1 0x0 DUP1 REVERT JUMPDEST DUP3 ADD DUP4 PUSH1 0x20 DUP3 ADD GT ISZERO PUSH2 0x1BC JUMPI PUSH1 0x0 DUP1 REVERT JUMPDEST DUP1 CALLDATALOAD SWAP1 PUSH1 0x20 ADD SWAP2 DUP5 PUSH1 0x20 DUP4 MUL DUP5 ADD GT PUSH5 0x100000000 DUP4 GT OR ISZERO PUSH2 0x1DE JUMPI PUSH1 0x0 DUP1 REVERT JUMPDEST POP SWAP1 SWAP3 POP SWAP1 POP PUSH2 0x389 JUMP JUMPDEST STOP JUMPDEST PUSH2 0x1F3 PUSH2 0x721 JUMP JUMPDEST PUSH1 0x40 DUP1 MLOAD SWAP2 DUP3 MSTORE MLOAD SWAP1 DUP2 SWAP1 SUB PUSH1 0x20 ADD SWAP1 RETURN JUMPDEST PUSH2 0x1F3 PUSH2 0x727 JUMP JUMPDEST PUSH2 0x1F3 PUSH2 0x72D JUMP JUMPDEST PUSH2 0x1E9 PUSH1 0x4 DUP1 CALLDATASIZE SUB PUSH2 0x100 DUP2 LT ISZERO PUSH2 0x22C JUMPI PUSH1 0x0 DUP1 REVERT JUMPDEST POP PUSH1 0x1 PUSH1 0x1 PUSH1 0xA0 SHL SUB DUP2 CALLDATALOAD DUP2 AND SWAP2 PUSH1 0x20 DUP2 ADD CALLDATALOAD SWAP2 PUSH1 0x40 DUP3 ADD CALLDATALOAD SWAP2 PUSH1 0x60 DUP2 ADD CALLDATALOAD SWAP2 PUSH1 0x80 DUP3 ADD CALLDATALOAD SWAP2 PUSH1 0xA0 DUP2 ADD CALLDATALOAD SWAP2 PUSH1 0xC0 DUP3 ADD CALLDATALOAD DUP2 AND SWAP2 PUSH1 0xE0 ADD CALLDATALOAD AND PUSH2 0x733 JUMP JUMPDEST PUSH2 0x1E9 PUSH1 0x4 DUP1 CALLDATASIZE SUB PUSH1 0x40 DUP2 LT ISZERO PUSH2 0x280 JUMPI PUSH1 0x0 DUP1 REVERT JUMPDEST POP PUSH1 0x1 PUSH1 0x1 PUSH1 0xA0 SHL SUB DUP2 CALLDATALOAD AND SWAP1 PUSH1 0x20 ADD CALLDATALOAD PUSH2 0x840 JUMP JUMPDEST PUSH2 0x1F3 PUSH2 0x90B JUMP JUMPDEST PUSH2 0x1E9 PUSH2 0x979 JUMP JUMPDEST PUSH2 0x1F3 PUSH2 0xA2D JUMP JUMPDEST PUSH2 0x1F3 PUSH2 0xA33 JUMP JUMPDEST PUSH2 0x2BE PUSH2 0xA92 JUMP JUMPDEST PUSH1 0x40 DUP1 MLOAD PUSH1 0x1 PUSH1 0x1 PUSH1 0xA0 SHL SUB SWAP1 SWAP3 AND DUP3 MSTORE MLOAD SWAP1 DUP2 SWAP1 SUB PUSH1 0x20 ADD SWAP1 RETURN JUMPDEST PUSH2 0x1F3 PUSH2 0xAA1 JUMP JUMPDEST PUSH2 0x2FF PUSH1 0x4 DUP1 CALLDATASIZE SUB PUSH1 0x20 DUP2 LT ISZERO PUSH2 0x2F8 JUMPI PUSH1 0x0 DUP1 REVERT JUMPDEST POP CALLDATALOAD PUSH2 0xAA7 JUMP JUMPDEST PUSH1 0x40 DUP1 MLOAD SWAP2 ISZERO ISZERO DUP3 MSTORE MLOAD SWAP1 DUP2 SWAP1 SUB PUSH1 0x20 ADD SWAP1 RETURN JUMPDEST PUSH2 0x1F3 PUSH2 0xACD JUMP JUMPDEST PUSH2 0x1F3 PUSH2 0xAD3 JUMP JUMPDEST PUSH2 0x1F3 PUSH2 0xAD9 JUMP JUMPDEST PUSH2 0x1F3 PUSH2 0xB33 JUMP JUMPDEST PUSH2 0x1F3 PUSH2 0xB3E JUMP JUMPDEST PUSH2 0x2BE PUSH2 0xB5C JUMP JUMPDEST PUSH2 0x1E9 PUSH1 0x4 DUP1 CALLDATASIZE SUB PUSH1 0x20 DUP2 LT ISZERO PUSH2 0x359 JUMPI PUSH1 0x0 DUP1 REVERT JUMPDEST POP CALLDATALOAD PUSH1 0x1 PUSH1 0x1 PUSH1 0xA0 SHL SUB AND PUSH2 0xB6B JUMP JUMPDEST PUSH2 0x1F3 PUSH2 0xC76 JUMP JUMPDEST PUSH2 0x1E9 PUSH2 0xC7C JUMP JUMPDEST PUSH2 0x2BE PUSH2 0xE5E JUMP JUMPDEST PUSH2 0x1F3 PUSH2 0xE73 JUMP JUMPDEST PUSH1 0x1 PUSH1 0x1 PUSH1 0xA0 SHL SUB DUP5 AND CALLER EQ PUSH2 0x3D0 JUMPI PUSH1 0x40 MLOAD PUSH3 0x461BCD PUSH1 0xE5 SHL DUP2 MSTORE PUSH1 0x4 ADD DUP1 DUP1 PUSH1 0x20 ADD DUP3 DUP2 SUB DUP3 MSTORE PUSH1 0x32 DUP2 MSTORE PUSH1 0x20 ADD DUP1 PUSH2 0x13FC PUSH1 0x32 SWAP2 CODECOPY PUSH1 0x40 ADD SWAP2 POP POP PUSH1 0x40 MLOAD DUP1 SWAP2 SUB SWAP1 REVERT JUMPDEST PUSH2 0x3D9 DUP6 PUSH2 0xAA7 JUMP JUMPDEST ISZERO PUSH2 0x415 JUMPI PUSH1 0x40 MLOAD PUSH3 0x461BCD PUSH1 0xE5 SHL DUP2 MSTORE PUSH1 0x4 ADD DUP1 DUP1 PUSH1 0x20 ADD DUP3 DUP2 SUB DUP3 MSTORE PUSH1 0x28 DUP2 MSTORE PUSH1 0x20 ADD DUP1 PUSH2 0x1475 PUSH1 0x28 SWAP2 CODECOPY PUSH1 0x40 ADD SWAP2 POP POP PUSH1 0x40 MLOAD DUP1 SWAP2 SUB SWAP1 REVERT JUMPDEST PUSH1 0x0 DUP6 DUP6 DUP6 PUSH1 0x40 MLOAD PUSH1 0x20 ADD DUP1 DUP5 DUP2 MSTORE PUSH1 0x20 ADD DUP4 PUSH1 0x1 PUSH1 0x1 PUSH1 0xA0 SHL SUB AND PUSH1 0x60 SHL DUP2 MSTORE PUSH1 0x14 ADD DUP3 DUP2 MSTORE PUSH1 0x20 ADD SWAP4 POP POP POP POP PUSH1 0x40 MLOAD PUSH1 0x20 DUP2 DUP4 SUB SUB DUP2 MSTORE SWAP1 PUSH1 0x40 MSTORE DUP1 MLOAD SWAP1 PUSH1 0x20 ADD KECCAK256 SWAP1 POP PUSH2 0x49D DUP4 DUP4 DUP1 DUP1 PUSH1 0x20 MUL PUSH1 0x20 ADD PUSH1 0x40 MLOAD SWAP1 DUP2 ADD PUSH1 0x40 MSTORE DUP1 SWAP4 SWAP3 SWAP2 SWAP1 DUP2 DUP2 MSTORE PUSH1 0x20 ADD DUP4 DUP4 PUSH1 0x20 MUL DUP1 DUP3 DUP5 CALLDATACOPY PUSH1 0x0 SWAP3 ADD SWAP2 SWAP1 SWAP2 MSTORE POP POP PUSH1 0x1 SLOAD SWAP2 POP DUP5 SWAP1 POP PUSH2 0xE79 JUMP JUMPDEST PUSH2 0x4D8 JUMPI PUSH1 0x40 MLOAD PUSH3 0x461BCD PUSH1 0xE5 SHL DUP2 MSTORE PUSH1 0x4 ADD DUP1 DUP1 PUSH1 0x20 ADD DUP3 DUP2 SUB DUP3 MSTORE PUSH1 0x21 DUP2 MSTORE PUSH1 0x20 ADD DUP1 PUSH2 0x1454 PUSH1 0x21 SWAP2 CODECOPY PUSH1 0x40 ADD SWAP2 POP POP PUSH1 0x40 MLOAD DUP1 SWAP2 SUB SWAP1 REVERT JUMPDEST PUSH2 0x4E1 DUP7 PUSH2 0xF22 JUMP JUMPDEST PUSH1 0x0 PUSH2 0x501 PUSH2 0x2710 PUSH2 0x4FB PUSH2 0x4F4 PUSH2 0xB33 JUMP JUMPDEST DUP9 SWAP1 PUSH2 0xF49 JUMP JUMPDEST SWAP1 PUSH2 0xFAB JUMP JUMPDEST SWAP1 POP PUSH1 0x0 PUSH1 0x2 SWAP1 SLOAD SWAP1 PUSH2 0x100 EXP SWAP1 DIV PUSH1 0x1 PUSH1 0x1 PUSH1 0xA0 SHL SUB AND PUSH1 0x1 PUSH1 0x1 PUSH1 0xA0 SHL SUB AND PUSH4 0xA9059CBB DUP8 DUP4 PUSH1 0x40 MLOAD DUP4 PUSH4 0xFFFFFFFF AND PUSH1 0xE0 SHL DUP2 MSTORE PUSH1 0x4 ADD DUP1 DUP4 PUSH1 0x1 PUSH1 0x1 PUSH1 0xA0 SHL SUB AND DUP2 MSTORE PUSH1 0x20 ADD DUP3 DUP2 MSTORE PUSH1 0x20 ADD SWAP3 POP POP POP PUSH1 0x20 PUSH1 0x40 MLOAD DUP1 DUP4 SUB DUP2 PUSH1 0x0 DUP8 DUP1 EXTCODESIZE ISZERO DUP1 ISZERO PUSH2 0x56F JUMPI PUSH1 0x0 DUP1 REVERT JUMPDEST POP GAS CALL ISZERO DUP1 ISZERO PUSH2 0x583 JUMPI RETURNDATASIZE PUSH1 0x0 DUP1 RETURNDATACOPY RETURNDATASIZE PUSH1 0x0 REVERT JUMPDEST POP POP POP POP PUSH1 0x40 MLOAD RETURNDATASIZE PUSH1 0x20 DUP2 LT ISZERO PUSH2 0x599 JUMPI PUSH1 0x0 DUP1 REVERT JUMPDEST POP MLOAD PUSH2 0x5EC JUMPI PUSH1 0x40 DUP1 MLOAD PUSH3 0x461BCD PUSH1 0xE5 SHL DUP2 MSTORE PUSH1 0x20 PUSH1 0x4 DUP3 ADD MSTORE PUSH1 0x18 PUSH1 0x24 DUP3 ADD MSTORE PUSH32 0x5472616E7366657220746F2075736572206661696C65642E0000000000000000 PUSH1 0x44 DUP3 ADD MSTORE SWAP1 MLOAD SWAP1 DUP2 SWAP1 SUB PUSH1 0x64 ADD SWAP1 REVERT JUMPDEST DUP5 DUP2 EQ PUSH2 0x6BB JUMPI PUSH1 0x0 DUP1 SLOAD PUSH1 0x6D SLOAD PUSH1 0x40 DUP1 MLOAD PUSH4 0xA9059CBB PUSH1 0xE0 SHL DUP2 MSTORE PUSH1 0x1 PUSH1 0x1 PUSH1 0xA0 SHL SUB SWAP3 DUP4 AND PUSH1 0x4 DUP3 ADD MSTORE PUSH1 0x24 DUP2 ADD DUP7 SWAP1 MSTORE SWAP1 MLOAD PUSH3 0x10000 SWAP1 SWAP4 DIV SWAP1 SWAP2 AND SWAP3 PUSH4 0xA9059CBB SWAP3 PUSH1 0x44 DUP1 DUP5 ADD SWAP4 PUSH1 0x20 SWAP4 SWAP1 DUP4 SWAP1 SUB SWAP1 SWAP2 ADD SWAP1 DUP3 SWAP1 DUP8 DUP1 EXTCODESIZE ISZERO DUP1 ISZERO PUSH2 0x654 JUMPI PUSH1 0x0 DUP1 REVERT JUMPDEST POP GAS CALL ISZERO DUP1 ISZERO PUSH2 0x668 JUMPI RETURNDATASIZE PUSH1 0x0 DUP1 RETURNDATACOPY RETURNDATASIZE PUSH1 0x0 REVERT JUMPDEST POP POP POP POP PUSH1 0x40 MLOAD RETURNDATASIZE PUSH1 0x20 DUP2 LT ISZERO PUSH2 0x67E JUMPI PUSH1 0x0 DUP1 REVERT JUMPDEST POP MLOAD PUSH2 0x6BB JUMPI PUSH1 0x40 MLOAD PUSH3 0x461BCD PUSH1 0xE5 SHL DUP2 MSTORE PUSH1 0x4 ADD DUP1 DUP1 PUSH1 0x20 ADD DUP3 DUP2 SUB DUP3 MSTORE PUSH1 0x21 DUP2 MSTORE PUSH1 0x20 ADD DUP1 PUSH2 0x13DB PUSH1 0x21 SWAP2 CODECOPY PUSH1 0x40 ADD SWAP2 POP POP PUSH1 0x40 MLOAD DUP1 SWAP2 SUB SWAP1 REVERT JUMPDEST PUSH1 0x1 PUSH1 0x1 PUSH1 0xA0 SHL SUB DUP7 AND PUSH32 0x8EAF15614908A4E9022141FE4A596B1AB0CB72AB32B25023E3DA2A459C9A335C DUP9 DUP8 DUP5 PUSH2 0x6F3 DUP3 DUP3 PUSH2 0xFED JUMP JUMPDEST PUSH1 0x40 DUP1 MLOAD SWAP5 DUP6 MSTORE PUSH1 0x20 DUP6 ADD SWAP4 SWAP1 SWAP4 MSTORE DUP4 DUP4 ADD SWAP2 SWAP1 SWAP2 MSTORE PUSH1 0x60 DUP4 ADD MSTORE MLOAD SWAP1 DUP2 SWAP1 SUB PUSH1 0x80 ADD SWAP1 LOG2 POP POP POP POP POP POP POP JUMP JUMPDEST PUSH1 0x1 SLOAD DUP2 JUMP JUMPDEST PUSH1 0x6C SLOAD DUP2 JUMP JUMPDEST PUSH1 0x69 SLOAD DUP2 JUMP JUMPDEST PUSH1 0x0 SLOAD PUSH2 0x100 SWAP1 DIV PUSH1 0xFF AND DUP1 PUSH2 0x74C JUMPI POP PUSH2 0x74C PUSH2 0x102F JUMP JUMPDEST DUP1 PUSH2 0x75A JUMPI POP PUSH1 0x0 SLOAD PUSH1 0xFF AND ISZERO JUMPDEST PUSH2 0x795 JUMPI PUSH1 0x40 MLOAD PUSH3 0x461BCD PUSH1 0xE5 SHL DUP2 MSTORE PUSH1 0x4 ADD DUP1 DUP1 PUSH1 0x20 ADD DUP3 DUP2 SUB DUP3 MSTORE PUSH1 0x2E DUP2 MSTORE PUSH1 0x20 ADD DUP1 PUSH2 0x149D PUSH1 0x2E SWAP2 CODECOPY PUSH1 0x40 ADD SWAP2 POP POP PUSH1 0x40 MLOAD DUP1 SWAP2 SUB SWAP1 REVERT JUMPDEST PUSH1 0x0 SLOAD PUSH2 0x100 SWAP1 DIV PUSH1 0xFF AND ISZERO DUP1 ISZERO PUSH2 0x7C0 JUMPI PUSH1 0x0 DUP1 SLOAD PUSH1 0xFF NOT PUSH2 0xFF00 NOT SWAP1 SWAP2 AND PUSH2 0x100 OR AND PUSH1 0x1 OR SWAP1 SSTORE JUMPDEST PUSH2 0x7CA DUP10 DUP10 PUSH2 0x840 JUMP JUMPDEST PUSH2 0x7D2 PUSH2 0x1035 JUMP JUMPDEST PUSH2 0x7DB DUP3 PUSH2 0xB6B JUMP JUMPDEST PUSH1 0x69 DUP8 SWAP1 SSTORE PUSH1 0x6A DUP7 SWAP1 SSTORE PUSH1 0x67 DUP6 SWAP1 SSTORE PUSH1 0x68 DUP5 SWAP1 SSTORE PUSH1 0x6D DUP1 SLOAD PUSH1 0x1 PUSH1 0x1 PUSH1 0xA0 SHL SUB NOT AND PUSH1 0x1 PUSH1 0x1 PUSH1 0xA0 SHL SUB DUP6 AND OR SWAP1 SSTORE PUSH2 0x2710 PUSH1 0x6B DUP2 SWAP1 SSTORE PUSH1 0x1 SWAP1 DUP8 SWAP1 DUP2 PUSH2 0x81E JUMPI INVALID JUMPDEST DIV SUB PUSH1 0x6C SSTORE DUP1 ISZERO PUSH2 0x835 JUMPI PUSH1 0x0 DUP1 SLOAD PUSH2 0xFF00 NOT AND SWAP1 SSTORE JUMPDEST POP POP POP POP POP POP POP POP POP JUMP JUMPDEST PUSH1 0x0 SLOAD PUSH2 0x100 SWAP1 DIV PUSH1 0xFF AND DUP1 PUSH2 0x859 JUMPI POP PUSH2 0x859 PUSH2 0x102F JUMP JUMPDEST DUP1 PUSH2 0x867 JUMPI POP PUSH1 0x0 SLOAD PUSH1 0xFF AND ISZERO JUMPDEST PUSH2 0x8A2 JUMPI PUSH1 0x40 MLOAD PUSH3 0x461BCD PUSH1 0xE5 SHL DUP2 MSTORE PUSH1 0x4 ADD DUP1 DUP1 PUSH1 0x20 ADD DUP3 DUP2 SUB DUP3 MSTORE PUSH1 0x2E DUP2 MSTORE PUSH1 0x20 ADD DUP1 PUSH2 0x149D PUSH1 0x2E SWAP2 CODECOPY PUSH1 0x40 ADD SWAP2 POP POP PUSH1 0x40 MLOAD DUP1 SWAP2 SUB SWAP1 REVERT JUMPDEST PUSH1 0x0 SLOAD PUSH2 0x100 SWAP1 DIV PUSH1 0xFF AND ISZERO DUP1 ISZERO PUSH2 0x8CD JUMPI PUSH1 0x0 DUP1 SLOAD PUSH1 0xFF NOT PUSH2 0xFF00 NOT SWAP1 SWAP2 AND PUSH2 0x100 OR AND PUSH1 0x1 OR SWAP1 SSTORE JUMPDEST PUSH1 0x0 DUP1 SLOAD PUSH3 0x10000 PUSH1 0x1 PUSH1 0xB0 SHL SUB NOT AND PUSH3 0x10000 PUSH1 0x1 PUSH1 0x1 PUSH1 0xA0 SHL SUB DUP7 AND MUL OR SWAP1 SSTORE PUSH1 0x1 DUP3 SWAP1 SSTORE DUP1 ISZERO PUSH2 0x906 JUMPI PUSH1 0x0 DUP1 SLOAD PUSH2 0xFF00 NOT AND SWAP1 SSTORE JUMPDEST POP POP POP JUMP JUMPDEST PUSH1 0x0 DUP1 PUSH2 0x925 PUSH1 0x68 SLOAD PUSH1 0x67 SLOAD PUSH2 0x10E7 SWAP1 SWAP2 SWAP1 PUSH4 0xFFFFFFFF AND JUMP JUMPDEST SWAP1 POP PUSH1 0x0 PUSH2 0x931 PUSH2 0xAD9 JUMP JUMPDEST SWAP1 POP DUP1 PUSH2 0x950 JUMPI PUSH1 0x68 SLOAD PUSH1 0x67 SLOAD PUSH2 0x947 SWAP2 PUSH2 0x10E7 JUMP JUMPDEST SWAP3 POP POP POP PUSH2 0x976 JUMP JUMPDEST PUSH1 0x69 SLOAD PUSH2 0x947 SWAP1 PUSH2 0x961 SWAP1 DUP4 PUSH2 0xF49 JUMP JUMPDEST PUSH1 0x68 SLOAD PUSH1 0x67 SLOAD PUSH2 0x970 SWAP2 PUSH2 0x10E7 JUMP JUMPDEST SWAP1 PUSH2 0x10E7 JUMP JUMPDEST SWAP1 JUMP JUMPDEST PUSH2 0x981 PUSH2 0x1141 JUMP JUMPDEST PUSH1 0x35 SLOAD PUSH1 0x1 PUSH1 0x1 PUSH1 0xA0 SHL SUB SWAP1 DUP2 AND SWAP2 AND EQ PUSH2 0x9E3 JUMPI PUSH1 0x40 DUP1 MLOAD PUSH3 0x461BCD PUSH1 0xE5 SHL DUP2 MSTORE PUSH1 0x20 PUSH1 0x4 DUP3 ADD DUP2 SWAP1 MSTORE PUSH1 0x24 DUP3 ADD MSTORE PUSH32 0x4F776E61626C653A2063616C6C6572206973206E6F7420746865206F776E6572 PUSH1 0x44 DUP3 ADD MSTORE SWAP1 MLOAD SWAP1 DUP2 SWAP1 SUB PUSH1 0x64 ADD SWAP1 REVERT JUMPDEST PUSH1 0x35 SLOAD PUSH1 0x40 MLOAD PUSH1 0x0 SWAP2 PUSH1 0x1 PUSH1 0x1 PUSH1 0xA0 SHL SUB AND SWAP1 PUSH32 0x8BE0079C531659141344CD1FD0A4F28419497F9722A3DAAFE3B4186F6B6457E0 SWAP1 DUP4 SWAP1 LOG3 PUSH1 0x35 DUP1 SLOAD PUSH1 0x1 PUSH1 0x1 PUSH1 0xA0 SHL SUB NOT AND SWAP1 SSTORE JUMP JUMPDEST PUSH1 0x67 SLOAD DUP2 JUMP JUMPDEST PUSH1 0x0 DUP1 PUSH2 0xA43 PUSH1 0x1 PUSH2 0x970 PUSH2 0xAD9 JUMP JUMPDEST SWAP1 POP DUP1 PUSH2 0xA55 JUMPI PUSH2 0x2710 SWAP2 POP POP PUSH2 0x976 JUMP JUMPDEST PUSH1 0x6C SLOAD DUP2 GT ISZERO PUSH2 0xA69 JUMPI PUSH1 0x0 SWAP2 POP POP PUSH2 0x976 JUMP JUMPDEST PUSH2 0xA8A PUSH2 0xA81 PUSH1 0x6A SLOAD DUP4 PUSH2 0xF49 SWAP1 SWAP2 SWAP1 PUSH4 0xFFFFFFFF AND JUMP JUMPDEST PUSH2 0x2710 SWAP1 PUSH2 0xFED JUMP JUMPDEST SWAP2 POP POP PUSH2 0x976 JUMP JUMPDEST PUSH1 0x35 SLOAD PUSH1 0x1 PUSH1 0x1 PUSH1 0xA0 SHL SUB AND SWAP1 JUMP JUMPDEST PUSH1 0x67 SLOAD SWAP1 JUMP JUMPDEST PUSH2 0x100 DUP2 DIV PUSH1 0x0 SWAP1 DUP2 MSTORE PUSH1 0x2 PUSH1 0x20 MSTORE PUSH1 0x40 SWAP1 KECCAK256 SLOAD PUSH1 0x1 PUSH1 0xFF SWAP1 SWAP3 AND SWAP2 SWAP1 SWAP2 SHL SWAP1 DUP2 AND EQ SWAP1 JUMP JUMPDEST PUSH1 0x6A SLOAD DUP2 JUMP JUMPDEST PUSH1 0x68 SLOAD DUP2 JUMP JUMPDEST PUSH1 0x0 DUP1 PUSH2 0xAF3 PUSH1 0x68 SLOAD PUSH1 0x67 SLOAD PUSH2 0x10E7 SWAP1 SWAP2 SWAP1 PUSH4 0xFFFFFFFF AND JUMP JUMPDEST SWAP1 POP DUP1 TIMESTAMP LT ISZERO PUSH2 0xB07 JUMPI PUSH1 0x0 SWAP2 POP POP PUSH2 0x976 JUMP JUMPDEST PUSH1 0x0 PUSH2 0xB13 TIMESTAMP DUP4 PUSH2 0xFED JUMP JUMPDEST SWAP1 POP PUSH2 0xB2C PUSH1 0x1 PUSH1 0x69 SLOAD DUP4 DUP2 PUSH2 0xB25 JUMPI INVALID JUMPDEST DIV SWAP1 PUSH2 0x10E7 JUMP JUMPDEST SWAP3 POP POP POP SWAP1 JUMP JUMPDEST PUSH1 0x0 DUP1 PUSH2 0xA43 PUSH2 0xAD9 JUMP JUMPDEST PUSH1 0x0 PUSH2 0xB57 PUSH1 0x68 SLOAD PUSH1 0x67 SLOAD PUSH2 0x10E7 SWAP1 SWAP2 SWAP1 PUSH4 0xFFFFFFFF AND JUMP JUMPDEST SWAP1 POP SWAP1 JUMP JUMPDEST PUSH1 0x6D SLOAD PUSH1 0x1 PUSH1 0x1 PUSH1 0xA0 SHL SUB AND DUP2 JUMP JUMPDEST PUSH2 0xB73 PUSH2 0x1141 JUMP JUMPDEST PUSH1 0x35 SLOAD PUSH1 0x1 PUSH1 0x1 PUSH1 0xA0 SHL SUB SWAP1 DUP2 AND SWAP2 AND EQ PUSH2 0xBD5 JUMPI PUSH1 0x40 DUP1 MLOAD PUSH3 0x461BCD PUSH1 0xE5 SHL DUP2 MSTORE PUSH1 0x20 PUSH1 0x4 DUP3 ADD DUP2 SWAP1 MSTORE PUSH1 0x24 DUP3 ADD MSTORE PUSH32 0x4F776E61626C653A2063616C6C6572206973206E6F7420746865206F776E6572 PUSH1 0x44 DUP3 ADD MSTORE SWAP1 MLOAD SWAP1 DUP2 SWAP1 SUB PUSH1 0x64 ADD SWAP1 REVERT JUMPDEST PUSH1 0x1 PUSH1 0x1 PUSH1 0xA0 SHL SUB DUP2 AND PUSH2 0xC1A JUMPI PUSH1 0x40 MLOAD PUSH3 0x461BCD PUSH1 0xE5 SHL DUP2 MSTORE PUSH1 0x4 ADD DUP1 DUP1 PUSH1 0x20 ADD DUP3 DUP2 SUB DUP3 MSTORE PUSH1 0x26 DUP2 MSTORE PUSH1 0x20 ADD DUP1 PUSH2 0x142E PUSH1 0x26 SWAP2 CODECOPY PUSH1 0x40 ADD SWAP2 POP POP PUSH1 0x40 MLOAD DUP1 SWAP2 SUB SWAP1 REVERT JUMPDEST PUSH1 0x35 SLOAD PUSH1 0x40 MLOAD PUSH1 0x1 PUSH1 0x1 PUSH1 0xA0 SHL SUB DUP1 DUP5 AND SWAP3 AND SWAP1 PUSH32 0x8BE0079C531659141344CD1FD0A4F28419497F9722A3DAAFE3B4186F6B6457E0 SWAP1 PUSH1 0x0 SWAP1 LOG3 PUSH1 0x35 DUP1 SLOAD PUSH1 0x1 PUSH1 0x1 PUSH1 0xA0 SHL SUB NOT AND PUSH1 0x1 PUSH1 0x1 PUSH1 0xA0 SHL SUB SWAP3 SWAP1 SWAP3 AND SWAP2 SWAP1 SWAP2 OR SWAP1 SSTORE JUMP JUMPDEST PUSH1 0x6B SLOAD DUP2 JUMP JUMPDEST PUSH2 0xC84 PUSH2 0x1141 JUMP JUMPDEST PUSH1 0x35 SLOAD PUSH1 0x1 PUSH1 0x1 PUSH1 0xA0 SHL SUB SWAP1 DUP2 AND SWAP2 AND EQ PUSH2 0xCE6 JUMPI PUSH1 0x40 DUP1 MLOAD PUSH3 0x461BCD PUSH1 0xE5 SHL DUP2 MSTORE PUSH1 0x20 PUSH1 0x4 DUP3 ADD DUP2 SWAP1 MSTORE PUSH1 0x24 DUP3 ADD MSTORE PUSH32 0x4F776E61626C653A2063616C6C6572206973206E6F7420746865206F776E6572 PUSH1 0x44 DUP3 ADD MSTORE SWAP1 MLOAD SWAP1 DUP2 SWAP1 SUB PUSH1 0x64 ADD SWAP1 REVERT JUMPDEST PUSH2 0xCEE PUSH2 0xB33 JUMP JUMPDEST ISZERO DUP1 ISZERO PUSH2 0xD03 JUMPI POP PUSH1 0x6C SLOAD PUSH2 0xD01 PUSH2 0xAD9 JUMP JUMPDEST GT JUMPDEST PUSH2 0xD54 JUMPI PUSH1 0x40 DUP1 MLOAD PUSH3 0x461BCD PUSH1 0xE5 SHL DUP2 MSTORE PUSH1 0x20 PUSH1 0x4 DUP3 ADD MSTORE PUSH1 0x18 PUSH1 0x24 DUP3 ADD MSTORE PUSH32 0x48756E7420706572696F64206E6F742066696E69736865640000000000000000 PUSH1 0x44 DUP3 ADD MSTORE SWAP1 MLOAD SWAP1 DUP2 SWAP1 SUB PUSH1 0x64 ADD SWAP1 REVERT JUMPDEST PUSH1 0x0 DUP1 SLOAD PUSH1 0x40 DUP1 MLOAD PUSH4 0x70A08231 PUSH1 0xE0 SHL DUP2 MSTORE ADDRESS PUSH1 0x4 DUP3 ADD MSTORE SWAP1 MLOAD PUSH3 0x10000 SWAP1 SWAP3 DIV PUSH1 0x1 PUSH1 0x1 PUSH1 0xA0 SHL SUB AND SWAP2 PUSH4 0x70A08231 SWAP2 PUSH1 0x24 DUP1 DUP3 ADD SWAP3 PUSH1 0x20 SWAP3 SWAP1 SWAP2 SWAP1 DUP3 SWAP1 SUB ADD DUP2 DUP7 DUP1 EXTCODESIZE ISZERO DUP1 ISZERO PUSH2 0xDA5 JUMPI PUSH1 0x0 DUP1 REVERT JUMPDEST POP GAS STATICCALL ISZERO DUP1 ISZERO PUSH2 0xDB9 JUMPI RETURNDATASIZE PUSH1 0x0 DUP1 RETURNDATACOPY RETURNDATASIZE PUSH1 0x0 REVERT JUMPDEST POP POP POP POP PUSH1 0x40 MLOAD RETURNDATASIZE PUSH1 0x20 DUP2 LT ISZERO PUSH2 0xDCF JUMPI PUSH1 0x0 DUP1 REVERT JUMPDEST POP MLOAD PUSH1 0x0 DUP1 SLOAD PUSH1 0x6D SLOAD PUSH1 0x40 DUP1 MLOAD PUSH4 0xA9059CBB PUSH1 0xE0 SHL DUP2 MSTORE PUSH1 0x1 PUSH1 0x1 PUSH1 0xA0 SHL SUB SWAP3 DUP4 AND PUSH1 0x4 DUP3 ADD MSTORE PUSH1 0x24 DUP2 ADD DUP7 SWAP1 MSTORE SWAP1 MLOAD SWAP5 SWAP6 POP PUSH3 0x10000 SWAP1 SWAP3 DIV AND SWAP3 PUSH4 0xA9059CBB SWAP3 PUSH1 0x44 DUP1 DUP5 ADD SWAP4 PUSH1 0x20 SWAP4 SWAP3 SWAP1 DUP4 SWAP1 SUB SWAP1 SWAP2 ADD SWAP1 DUP3 SWAP1 DUP8 DUP1 EXTCODESIZE ISZERO DUP1 ISZERO PUSH2 0xE34 JUMPI PUSH1 0x0 DUP1 REVERT JUMPDEST POP GAS CALL ISZERO DUP1 ISZERO PUSH2 0xE48 JUMPI RETURNDATASIZE PUSH1 0x0 DUP1 RETURNDATACOPY RETURNDATASIZE PUSH1 0x0 REVERT JUMPDEST POP POP POP POP PUSH1 0x40 MLOAD RETURNDATASIZE PUSH1 0x20 DUP2 LT ISZERO PUSH2 0x906 JUMPI PUSH1 0x0 DUP1 REVERT JUMPDEST PUSH1 0x0 SLOAD PUSH3 0x10000 SWAP1 DIV PUSH1 0x1 PUSH1 0x1 PUSH1 0xA0 SHL SUB AND DUP2 JUMP JUMPDEST PUSH2 0x2710 DUP2 JUMP JUMPDEST PUSH1 0x0 DUP2 DUP2 JUMPDEST DUP6 MLOAD DUP2 LT ISZERO PUSH2 0xF17 JUMPI PUSH1 0x0 DUP7 DUP3 DUP2 MLOAD DUP2 LT PUSH2 0xE95 JUMPI INVALID JUMPDEST PUSH1 0x20 MUL PUSH1 0x20 ADD ADD MLOAD SWAP1 POP DUP1 DUP4 GT PUSH2 0xEDC JUMPI DUP3 DUP2 PUSH1 0x40 MLOAD PUSH1 0x20 ADD DUP1 DUP4 DUP2 MSTORE PUSH1 0x20 ADD DUP3 DUP2 MSTORE PUSH1 0x20 ADD SWAP3 POP POP POP PUSH1 0x40 MLOAD PUSH1 0x20 DUP2 DUP4 SUB SUB DUP2 MSTORE SWAP1 PUSH1 0x40 MSTORE DUP1 MLOAD SWAP1 PUSH1 0x20 ADD KECCAK256 SWAP3 POP PUSH2 0xF0E JUMP JUMPDEST DUP1 DUP4 PUSH1 0x40 MLOAD PUSH1 0x20 ADD DUP1 DUP4 DUP2 MSTORE PUSH1 0x20 ADD DUP3 DUP2 MSTORE PUSH1 0x20 ADD SWAP3 POP POP POP PUSH1 0x40 MLOAD PUSH1 0x20 DUP2 DUP4 SUB SUB DUP2 MSTORE SWAP1 PUSH1 0x40 MSTORE DUP1 MLOAD SWAP1 PUSH1 0x20 ADD KECCAK256 SWAP3 POP JUMPDEST POP PUSH1 0x1 ADD PUSH2 0xE7E JUMP JUMPDEST POP SWAP1 SWAP3 EQ SWAP4 SWAP3 POP POP POP JUMP JUMPDEST PUSH2 0x100 DUP2 DIV PUSH1 0x0 SWAP1 DUP2 MSTORE PUSH1 0x2 PUSH1 0x20 MSTORE PUSH1 0x40 SWAP1 KECCAK256 DUP1 SLOAD PUSH1 0x1 PUSH1 0xFF SWAP1 SWAP4 AND SWAP3 SWAP1 SWAP3 SHL SWAP1 SWAP2 OR SWAP1 SSTORE JUMP JUMPDEST PUSH1 0x0 DUP3 PUSH2 0xF58 JUMPI POP PUSH1 0x0 PUSH2 0xFA5 JUMP JUMPDEST DUP3 DUP3 MUL DUP3 DUP5 DUP3 DUP2 PUSH2 0xF65 JUMPI INVALID JUMPDEST DIV EQ PUSH2 0xFA2 JUMPI PUSH1 0x40 MLOAD PUSH3 0x461BCD PUSH1 0xE5 SHL DUP2 MSTORE PUSH1 0x4 ADD DUP1 DUP1 PUSH1 0x20 ADD DUP3 DUP2 SUB DUP3 MSTORE PUSH1 0x21 DUP2 MSTORE PUSH1 0x20 ADD DUP1 PUSH2 0x14CB PUSH1 0x21 SWAP2 CODECOPY PUSH1 0x40 ADD SWAP2 POP POP PUSH1 0x40 MLOAD DUP1 SWAP2 SUB SWAP1 REVERT JUMPDEST SWAP1 POP JUMPDEST SWAP3 SWAP2 POP POP JUMP JUMPDEST PUSH1 0x0 PUSH2 0xFA2 DUP4 DUP4 PUSH1 0x40 MLOAD DUP1 PUSH1 0x40 ADD PUSH1 0x40 MSTORE DUP1 PUSH1 0x1A DUP2 MSTORE PUSH1 0x20 ADD PUSH32 0x536166654D6174683A206469766973696F6E206279207A65726F000000000000 DUP2 MSTORE POP PUSH2 0x1145 JUMP JUMPDEST PUSH1 0x0 PUSH2 0xFA2 DUP4 DUP4 PUSH1 0x40 MLOAD DUP1 PUSH1 0x40 ADD PUSH1 0x40 MSTORE DUP1 PUSH1 0x1E DUP2 MSTORE PUSH1 0x20 ADD PUSH32 0x536166654D6174683A207375627472616374696F6E206F766572666C6F770000 DUP2 MSTORE POP PUSH2 0x11E7 JUMP JUMPDEST ADDRESS EXTCODESIZE ISZERO SWAP1 JUMP JUMPDEST PUSH1 0x0 SLOAD PUSH2 0x100 SWAP1 DIV PUSH1 0xFF AND DUP1 PUSH2 0x104E JUMPI POP PUSH2 0x104E PUSH2 0x102F JUMP JUMPDEST DUP1 PUSH2 0x105C JUMPI POP PUSH1 0x0 SLOAD PUSH1 0xFF AND ISZERO JUMPDEST PUSH2 0x1097 JUMPI PUSH1 0x40 MLOAD PUSH3 0x461BCD PUSH1 0xE5 SHL DUP2 MSTORE PUSH1 0x4 ADD DUP1 DUP1 PUSH1 0x20 ADD DUP3 DUP2 SUB DUP3 MSTORE PUSH1 0x2E DUP2 MSTORE PUSH1 0x20 ADD DUP1 PUSH2 0x149D PUSH1 0x2E SWAP2 CODECOPY PUSH1 0x40 ADD SWAP2 POP POP PUSH1 0x40 MLOAD DUP1 SWAP2 SUB SWAP1 REVERT JUMPDEST PUSH1 0x0 SLOAD PUSH2 0x100 SWAP1 DIV PUSH1 0xFF AND ISZERO DUP1 ISZERO PUSH2 0x10C2 JUMPI PUSH1 0x0 DUP1 SLOAD PUSH1 0xFF NOT PUSH2 0xFF00 NOT SWAP1 SWAP2 AND PUSH2 0x100 OR AND PUSH1 0x1 OR SWAP1 SSTORE JUMPDEST PUSH2 0x10CA PUSH2 0x1241 JUMP JUMPDEST PUSH2 0x10D2 PUSH2 0x12E1 JUMP JUMPDEST DUP1 ISZERO PUSH2 0x10E4 JUMPI PUSH1 0x0 DUP1 SLOAD PUSH2 0xFF00 NOT AND SWAP1 SSTORE JUMPDEST POP JUMP JUMPDEST PUSH1 0x0 DUP3 DUP3 ADD DUP4 DUP2 LT ISZERO PUSH2 0xFA2 JUMPI PUSH1 0x40 DUP1 MLOAD PUSH3 0x461BCD PUSH1 0xE5 SHL DUP2 MSTORE PUSH1 0x20 PUSH1 0x4 DUP3 ADD MSTORE PUSH1 0x1B PUSH1 0x24 DUP3 ADD MSTORE PUSH32 0x536166654D6174683A206164646974696F6E206F766572666C6F770000000000 PUSH1 0x44 DUP3 ADD MSTORE SWAP1 MLOAD SWAP1 DUP2 SWAP1 SUB PUSH1 0x64 ADD SWAP1 REVERT JUMPDEST CALLER SWAP1 JUMP JUMPDEST PUSH1 0x0 DUP2 DUP4 PUSH2 0x11D1 JUMPI PUSH1 0x40 MLOAD PUSH3 0x461BCD PUSH1 0xE5 SHL DUP2 MSTORE PUSH1 0x4 ADD DUP1 DUP1 PUSH1 0x20 ADD DUP3 DUP2 SUB DUP3 MSTORE DUP4 DUP2 DUP2 MLOAD DUP2 MSTORE PUSH1 0x20 ADD SWAP2 POP DUP1 MLOAD SWAP1 PUSH1 0x20 ADD SWAP1 DUP1 DUP4 DUP4 PUSH1 0x0 JUMPDEST DUP4 DUP2 LT ISZERO PUSH2 0x1196 JUMPI DUP2 DUP2 ADD MLOAD DUP4 DUP3 ADD MSTORE PUSH1 0x20 ADD PUSH2 0x117E JUMP JUMPDEST POP POP POP POP SWAP1 POP SWAP1 DUP2 ADD SWAP1 PUSH1 0x1F AND DUP1 ISZERO PUSH2 0x11C3 JUMPI DUP1 DUP3 SUB DUP1 MLOAD PUSH1 0x1 DUP4 PUSH1 0x20 SUB PUSH2 0x100 EXP SUB NOT AND DUP2 MSTORE PUSH1 0x20 ADD SWAP2 POP JUMPDEST POP SWAP3 POP POP POP PUSH1 0x40 MLOAD DUP1 SWAP2 SUB SWAP1 REVERT JUMPDEST POP PUSH1 0x0 DUP4 DUP6 DUP2 PUSH2 0x11DD JUMPI INVALID JUMPDEST DIV SWAP6 SWAP5 POP POP POP POP POP JUMP JUMPDEST PUSH1 0x0 DUP2 DUP5 DUP5 GT ISZERO PUSH2 0x1239 JUMPI PUSH1 0x40 MLOAD PUSH3 0x461BCD PUSH1 0xE5 SHL DUP2 MSTORE PUSH1 0x20 PUSH1 0x4 DUP3 ADD DUP2 DUP2 MSTORE DUP4 MLOAD PUSH1 0x24 DUP5 ADD MSTORE DUP4 MLOAD SWAP1 SWAP3 DUP4 SWAP3 PUSH1 0x44 SWAP1 SWAP2 ADD SWAP2 SWAP1 DUP6 ADD SWAP1 DUP1 DUP4 DUP4 PUSH1 0x0 DUP4 ISZERO PUSH2 0x1196 JUMPI DUP2 DUP2 ADD MLOAD DUP4 DUP3 ADD MSTORE PUSH1 0x20 ADD PUSH2 0x117E JUMP JUMPDEST POP POP POP SWAP1 SUB SWAP1 JUMP JUMPDEST PUSH1 0x0 SLOAD PUSH2 0x100 SWAP1 DIV PUSH1 0xFF AND DUP1 PUSH2 0x125A JUMPI POP PUSH2 0x125A PUSH2 0x102F JUMP JUMPDEST DUP1 PUSH2 0x1268 JUMPI POP PUSH1 0x0 SLOAD PUSH1 0xFF AND ISZERO JUMPDEST PUSH2 0x12A3 JUMPI PUSH1 0x40 MLOAD PUSH3 0x461BCD PUSH1 0xE5 SHL DUP2 MSTORE PUSH1 0x4 ADD DUP1 DUP1 PUSH1 0x20 ADD DUP3 DUP2 SUB DUP3 MSTORE PUSH1 0x2E DUP2 MSTORE PUSH1 0x20 ADD DUP1 PUSH2 0x149D PUSH1 0x2E SWAP2 CODECOPY PUSH1 0x40 ADD SWAP2 POP POP PUSH1 0x40 MLOAD DUP1 SWAP2 SUB SWAP1 REVERT JUMPDEST PUSH1 0x0 SLOAD PUSH2 0x100 SWAP1 DIV PUSH1 0xFF AND ISZERO DUP1 ISZERO PUSH2 0x10D2 JUMPI PUSH1 0x0 DUP1 SLOAD PUSH1 0xFF NOT PUSH2 0xFF00 NOT SWAP1 SWAP2 AND PUSH2 0x100 OR AND PUSH1 0x1 OR SWAP1 SSTORE DUP1 ISZERO PUSH2 0x10E4 JUMPI PUSH1 0x0 DUP1 SLOAD PUSH2 0xFF00 NOT AND SWAP1 SSTORE POP JUMP JUMPDEST PUSH1 0x0 SLOAD PUSH2 0x100 SWAP1 DIV PUSH1 0xFF AND DUP1 PUSH2 0x12FA JUMPI POP PUSH2 0x12FA PUSH2 0x102F JUMP JUMPDEST DUP1 PUSH2 0x1308 JUMPI POP PUSH1 0x0 SLOAD PUSH1 0xFF AND ISZERO JUMPDEST PUSH2 0x1343 JUMPI PUSH1 0x40 MLOAD PUSH3 0x461BCD PUSH1 0xE5 SHL DUP2 MSTORE PUSH1 0x4 ADD DUP1 DUP1 PUSH1 0x20 ADD DUP3 DUP2 SUB DUP3 MSTORE PUSH1 0x2E DUP2 MSTORE PUSH1 0x20 ADD DUP1 PUSH2 0x149D PUSH1 0x2E SWAP2 CODECOPY PUSH1 0x40 ADD SWAP2 POP POP PUSH1 0x40 MLOAD DUP1 SWAP2 SUB SWAP1 REVERT JUMPDEST PUSH1 0x0 SLOAD PUSH2 0x100 SWAP1 DIV PUSH1 0xFF AND ISZERO DUP1 ISZERO PUSH2 0x136E JUMPI PUSH1 0x0 DUP1 SLOAD PUSH1 0xFF NOT PUSH2 0xFF00 NOT SWAP1 SWAP2 AND PUSH2 0x100 OR AND PUSH1 0x1 OR SWAP1 SSTORE JUMPDEST PUSH1 0x0 PUSH2 0x1378 PUSH2 0x1141 JUMP JUMPDEST PUSH1 0x35 DUP1 SLOAD PUSH1 0x1 PUSH1 0x1 PUSH1 0xA0 SHL SUB NOT AND PUSH1 0x1 PUSH1 0x1 PUSH1 0xA0 SHL SUB DUP4 AND SWAP1 DUP2 OR SWAP1 SWAP2 SSTORE PUSH1 0x40 MLOAD SWAP2 SWAP3 POP SWAP1 PUSH1 0x0 SWAP1 PUSH32 0x8BE0079C531659141344CD1FD0A4F28419497F9722A3DAAFE3B4186F6B6457E0 SWAP1 DUP3 SWAP1 LOG3 POP DUP1 ISZERO PUSH2 0x10E4 JUMPI PUSH1 0x0 DUP1 SLOAD PUSH2 0xFF00 NOT AND SWAP1 SSTORE POP JUMP INVALID SLOAD PUSH19 0x616E7366657220746F20726577617264734573 PUSH4 0x726F7720 PUSH7 0x61696C65642E42 PUSH2 0x6467 PUSH6 0x724469737472 PUSH10 0x6275746F723A2043616E KECCAK256 PUSH16 0x6E6C7920636C61696D20666F72206F77 PUSH15 0x206163636F756E742E4F776E61626C PUSH6 0x3A206E657720 PUSH16 0x776E657220697320746865207A65726F KECCAK256 PUSH2 0x6464 PUSH19 0x6573734261646765724469737472696275746F PUSH19 0x3A20496E76616C69642070726F6F662E426164 PUSH8 0x6572446973747269 PUSH3 0x75746F PUSH19 0x3A2044726F7020616C726561647920636C6169 PUSH14 0x65642E496E697469616C697A6162 PUSH13 0x653A20636F6E74726163742069 PUSH20 0x20616C726561647920696E697469616C697A6564 MSTORE8 PUSH2 0x6665 0x4D PUSH2 0x7468 GASPRICE KECCAK256 PUSH14 0x756C7469706C69636174696F6E20 PUSH16 0x766572666C6F77A26469706673582212 KECCAK256 PUSH18 0x16BBB34C72989BE25CF5DF79E3175DC0497E DUP10 PUSH29 0xD265D675AB2AAAD8D6168E64736F6C634300060C003300000000000000 ",
  "sha1": "7b8b987c03986ac5b6d0d5d4da18c018fa5f47b1",
  "source": "// SPDX-License-Identifier: UNLICENSED\npragma solidity ^0.6.11;\n\nimport \"deps/@openzeppelin/contracts-upgradeable/access/OwnableUpgradeable.sol\";\nimport \"deps/@openzeppelin/contracts-upgradeable/token/ERC20/IERC20Upgradeable.sol\";\nimport \"deps/@openzeppelin/contracts-upgradeable/math/SafeMathUpgradeable.sol\";\nimport \"deps/@openzeppelin/contracts-upgradeable/cryptography/MerkleProofUpgradeable.sol\";\nimport \"interfaces/badger/IMerkleDistributor.sol\";\nimport \"./MerkleDistributor.sol\";\n\ncontract BadgerHunt is MerkleDistributor, OwnableUpgradeable {\n    using SafeMathUpgradeable for uint256;\n    uint256 public constant MAX_BPS = 10000;\n\n    uint256 public claimsStart;\n    uint256 public gracePeriod;\n\n    uint256 public epochDuration;\n    uint256 public rewardReductionPerEpoch;\n    uint256 public currentRewardRate;\n    uint256 public finalEpoch;\n\n    address public rewardsEscrow;\n\n    event Hunt(uint256 index, address indexed account, uint256 amount, uint256 userClaim, uint256 rewardsEscrowClaim);\n\n    function initialize(\n        address token_,\n        bytes32 merkleRoot_,\n        uint256 epochDuration_,\n        uint256 rewardReductionPerEpoch_,\n        uint256 claimsStart_,\n        uint256 gracePeriod_,\n        address rewardsEscrow_,\n        address owner_\n    ) public initializer {\n        __MerkleDistributor_init(token_, merkleRoot_);\n\n        __Ownable_init();\n        transferOwnership(owner_);\n\n        epochDuration = epochDuration_;\n        rewardReductionPerEpoch = rewardReductionPerEpoch_;\n        claimsStart = claimsStart_;\n        gracePeriod = gracePeriod_;\n\n        rewardsEscrow = rewardsEscrow_;\n\n        currentRewardRate = 10000;\n\n        finalEpoch = (currentRewardRate / rewardReductionPerEpoch_) - 1;\n    }\n\n    /// ===== View Functions =====\n    /// @dev Get grace period end timestamp\n    function getGracePeriodEnd() public view returns (uint256) {\n        return claimsStart.add(gracePeriod);\n    }  \n\n    /// @dev Get claims start timestamp\n    function getClaimsStartTime() public view returns (uint256) {\n        return claimsStart;\n    }\n\n    /// @dev Get the next epoch start\n    function getNextEpochStart() public view returns (uint256) {\n        uint256 gracePeriodEnd = claimsStart.add(gracePeriod);\n        uint256 epoch = getCurrentEpoch();\n\n        if (epoch == 0) {\n            return claimsStart.add(gracePeriod);\n        } else {\n            return claimsStart.add(gracePeriod).add(epochDuration.mul(epoch));\n        }\n    }\n\n    /// @dev Get the current epoch number\n    function getCurrentEpoch() public view returns (uint256) {\n        uint256 gracePeriodEnd = claimsStart.add(gracePeriod);\n\n        if (now < gracePeriodEnd) {\n            return 0;\n        }\n        uint256 secondsPastGracePeriod = now.sub(gracePeriodEnd);\n        return (secondsPastGracePeriod / epochDuration).add(1);\n    }\n\n    /// @dev Get the rewards % of current epoch\n    function getCurrentRewardsRate() public view returns (uint256) {\n        uint256 epoch = getCurrentEpoch();\n        if (epoch == 0) return MAX_BPS;\n        if (epoch > finalEpoch) return 0;\n        else return MAX_BPS.sub(epoch.mul(rewardReductionPerEpoch));\n    }\n\n    /// @dev Get the rewards % of following epoch\n    function getNextEpochRewardsRate() public view returns (uint256) {\n        uint256 epoch = getCurrentEpoch().add(1);\n        if (epoch == 0) return MAX_BPS;\n        if (epoch > finalEpoch) return 0;\n        else return MAX_BPS.sub(epoch.mul(rewardReductionPerEpoch));\n    }\n\n    /// ===== Public Actions =====\n\n    function claim(\n        uint256 index,\n        address account,\n        uint256 amount,\n        bytes32[] calldata merkleProof\n    ) external virtual override {\n        require(account == msg.sender, \"BadgerDistributor: Can only claim for own account.\");\n        require(!isClaimed(index), \"BadgerDistributor: Drop already claimed.\");\n\n        // Verify the merkle proof.\n        bytes32 node = keccak256(abi.encodePacked(index, account, amount));\n        require(MerkleProofUpgradeable.verify(merkleProof, merkleRoot, node), \"BadgerDistributor: Invalid proof.\");\n\n        // Mark it claimed and send the token.\n        _setClaimed(index);\n\n        uint256 claimable = amount.mul(getCurrentRewardsRate()).div(MAX_BPS);\n\n        require(IERC20Upgradeable(token).transfer(account, claimable), \"Transfer to user failed.\");\n\n        // Transfer any remainder to rewards escrow\n        if (claimable != amount) {\n            require(IERC20Upgradeable(token).transfer(rewardsEscrow, claimable), \"Transfer to rewardsEscrow failed.\");\n        }\n\n        emit Hunt(index, account, amount, claimable, amount.sub(claimable));\n    }\n\n    /// ===== Gated Actions: Owner =====\n\n    /// @notice After hunt is complete, transfer excess funds to rewardsEscrow \n    function recycleExcess() external onlyOwner {\n        require(getCurrentRewardsRate() == 0 && getCurrentEpoch() > finalEpoch, \"Hunt period not finished\");\n        uint256 remainingBalance = IERC20Upgradeable(token).balanceOf(address(this));\n        IERC20Upgradeable(token).transfer(rewardsEscrow, remainingBalance);\n    }\n}\n",
  "sourcePath": "contracts/badger-hunt/BadgerHunt.sol",
  "type": "contract"
}