{
  "_format": "hh-sol-artifact-1",
  "contractName": "LockedGeyser",
  "sourceName": "contracts/LockedGeyser.sol",
  "abi": [
    {
      "anonymous": false,
      "inputs": [
        {
          "indexed": true,
          "internalType": "address",
          "name": "previousOwner",
          "type": "address"
        },
        {
          "indexed": true,
          "internalType": "address",
          "name": "newOwner",
          "type": "address"
        }
      ],
      "name": "OwnershipTransferred",
      "type": "event"
    },
    {
      "anonymous": false,
      "inputs": [
        {
          "indexed": false,
          "internalType": "uint256",
          "name": "duration",
          "type": "uint256"
        }
      ],
      "name": "StakeLockDurationSet",
      "type": "event"
    },
    {
      "anonymous": false,
      "inputs": [
        {
          "indexed": true,
          "internalType": "address",
          "name": "user",
          "type": "address"
        },
        {
          "indexed": false,
          "internalType": "uint256",
          "name": "amount",
          "type": "uint256"
        },
        {
          "indexed": false,
          "internalType": "uint256",
          "name": "total",
          "type": "uint256"
        },
        {
          "indexed": false,
          "internalType": "bytes",
          "name": "data",
          "type": "bytes"
        }
      ],
      "name": "Staked",
      "type": "event"
    },
    {
      "anonymous": false,
      "inputs": [
        {
          "indexed": true,
          "internalType": "address",
          "name": "user",
          "type": "address"
        },
        {
          "indexed": false,
          "internalType": "uint256",
          "name": "totalReward",
          "type": "uint256"
        },
        {
          "indexed": false,
          "internalType": "uint256",
          "name": "userReward",
          "type": "uint256"
        },
        {
          "indexed": false,
          "internalType": "uint256",
          "name": "founderReward",
          "type": "uint256"
        }
      ],
      "name": "TokensClaimed",
      "type": "event"
    },
    {
      "anonymous": false,
      "inputs": [
        {
          "indexed": false,
          "internalType": "uint256",
          "name": "amount",
          "type": "uint256"
        },
        {
          "indexed": false,
          "internalType": "uint256",
          "name": "durationSec",
          "type": "uint256"
        },
        {
          "indexed": false,
          "internalType": "uint256",
          "name": "total",
          "type": "uint256"
        }
      ],
      "name": "TokensLocked",
      "type": "event"
    },
    {
      "anonymous": false,
      "inputs": [
        {
          "indexed": false,
          "internalType": "uint256",
          "name": "amount",
          "type": "uint256"
        },
        {
          "indexed": false,
          "internalType": "uint256",
          "name": "total",
          "type": "uint256"
        }
      ],
      "name": "TokensUnlocked",
      "type": "event"
    },
    {
      "anonymous": false,
      "inputs": [
        {
          "indexed": true,
          "internalType": "address",
          "name": "user",
          "type": "address"
        },
        {
          "indexed": false,
          "internalType": "uint256",
          "name": "amount",
          "type": "uint256"
        },
        {
          "indexed": false,
          "internalType": "uint256",
          "name": "total",
          "type": "uint256"
        },
        {
          "indexed": false,
          "internalType": "bytes",
          "name": "data",
          "type": "bytes"
        }
      ],
      "name": "Unstaked",
      "type": "event"
    },
    {
      "inputs": [],
      "name": "MAX_PERCENTAGE",
      "outputs": [
        {
          "internalType": "uint256",
          "name": "",
          "type": "uint256"
        }
      ],
      "stateMutability": "view",
      "type": "function"
    },
    {
      "inputs": [],
      "name": "_initialSharesPerToken",
      "outputs": [
        {
          "internalType": "uint256",
          "name": "",
          "type": "uint256"
        }
      ],
      "stateMutability": "view",
      "type": "function"
    },
    {
      "inputs": [],
      "name": "_lastAccountingTimestampSec",
      "outputs": [
        {
          "internalType": "uint256",
          "name": "",
          "type": "uint256"
        }
      ],
      "stateMutability": "view",
      "type": "function"
    },
    {
      "inputs": [],
      "name": "_lockedPool",
      "outputs": [
        {
          "internalType": "contract TokenPool",
          "name": "",
          "type": "address"
        }
      ],
      "stateMutability": "view",
      "type": "function"
    },
    {
      "inputs": [],
      "name": "_maxDistributionTokens",
      "outputs": [
        {
          "internalType": "uint256",
          "name": "",
          "type": "uint256"
        }
      ],
      "stateMutability": "view",
      "type": "function"
    },
    {
      "inputs": [],
      "name": "_maxUnlockSchedules",
      "outputs": [
        {
          "internalType": "uint256",
          "name": "",
          "type": "uint256"
        }
      ],
      "stateMutability": "view",
      "type": "function"
    },
    {
      "inputs": [],
      "name": "_stakingPool",
      "outputs": [
        {
          "internalType": "contract TokenPool",
          "name": "",
          "type": "address"
        }
      ],
      "stateMutability": "view",
      "type": "function"
    },
    {
      "inputs": [],
      "name": "_totalStakingShareSeconds",
      "outputs": [
        {
          "internalType": "uint256",
          "name": "",
          "type": "uint256"
        }
      ],
      "stateMutability": "view",
      "type": "function"
    },
    {
      "inputs": [],
      "name": "_totalUnclaimedStakingShareSeconds",
      "outputs": [
        {
          "internalType": "uint256",
          "name": "",
          "type": "uint256"
        }
      ],
      "stateMutability": "view",
      "type": "function"
    },
    {
      "inputs": [],
      "name": "_unlockedPool",
      "outputs": [
        {
          "internalType": "contract TokenPool",
          "name": "",
          "type": "address"
        }
      ],
      "stateMutability": "view",
      "type": "function"
    },
    {
      "inputs": [],
      "name": "bonusPeriodSec",
      "outputs": [
        {
          "internalType": "uint256",
          "name": "",
          "type": "uint256"
        }
      ],
      "stateMutability": "view",
      "type": "function"
    },
    {
      "inputs": [
        {
          "internalType": "uint256",
          "name": "totalReward",
          "type": "uint256"
        }
      ],
      "name": "computeFounderReward",
      "outputs": [
        {
          "internalType": "uint256",
          "name": "userReward",
          "type": "uint256"
        },
        {
          "internalType": "uint256",
          "name": "founderReward",
          "type": "uint256"
        }
      ],
      "stateMutability": "view",
      "type": "function"
    },
    {
      "inputs": [],
      "name": "founderRewardAddress",
      "outputs": [
        {
          "internalType": "address",
          "name": "",
          "type": "address"
        }
      ],
      "stateMutability": "view",
      "type": "function"
    },
    {
      "inputs": [],
      "name": "founderRewardPercentage",
      "outputs": [
        {
          "internalType": "uint256",
          "name": "",
          "type": "uint256"
        }
      ],
      "stateMutability": "view",
      "type": "function"
    },
    {
      "inputs": [],
      "name": "getDistributionToken",
      "outputs": [
        {
          "internalType": "contract IERC20",
          "name": "",
          "type": "address"
        }
      ],
      "stateMutability": "view",
      "type": "function"
    },
    {
      "inputs": [
        {
          "internalType": "address",
          "name": "user",
          "type": "address"
        }
      ],
      "name": "getNumStakes",
      "outputs": [
        {
          "internalType": "uint256",
          "name": "",
          "type": "uint256"
        }
      ],
      "stateMutability": "view",
      "type": "function"
    },
    {
      "inputs": [
        {
          "internalType": "address",
          "name": "user",
          "type": "address"
        },
        {
          "internalType": "uint256",
          "name": "stakeIndex",
          "type": "uint256"
        }
      ],
      "name": "getStake",
      "outputs": [
        {
          "components": [
            {
              "internalType": "uint256",
              "name": "stakingShares",
              "type": "uint256"
            },
            {
              "internalType": "uint256",
              "name": "timestampSec",
              "type": "uint256"
            },
            {
              "internalType": "uint256",
              "name": "lastHarvestTimestampSec",
              "type": "uint256"
            }
          ],
          "internalType": "struct BaseHarvestableGeyser.Stake",
          "name": "userStake",
          "type": "tuple"
        }
      ],
      "stateMutability": "view",
      "type": "function"
    },
    {
      "inputs": [
        {
          "internalType": "address",
          "name": "user",
          "type": "address"
        },
        {
          "internalType": "uint256",
          "name": "stakeIndex",
          "type": "uint256"
        }
      ],
      "name": "getStakeRewardMultiplier",
      "outputs": [
        {
          "internalType": "uint256",
          "name": "",
          "type": "uint256"
        }
      ],
      "stateMutability": "view",
      "type": "function"
    },
    {
      "inputs": [
        {
          "internalType": "address",
          "name": "user",
          "type": "address"
        }
      ],
      "name": "getStakes",
      "outputs": [
        {
          "components": [
            {
              "internalType": "uint256",
              "name": "stakingShares",
              "type": "uint256"
            },
            {
              "internalType": "uint256",
              "name": "timestampSec",
              "type": "uint256"
            },
            {
              "internalType": "uint256",
              "name": "lastHarvestTimestampSec",
              "type": "uint256"
            }
          ],
          "internalType": "struct BaseHarvestableGeyser.Stake[]",
          "name": "",
          "type": "tuple[]"
        }
      ],
      "stateMutability": "view",
      "type": "function"
    },
    {
      "inputs": [],
      "name": "getStakingToken",
      "outputs": [
        {
          "internalType": "contract IERC20",
          "name": "",
          "type": "address"
        }
      ],
      "stateMutability": "view",
      "type": "function"
    },
    {
      "inputs": [
        {
          "internalType": "address",
          "name": "user",
          "type": "address"
        }
      ],
      "name": "getUnclaimedStakingShareSeconds",
      "outputs": [
        {
          "internalType": "uint256",
          "name": "unclaimedStakingShareSeconds",
          "type": "uint256"
        }
      ],
      "stateMutability": "view",
      "type": "function"
    },
    {
      "inputs": [
        {
          "internalType": "address",
          "name": "user",
          "type": "address"
        }
      ],
      "name": "getUnstakable",
      "outputs": [
        {
          "internalType": "uint256",
          "name": "",
          "type": "uint256"
        }
      ],
      "stateMutability": "view",
      "type": "function"
    },
    {
      "inputs": [
        {
          "internalType": "address",
          "name": "user",
          "type": "address"
        }
      ],
      "name": "getUserHarvested",
      "outputs": [
        {
          "internalType": "uint256",
          "name": "",
          "type": "uint256"
        }
      ],
      "stateMutability": "view",
      "type": "function"
    },
    {
      "inputs": [],
      "name": "globalStartTime",
      "outputs": [
        {
          "internalType": "uint256",
          "name": "",
          "type": "uint256"
        }
      ],
      "stateMutability": "view",
      "type": "function"
    },
    {
      "inputs": [],
      "name": "harvest",
      "outputs": [
        {
          "internalType": "uint256",
          "name": "totalReward",
          "type": "uint256"
        },
        {
          "internalType": "uint256",
          "name": "userReward",
          "type": "uint256"
        },
        {
          "internalType": "uint256",
          "name": "founderReward",
          "type": "uint256"
        }
      ],
      "stateMutability": "nonpayable",
      "type": "function"
    },
    {
      "inputs": [],
      "name": "harvestQuery",
      "outputs": [
        {
          "internalType": "uint256",
          "name": "totalReward",
          "type": "uint256"
        },
        {
          "internalType": "uint256",
          "name": "userReward",
          "type": "uint256"
        },
        {
          "internalType": "uint256",
          "name": "founderReward",
          "type": "uint256"
        }
      ],
      "stateMutability": "nonpayable",
      "type": "function"
    },
    {
      "inputs": [
        {
          "internalType": "contract IERC20",
          "name": "stakingToken",
          "type": "address"
        },
        {
          "internalType": "contract IERC20",
          "name": "distributionToken",
          "type": "address"
        },
        {
          "internalType": "uint256",
          "name": "maxUnlockSchedules",
          "type": "uint256"
        },
        {
          "internalType": "uint256",
          "name": "startBonus_",
          "type": "uint256"
        },
        {
          "internalType": "uint256",
          "name": "bonusPeriodSec_",
          "type": "uint256"
        },
        {
          "internalType": "uint256",
          "name": "initialSharesPerToken",
          "type": "uint256"
        },
        {
          "internalType": "uint256",
          "name": "globalStartTime_",
          "type": "uint256"
        },
        {
          "internalType": "address",
          "name": "founderRewardAddress_",
          "type": "address"
        },
        {
          "internalType": "uint256",
          "name": "founderRewardPercentage_",
          "type": "uint256"
        },
        {
          "internalType": "uint256",
          "name": "stakeLockDuration_",
          "type": "uint256"
        }
      ],
      "name": "initialize",
      "outputs": [],
      "stateMutability": "nonpayable",
      "type": "function"
    },
    {
      "inputs": [
        {
          "internalType": "uint256",
          "name": "amount",
          "type": "uint256"
        },
        {
          "internalType": "uint256",
          "name": "durationSec",
          "type": "uint256"
        },
        {
          "internalType": "uint256",
          "name": "startTime",
          "type": "uint256"
        }
      ],
      "name": "lockTokens",
      "outputs": [],
      "stateMutability": "nonpayable",
      "type": "function"
    },
    {
      "inputs": [],
      "name": "owner",
      "outputs": [
        {
          "internalType": "address",
          "name": "",
          "type": "address"
        }
      ],
      "stateMutability": "view",
      "type": "function"
    },
    {
      "inputs": [],
      "name": "renounceOwnership",
      "outputs": [],
      "stateMutability": "nonpayable",
      "type": "function"
    },
    {
      "inputs": [
        {
          "internalType": "uint256",
          "name": "duration",
          "type": "uint256"
        }
      ],
      "name": "setStakeLockDuration",
      "outputs": [],
      "stateMutability": "nonpayable",
      "type": "function"
    },
    {
      "inputs": [
        {
          "internalType": "uint256",
          "name": "amount",
          "type": "uint256"
        },
        {
          "internalType": "bytes",
          "name": "data",
          "type": "bytes"
        }
      ],
      "name": "stake",
      "outputs": [],
      "stateMutability": "nonpayable",
      "type": "function"
    },
    {
      "inputs": [
        {
          "internalType": "address",
          "name": "user",
          "type": "address"
        },
        {
          "internalType": "uint256",
          "name": "amount",
          "type": "uint256"
        },
        {
          "internalType": "bytes",
          "name": "data",
          "type": "bytes"
        }
      ],
      "name": "stakeFor",
      "outputs": [],
      "stateMutability": "nonpayable",
      "type": "function"
    },
    {
      "inputs": [],
      "name": "stakeLockDuration",
      "outputs": [
        {
          "internalType": "uint256",
          "name": "",
          "type": "uint256"
        }
      ],
      "stateMutability": "view",
      "type": "function"
    },
    {
      "inputs": [],
      "name": "startBonus",
      "outputs": [
        {
          "internalType": "uint256",
          "name": "",
          "type": "uint256"
        }
      ],
      "stateMutability": "view",
      "type": "function"
    },
    {
      "inputs": [],
      "name": "supportsHistory",
      "outputs": [
        {
          "internalType": "bool",
          "name": "",
          "type": "bool"
        }
      ],
      "stateMutability": "pure",
      "type": "function"
    },
    {
      "inputs": [],
      "name": "token",
      "outputs": [
        {
          "internalType": "address",
          "name": "",
          "type": "address"
        }
      ],
      "stateMutability": "view",
      "type": "function"
    },
    {
      "inputs": [
        {
          "components": [
            {
              "internalType": "uint256",
              "name": "stakingShares",
              "type": "uint256"
            },
            {
              "internalType": "uint256",
              "name": "timestampSec",
              "type": "uint256"
            },
            {
              "internalType": "uint256",
              "name": "lastHarvestTimestampSec",
              "type": "uint256"
            }
          ],
          "internalType": "struct BaseHarvestableGeyser.Stake",
          "name": "userStake",
          "type": "tuple"
        }
      ],
      "name": "tokensStakedFor",
      "outputs": [
        {
          "internalType": "uint256",
          "name": "",
          "type": "uint256"
        }
      ],
      "stateMutability": "view",
      "type": "function"
    },
    {
      "inputs": [],
      "name": "totalHarvested",
      "outputs": [
        {
          "internalType": "uint256",
          "name": "",
          "type": "uint256"
        }
      ],
      "stateMutability": "view",
      "type": "function"
    },
    {
      "inputs": [
        {
          "internalType": "address",
          "name": "account",
          "type": "address"
        }
      ],
      "name": "totalHarvestedFor",
      "outputs": [
        {
          "internalType": "uint256",
          "name": "totalClaimed",
          "type": "uint256"
        }
      ],
      "stateMutability": "view",
      "type": "function"
    },
    {
      "inputs": [],
      "name": "totalLocked",
      "outputs": [
        {
          "internalType": "uint256",
          "name": "",
          "type": "uint256"
        }
      ],
      "stateMutability": "view",
      "type": "function"
    },
    {
      "inputs": [],
      "name": "totalLockedShares",
      "outputs": [
        {
          "internalType": "uint256",
          "name": "",
          "type": "uint256"
        }
      ],
      "stateMutability": "view",
      "type": "function"
    },
    {
      "inputs": [],
      "name": "totalStaked",
      "outputs": [
        {
          "internalType": "uint256",
          "name": "",
          "type": "uint256"
        }
      ],
      "stateMutability": "view",
      "type": "function"
    },
    {
      "inputs": [
        {
          "internalType": "address",
          "name": "addr",
          "type": "address"
        }
      ],
      "name": "totalStakedFor",
      "outputs": [
        {
          "internalType": "uint256",
          "name": "",
          "type": "uint256"
        }
      ],
      "stateMutability": "view",
      "type": "function"
    },
    {
      "inputs": [],
      "name": "totalStakingShareSeconds",
      "outputs": [
        {
          "internalType": "uint256",
          "name": "",
          "type": "uint256"
        }
      ],
      "stateMutability": "view",
      "type": "function"
    },
    {
      "inputs": [],
      "name": "totalStakingShares",
      "outputs": [
        {
          "internalType": "uint256",
          "name": "",
          "type": "uint256"
        }
      ],
      "stateMutability": "view",
      "type": "function"
    },
    {
      "inputs": [],
      "name": "totalUnclaimedStakingShareSeconds",
      "outputs": [
        {
          "internalType": "uint256",
          "name": "",
          "type": "uint256"
        }
      ],
      "stateMutability": "view",
      "type": "function"
    },
    {
      "inputs": [],
      "name": "totalUnlocked",
      "outputs": [
        {
          "internalType": "uint256",
          "name": "",
          "type": "uint256"
        }
      ],
      "stateMutability": "view",
      "type": "function"
    },
    {
      "inputs": [
        {
          "internalType": "address",
          "name": "newOwner",
          "type": "address"
        }
      ],
      "name": "transferOwnership",
      "outputs": [],
      "stateMutability": "nonpayable",
      "type": "function"
    },
    {
      "inputs": [],
      "name": "unlockScheduleCount",
      "outputs": [
        {
          "internalType": "uint256",
          "name": "",
          "type": "uint256"
        }
      ],
      "stateMutability": "view",
      "type": "function"
    },
    {
      "inputs": [
        {
          "internalType": "uint256",
          "name": "",
          "type": "uint256"
        }
      ],
      "name": "unlockSchedules",
      "outputs": [
        {
          "internalType": "uint256",
          "name": "initialLockedShares",
          "type": "uint256"
        },
        {
          "internalType": "uint256",
          "name": "unlockedShares",
          "type": "uint256"
        },
        {
          "internalType": "uint256",
          "name": "lastUnlockTimestampSec",
          "type": "uint256"
        },
        {
          "internalType": "uint256",
          "name": "endAtSec",
          "type": "uint256"
        },
        {
          "internalType": "uint256",
          "name": "durationSec",
          "type": "uint256"
        },
        {
          "internalType": "uint256",
          "name": "startTime",
          "type": "uint256"
        }
      ],
      "stateMutability": "view",
      "type": "function"
    },
    {
      "inputs": [],
      "name": "unlockTokens",
      "outputs": [
        {
          "internalType": "uint256",
          "name": "",
          "type": "uint256"
        }
      ],
      "stateMutability": "nonpayable",
      "type": "function"
    },
    {
      "inputs": [
        {
          "internalType": "uint256",
          "name": "amount",
          "type": "uint256"
        },
        {
          "internalType": "bytes",
          "name": "data",
          "type": "bytes"
        }
      ],
      "name": "unstake",
      "outputs": [],
      "stateMutability": "nonpayable",
      "type": "function"
    },
    {
      "inputs": [
        {
          "internalType": "uint256",
          "name": "amount",
          "type": "uint256"
        }
      ],
      "name": "unstakeQuery",
      "outputs": [
        {
          "internalType": "uint256",
          "name": "totalReward",
          "type": "uint256"
        },
        {
          "internalType": "uint256",
          "name": "userReward",
          "type": "uint256"
        },
        {
          "internalType": "uint256",
          "name": "founderReward",
          "type": "uint256"
        }
      ],
      "stateMutability": "nonpayable",
      "type": "function"
    },
    {
      "inputs": [],
      "name": "updateAccounting",
      "outputs": [
        {
          "internalType": "uint256",
          "name": "",
          "type": "uint256"
        },
        {
          "internalType": "uint256",
          "name": "",
          "type": "uint256"
        },
        {
          "internalType": "uint256",
          "name": "",
          "type": "uint256"
        },
        {
          "internalType": "uint256",
          "name": "",
          "type": "uint256"
        },
        {
          "internalType": "uint256",
          "name": "",
          "type": "uint256"
        },
        {
          "internalType": "uint256",
          "name": "",
          "type": "uint256"
        }
      ],
      "stateMutability": "nonpayable",
      "type": "function"
    }
  ],
  "bytecode": "0x60806040526000609a556000609b556000609d556000609e556000609f55600060a055600060a1554260a255600060a355600060a455600060a555600060a95534801561004b57600080fd5b5061685c806200005c6000396000f3fe608060405234801561001057600080fd5b506004361061035d5760003560e01c80637ba6f458116101d3578063a5be655c11610104578063d6ddbc95116100a2578063f2e456c61161007c578063f2e456c614610a37578063f2fde38b14610a55578063f968f49314610a71578063fc0c546a14610a8f5761035d565b8063d6ddbc95146109bb578063ee7d4c45146109eb578063efa9e2ee14610a075761035d565b8063c7ae2007116100de578063c7ae200714610933578063c8fd6ed014610951578063cfd476631461096d578063d0f1a7e91461099d5761035d565b8063a5be655c146108d7578063a779d080146108f5578063a9d65b63146109135761035d565b806388e28c11116101715780639912a8351161014b5780639912a835146108615780639d81ff151461087d5780639ec8b6701461089b5780639f9106d1146108b95761035d565b806388e28c11146108075780638da5cb5b14610825578063965f46c7146108435761035d565b806381c39bec116101ad57806381c39bec1461077d57806384791cff1461079b5780638586c264146107b957806386805dd1146107d55761035d565b80637ba6f458146107115780637c6aa6f414610741578063817b1cd21461075f5761035d565b80633d074110116102ad5780636afa6a171161024b578063715018a611610225578063715018a61461067657806374db0e001461068057806376ef4624146106b057806379245882146106e15761035d565b80636afa6a171461061c5780637033e4a61461063a57806370c6a17e146106585761035d565b80634b341aed116102875780634b341aed1461057b5780634c255c97146105ab57806356891412146105c95780635c94bcb2146105e75761035d565b80633d0741101461051a5780634641257d14610538578063494347e7146105585761035d565b80630ef963561161031a5780633352ec64116102f45780633352ec6414610490578063348d4144146104ae57806338b45fde146104cc578063397c1a35146104ea5761035d565b80630ef963561461043857806322c12b841461045457806323dc1142146104725761035d565b8063012b19ff1461036257806303b7432d1461038057806305c458de146103b057806309675401146103ce5780630de9b519146103ec5780630e89439b1461041c575b600080fd5b61036a610aad565b60405161037791906156e9565b60405180910390f35b61039a60048036038101906103959190614209565b610ab3565b6040516103a791906156e9565b60405180910390f35b6103b8610b04565b6040516103c591906156e9565b60405180910390f35b6103d6610b0a565b6040516103e391906156e9565b60405180910390f35b61040660048036038101906104019190614209565b610b10565b60405161041391906156e9565b60405180910390f35b61043660048036038101906104319190614482565b610b5c565b005b610452600480360381019061044d919061426e565b610b74565b005b61045c610b8d565b60405161046991906152f6565b60405180910390f35b61047a610da7565b60405161048791906156e9565b60405180910390f35b610498610dad565b6040516104a591906156e9565b60405180910390f35b6104b6610db3565b6040516104c391906156e9565b60405180910390f35b6104d4610db9565b6040516104e191906156e9565b60405180910390f35b61050460048036038101906104ff9190614232565b610dbf565b60405161051191906156e9565b60405180910390f35b610522610e97565b60405161052f9190615311565b60405180910390f35b610540610ebd565b60405161054f93929190615769565b60405180910390f35b610560610ef0565b604051610572969594939291906157a0565b60405180910390f35b61059560048036038101906105909190614209565b610f16565b6040516105a291906156e9565b60405180910390f35b6105b3610fa0565b6040516105c091906156e9565b60405180910390f35b6105d1610fa5565b6040516105de91906156e9565b60405180910390f35b61060160048036038101906105fc9190614430565b61104c565b604051610613969594939291906157a0565b60405180910390f35b610624611095565b6040516106319190615207565b60405180910390f35b6106426110bb565b60405161064f91906152db565b60405180910390f35b6106606110c0565b60405161066d91906156e9565b60405180910390f35b61067e6110c6565b005b61069a60048036038101906106959190614209565b61121e565b6040516106a791906156e9565b60405180910390f35b6106ca60048036038101906106c59190614430565b61126f565b6040516106d8929190615704565b60405180910390f35b6106fb60048036038101906106f69190614209565b6112e6565b60405161070891906156e9565b60405180910390f35b61072b60048036038101906107269190614209565b611380565b60405161073891906152b9565b60405180910390f35b610749611392565b60405161075691906156e9565b60405180910390f35b610767611398565b60405161077491906156e9565b60405180910390f35b61078561143f565b60405161079291906156e9565b60405180910390f35b6107a3611445565b6040516107b09190615311565b60405180910390f35b6107d360048036038101906107ce91906144da565b61146b565b005b6107ef60048036038101906107ea9190614430565b611512565b6040516107fe93929190615769565b60405180910390f35b61080f61152e565b60405161081c91906156e9565b60405180910390f35b61082d611534565b60405161083a9190615207565b60405180910390f35b61084b61155e565b60405161085891906156e9565b60405180910390f35b61087b6004803603810190610876919061432c565b611564565b005b610885611af8565b60405161089291906156e9565b60405180910390f35b6108a3611afe565b6040516108b091906156e9565b60405180910390f35b6108c1611b08565b6040516108ce91906152f6565b60405180910390f35b6108df611baf565b6040516108ec91906156e9565b60405180910390f35b6108fd611bb9565b60405161090a91906156e9565b60405180910390f35b61091b611c60565b60405161092a93929190615769565b60405180910390f35b61093b611c7f565b60405161094891906156e9565b60405180910390f35b61096b60048036038101906109669190614482565b611c8c565b005b61098760048036038101906109829190614232565b611ca6565b60405161099491906156ce565b60405180910390f35b6109a5611d3d565b6040516109b291906156e9565b60405180910390f35b6109d560048036038101906109d09190614407565b611d43565b6040516109e291906156e9565b60405180910390f35b610a056004803603810190610a009190614430565b611d8f565b005b610a216004803603810190610a1c9190614209565b611e67565b604051610a2e91906156e9565b60405180910390f35b610a3f611e79565b604051610a4c9190615311565b60405180910390f35b610a6f6004803603810190610a6a9190614209565b611e9f565b005b610a79612066565b604051610a8691906156e9565b60405180910390f35b610a97612270565b604051610aa49190615207565b60405180910390f35b60a95481565b60008060a660008473ffffffffffffffffffffffffffffffffffffffff1673ffffffffffffffffffffffffffffffffffffffff16815260200190815260200160002090508060030154915050919050565b60a15481565b60a25481565b600060a760008373ffffffffffffffffffffffffffffffffffffffff1673ffffffffffffffffffffffffffffffffffffffff168152602001908152602001600020805490509050919050565b610b6461227f565b610b6f3333856122c6565b505050565b610b7c61227f565b610b873385856122c6565b50505050565b6000609960009054906101000a900473ffffffffffffffffffffffffffffffffffffffff1673ffffffffffffffffffffffffffffffffffffffff1663fc0c546a6040518163ffffffff1660e01b815260040160206040518083038186803b158015610bf757600080fd5b505afa158015610c0b573d6000803e3d6000fd5b505050506040513d601f19601f82011682018060405250810190610c2f9190614303565b73ffffffffffffffffffffffffffffffffffffffff16609860009054906101000a900473ffffffffffffffffffffffffffffffffffffffff1673ffffffffffffffffffffffffffffffffffffffff1663fc0c546a6040518163ffffffff1660e01b815260040160206040518083038186803b158015610cad57600080fd5b505afa158015610cc1573d6000803e3d6000fd5b505050506040513d601f19601f82011682018060405250810190610ce59190614303565b73ffffffffffffffffffffffffffffffffffffffff1614610d0257fe5b609860009054906101000a900473ffffffffffffffffffffffffffffffffffffffff1673ffffffffffffffffffffffffffffffffffffffff1663fc0c546a6040518163ffffffff1660e01b815260040160206040518083038186803b158015610d6a57600080fd5b505afa158015610d7e573d6000803e3d6000fd5b505050506040513d601f19601f82011682018060405250810190610da29190614303565b905090565b609f5481565b60a55481565b60ab5481565b609a5481565b60008060a760008573ffffffffffffffffffffffffffffffffffffffff1673ffffffffffffffffffffffffffffffffffffffff1681526020019081526020016000208381548110610e0c57fe5b90600052602060002090600302019050609b54816001015410610e33576064915050610e91565b6000610e89610e78609b54610e6a8560010154610e5c609a54606461279b90919063ffffffff16565b6127e590919063ffffffff16565b61285590919063ffffffff16565b609a5461289f90919063ffffffff16565b905080925050505b92915050565b609760009054906101000a900473ffffffffffffffffffffffffffffffffffffffff1681565b6000806000610eca61227f565b610ed3336128f4565b809350819450829550505050610eeb33848484612b08565b909192565b600080600080600080610f0233612d72565b955095509550955095509550909192939495565b600080609e5411610f28576000610f99565b610f98609e54610f8a60a660008673ffffffffffffffffffffffffffffffffffffffff1673ffffffffffffffffffffffffffffffffffffffff16815260200190815260200160002060000154610f7c611398565b6127e590919063ffffffff16565b61285590919063ffffffff16565b5b9050919050565b606481565b6000609960009054906101000a900473ffffffffffffffffffffffffffffffffffffffff1673ffffffffffffffffffffffffffffffffffffffff1663b69ef8a86040518163ffffffff1660e01b815260040160206040518083038186803b15801561100f57600080fd5b505afa158015611023573d6000803e3d6000fd5b505050506040513d601f19601f820116820180604052508101906110479190614459565b905090565b60a8818154811061105957fe5b90600052602060002090600602016000915090508060000154908060010154908060020154908060030154908060040154908060050154905086565b60aa60009054906101000a900473ffffffffffffffffffffffffffffffffffffffff1681565b600090565b609e5481565b6110ce612f04565b73ffffffffffffffffffffffffffffffffffffffff16606560009054906101000a900473ffffffffffffffffffffffffffffffffffffffff1673ffffffffffffffffffffffffffffffffffffffff161461115d576040517f08c379a00000000000000000000000000000000000000000000000000000000081526004016111549061556e565b60405180910390fd5b600073ffffffffffffffffffffffffffffffffffffffff16606560009054906101000a900473ffffffffffffffffffffffffffffffffffffffff1673ffffffffffffffffffffffffffffffffffffffff167f8be0079c531659141344cd1fd0a4f28419497f9722a3daafe3b4186f6b6457e060405160405180910390a36000606560006101000a81548173ffffffffffffffffffffffffffffffffffffffff021916908373ffffffffffffffffffffffffffffffffffffffff160217905550565b60008060a660008473ffffffffffffffffffffffffffffffffffffffff1673ffffffffffffffffffffffffffffffffffffffff16815260200190815260200160002090508060030154915050919050565b600080600060a954141561128957829150600090506112e1565b606460a95414156112a057600091508290506112e0565b6112c860646112ba60a954866127e590919063ffffffff16565b61285590919063ffffffff16565b90506112dd818461279b90919063ffffffff16565b91505b5b915091565b600060606112f383612f0c565b90506000915060005b81518110156113795761136a61135b83838151811061131757fe5b60200260200101516000015161134d85858151811061133257fe5b6020026020010151604001514261279b90919063ffffffff16565b6127e590919063ffffffff16565b8461289f90919063ffffffff16565b925080806001019150506112fc565b5050919050565b606061138b82612f0c565b9050919050565b609b5481565b6000609760009054906101000a900473ffffffffffffffffffffffffffffffffffffffff1673ffffffffffffffffffffffffffffffffffffffff1663b69ef8a86040518163ffffffff1660e01b815260040160206040518083038186803b15801561140257600080fd5b505afa158015611416573d6000803e3d6000fd5b505050506040513d601f19601f8201168201806040525081019061143a9190614459565b905090565b609d5481565b609960009054906101000a900473ffffffffffffffffffffffffffffffffffffffff1681565b611473612f04565b73ffffffffffffffffffffffffffffffffffffffff16606560009054906101000a900473ffffffffffffffffffffffffffffffffffffffff1673ffffffffffffffffffffffffffffffffffffffff1614611502576040517f08c379a00000000000000000000000000000000000000000000000000000000081526004016114f99061556e565b60405180910390fd5b61150d8383836130a8565b505050565b60008060006115213385613448565b9250925092509193909250565b60a45481565b6000606560009054906101000a900473ffffffffffffffffffffffffffffffffffffffff16905090565b60a35481565b600060019054906101000a900460ff16806115835750611582613998565b5b80611599575060008054906101000a900460ff16155b6115d8576040517f08c379a00000000000000000000000000000000000000000000000000000000081526004016115cf906155ae565b60405180910390fd5b60008060019054906101000a900460ff161590508015611628576001600060016101000a81548160ff02191690831515021790555060016000806101000a81548160ff0219169083151502179055505b606488111561166c576040517f08c379a00000000000000000000000000000000000000000000000000000000081526004016116639061542e565b60405180910390fd5b60648311156116b0576040517f08c379a00000000000000000000000000000000000000000000000000000000081526004016116a79061558e565b60405180910390fd5b60008714156116f4576040517f08c379a00000000000000000000000000000000000000000000000000000000081526004016116eb906155ce565b60405180910390fd5b60008611611737576040517f08c379a000000000000000000000000000000000000000000000000000000000815260040161172e9061568e565b60405180910390fd5b61173f6139af565b60405161174b9061407d565b604051809103906000f080158015611767573d6000803e3d6000fd5b50609760006101000a81548173ffffffffffffffffffffffffffffffffffffffff021916908373ffffffffffffffffffffffffffffffffffffffff1602179055506040516117b49061407d565b604051809103906000f0801580156117d0573d6000803e3d6000fd5b50609860006101000a81548173ffffffffffffffffffffffffffffffffffffffff021916908373ffffffffffffffffffffffffffffffffffffffff16021790555060405161181d9061407d565b604051809103906000f080158015611839573d6000803e3d6000fd5b50609960006101000a81548173ffffffffffffffffffffffffffffffffffffffff021916908373ffffffffffffffffffffffffffffffffffffffff160217905550609760009054906101000a900473ffffffffffffffffffffffffffffffffffffffff1673ffffffffffffffffffffffffffffffffffffffff1663c4d66de88c6040518263ffffffff1660e01b81526004016118d591906152f6565b600060405180830381600087803b1580156118ef57600080fd5b505af1158015611903573d6000803e3d6000fd5b50505050609860009054906101000a900473ffffffffffffffffffffffffffffffffffffffff1673ffffffffffffffffffffffffffffffffffffffff1663c4d66de88b6040518263ffffffff1660e01b815260040161196291906152f6565b600060405180830381600087803b15801561197c57600080fd5b505af1158015611990573d6000803e3d6000fd5b50505050609960009054906101000a900473ffffffffffffffffffffffffffffffffffffffff1673ffffffffffffffffffffffffffffffffffffffff1663c4d66de88b6040518263ffffffff1660e01b81526004016119ef91906152f6565b600060405180830381600087803b158015611a0957600080fd5b505af1158015611a1d573d6000803e3d6000fd5b5050505087609a8190555084609c8190555086609b819055508860a3819055508560a5819055508260a9819055508360aa60006101000a81548173ffffffffffffffffffffffffffffffffffffffff021916908373ffffffffffffffffffffffffffffffffffffffff1602179055508160ab819055507f1366aac341ae9e61234353f0ebf1b0f649d954d1ad45b62b9558effda45c94a682604051611ac291906156e9565b60405180910390a18015611aeb5760008060016101000a81548160ff0219169083151502179055505b5050505050505050505050565b609c5481565b600060a154905090565b6000609760009054906101000a900473ffffffffffffffffffffffffffffffffffffffff1673ffffffffffffffffffffffffffffffffffffffff1663fc0c546a6040518163ffffffff1660e01b815260040160206040518083038186803b158015611b7257600080fd5b505afa158015611b86573d6000803e3d6000fd5b505050506040513d601f19601f82011682018060405250810190611baa9190614303565b905090565b600060a054905090565b6000609860009054906101000a900473ffffffffffffffffffffffffffffffffffffffff1673ffffffffffffffffffffffffffffffffffffffff1663b69ef8a86040518163ffffffff1660e01b815260040160206040518083038186803b158015611c2357600080fd5b505afa158015611c37573d6000803e3d6000fd5b505050506040513d601f19601f82011682018060405250810190611c5b9190614459565b905090565b6000806000611c6e336128f4565b809350819450829550505050909192565b600060a880549050905090565b611c9461227f565b611c9e3384613448565b505050505050565b611cae61408a565b600060a760008573ffffffffffffffffffffffffffffffffffffffff1673ffffffffffffffffffffffffffffffffffffffff1681526020019081526020016000208381548110611cfa57fe5b9060005260206000209060030201905080604051806060016040529081600082015481526020016001820154815260200160028201548152505091505092915050565b60a05481565b600080609e5411611d55576000611d88565b611d87609e54611d798460000151611d6b611398565b6127e590919063ffffffff16565b61285590919063ffffffff16565b5b9050919050565b611d97612f04565b73ffffffffffffffffffffffffffffffffffffffff16606560009054906101000a900473ffffffffffffffffffffffffffffffffffffffff1673ffffffffffffffffffffffffffffffffffffffff1614611e26576040517f08c379a0000000000000000000000000000000000000000000000000000000008152600401611e1d9061556e565b60405180910390fd5b8060ab819055507f1366aac341ae9e61234353f0ebf1b0f649d954d1ad45b62b9558effda45c94a681604051611e5c91906156e9565b60405180910390a150565b6000611e7282613aa7565b9050919050565b609860009054906101000a900473ffffffffffffffffffffffffffffffffffffffff1681565b611ea7612f04565b73ffffffffffffffffffffffffffffffffffffffff16606560009054906101000a900473ffffffffffffffffffffffffffffffffffffffff1673ffffffffffffffffffffffffffffffffffffffff1614611f36576040517f08c379a0000000000000000000000000000000000000000000000000000000008152600401611f2d9061556e565b60405180910390fd5b600073ffffffffffffffffffffffffffffffffffffffff168173ffffffffffffffffffffffffffffffffffffffff161415611fa6576040517f08c379a0000000000000000000000000000000000000000000000000000000008152600401611f9d906153ce565b60405180910390fd5b8073ffffffffffffffffffffffffffffffffffffffff16606560009054906101000a900473ffffffffffffffffffffffffffffffffffffffff1673ffffffffffffffffffffffffffffffffffffffff167f8be0079c531659141344cd1fd0a4f28419497f9722a3daafe3b4186f6b6457e060405160405180910390a380606560006101000a81548173ffffffffffffffffffffffffffffffffffffffff021916908373ffffffffffffffffffffffffffffffffffffffff16021790555050565b600080600090506000612077610fa5565b90506000609d54141561208c5780915061210e565b6000805b60a8805490508110156120c7576120b86120a982613b30565b8361289f90919063ffffffff16565b91508080600101915050612090565b506120ef609d546120e184846127e590919063ffffffff16565b61285590919063ffffffff16565b925061210681609d5461279b90919063ffffffff16565b609d81905550505b600082111561226857609960009054906101000a900473ffffffffffffffffffffffffffffffffffffffff1673ffffffffffffffffffffffffffffffffffffffff1663a9059cbb609860009054906101000a900473ffffffffffffffffffffffffffffffffffffffff16846040518363ffffffff1660e01b8152600401612196929190615290565b602060405180830381600087803b1580156121b057600080fd5b505af11580156121c4573d6000803e3d6000fd5b505050506040513d601f19601f820116820180604052508101906121e891906142da565b612227576040517f08c379a000000000000000000000000000000000000000000000000000000000815260040161221e9061538e565b60405180910390fd5b7f2e444eb379b177e88ce0649c6110a3b01099f03e297127919dd5e3b63a761a9c82612251610fa5565b60405161225f929190615704565b60405180910390a15b819250505090565b600061227a611b08565b905090565b609c544210156122c4576040517f08c379a00000000000000000000000000000000000000000000000000000000081526004016122bb9061560e565b60405180910390fd5b565b60008111612309576040517f08c379a0000000000000000000000000000000000000000000000000000000008152600401612300906154ee565b60405180910390fd5b600073ffffffffffffffffffffffffffffffffffffffff168273ffffffffffffffffffffffffffffffffffffffff161415612379576040517f08c379a00000000000000000000000000000000000000000000000000000000081526004016123709061552e565b60405180910390fd5b6000609e5414806123915750600061238f611398565b115b6123d0576040517f08c379a00000000000000000000000000000000000000000000000000000000081526004016123c79061550e565b60405180910390fd5b600080609e54116123f5576123f060a554836127e590919063ffffffff16565b612424565b612423612400611398565b61241584609e546127e590919063ffffffff16565b61285590919063ffffffff16565b5b905060008111612469576040517f08c379a00000000000000000000000000000000000000000000000000000000081526004016124609061540e565b60405180910390fd5b61247284612d72565b505050505050600060a660008573ffffffffffffffffffffffffffffffffffffffff1673ffffffffffffffffffffffffffffffffffffffff16815260200190815260200160002090506124d282826000015461289f90919063ffffffff16565b81600001819055504281600201819055506124eb61408a565b604051806060016040528084815260200142815260200142815250905060a760008673ffffffffffffffffffffffffffffffffffffffff1673ffffffffffffffffffffffffffffffffffffffff16815260200190815260200160002081908060018154018082558091505060019003906000526020600020906003020160009091909190915060008201518160000155602082015181600101556040820151816002015550506125a683609e5461289f90919063ffffffff16565b609e81905550609760009054906101000a900473ffffffffffffffffffffffffffffffffffffffff1673ffffffffffffffffffffffffffffffffffffffff1663fc0c546a6040518163ffffffff1660e01b815260040160206040518083038186803b15801561261457600080fd5b505afa158015612628573d6000803e3d6000fd5b505050506040513d601f19601f8201168201806040525081019061264c9190614303565b73ffffffffffffffffffffffffffffffffffffffff166323b872dd87609760009054906101000a900473ffffffffffffffffffffffffffffffffffffffff16876040518463ffffffff1660e01b81526004016126aa93929190615259565b602060405180830381600087803b1580156126c457600080fd5b505af11580156126d8573d6000803e3d6000fd5b505050506040513d601f19601f820116820180604052508101906126fc91906142da565b61273b576040517f08c379a0000000000000000000000000000000000000000000000000000000008152600401612732906154ce565b60405180910390fd5b8473ffffffffffffffffffffffffffffffffffffffff167fc65e53b88159e7d2c0fc12a0600072e28ae53ff73b4c1715369c30f1609351428561277d88610f16565b60405161278b92919061572d565b60405180910390a2505050505050565b60006127dd83836040518060400160405280601e81526020017f536166654d6174683a207375627472616374696f6e206f766572666c6f770000815250613c33565b905092915050565b6000808314156127f8576000905061284f565b600082840290508284828161280957fe5b041461284a576040517f08c379a00000000000000000000000000000000000000000000000000000000081526004016128419061554e565b60405180910390fd5b809150505b92915050565b600061289783836040518060400160405280601a81526020017f536166654d6174683a206469766973696f6e206279207a65726f000000000000815250613c8e565b905092915050565b6000808284019050838110156128ea576040517f08c379a00000000000000000000000000000000000000000000000000000000081526004016128e1906153ee565b60405180910390fd5b8091505092915050565b600080600061290284612d72565b505050505050600061291385610f16565b11612953576040517f08c379a000000000000000000000000000000000000000000000000000000000815260040161294a906154ae565b60405180910390fd5b600060a660008673ffffffffffffffffffffffffffffffffffffffff1673ffffffffffffffffffffffffffffffffffffffff1681526020019081526020016000209050600060a760008773ffffffffffffffffffffffffffffffffffffffff1673ffffffffffffffffffffffffffffffffffffffff1681526020019081526020016000209050600094506000805b8280549050811015612a805760008382815481106129fb57fe5b906000526020600020906003020190506000612a2482600201544261279b90919063ffffffff16565b90506000612a3f8284600001546127e590919063ffffffff16565b9050612a54818661289f90919063ffffffff16565b9450612a658a828560010154613cef565b995042836002018190555050505080806001019150506129e1565b50612a9886846003015461289f90919063ffffffff16565b8360030181905550612ab58160a15461279b90919063ffffffff16565b60a181905550612ad086609f5461289f90919063ffffffff16565b609f819055506000861115612af557612ae88661126f565b8095508196505050612afe565b60009450600093505b5050509193909250565b6000821115612c0057609860009054906101000a900473ffffffffffffffffffffffffffffffffffffffff1673ffffffffffffffffffffffffffffffffffffffff1663a9059cbb85846040518363ffffffff1660e01b8152600401612b6e929190615290565b602060405180830381600087803b158015612b8857600080fd5b505af1158015612b9c573d6000803e3d6000fd5b505050506040513d601f19601f82011682018060405250810190612bc091906142da565b612bff576040517f08c379a0000000000000000000000000000000000000000000000000000000008152600401612bf6906156ae565b60405180910390fd5b5b6000811115612d1a57609860009054906101000a900473ffffffffffffffffffffffffffffffffffffffff1673ffffffffffffffffffffffffffffffffffffffff1663a9059cbb60aa60009054906101000a900473ffffffffffffffffffffffffffffffffffffffff16836040518363ffffffff1660e01b8152600401612c88929190615290565b602060405180830381600087803b158015612ca257600080fd5b505af1158015612cb6573d6000803e3d6000fd5b505050506040513d601f19601f82011682018060405250810190612cda91906142da565b612d19576040517f08c379a0000000000000000000000000000000000000000000000000000000008152600401612d109061566e565b60405180910390fd5b5b8373ffffffffffffffffffffffffffffffffffffffff167fe49649ad7d04a14b0d2a43dae89f207c0822143ff6f88a6480e88907e4e5c548848484604051612d6493929190615769565b60405180910390a250505050565b600080600080600080612d83612066565b506000612daf609e54612da160a2544261279b90919063ffffffff16565b6127e590919063ffffffff16565b9050612dc68160a05461289f90919063ffffffff16565b60a081905550612de18160a15461289f90919063ffffffff16565b60a1819055504260a281905550600060a660008a73ffffffffffffffffffffffffffffffffffffffff1673ffffffffffffffffffffffffffffffffffffffff16815260200190815260200160002090506000612e608260000154612e5284600201544261279b90919063ffffffff16565b6127e590919063ffffffff16565b9050612e7981836001015461289f90919063ffffffff16565b826001018190555042826002018190555060008060a15411612e9c576000612ecf565b612ece60a154612ec08560010154612eb2611bb9565b6127e590919063ffffffff16565b61285590919063ffffffff16565b5b9050612ed9610fa5565b612ee1611bb9565b846001015460a05484429950995099509950995099505050505091939550919395565b600033905090565b6060600060a760008473ffffffffffffffffffffffffffffffffffffffff1673ffffffffffffffffffffffffffffffffffffffff16815260200190815260200160002080549050905060608167ffffffffffffffff81118015612f6e57600080fd5b50604051908082528060200260200182016040528015612fa857816020015b612f9561408a565b815260200190600190039081612f8d5790505b50905060005b60a760008673ffffffffffffffffffffffffffffffffffffffff1673ffffffffffffffffffffffffffffffffffffffff1681526020019081526020016000208054905081101561309d5760a760008673ffffffffffffffffffffffffffffffffffffffff1673ffffffffffffffffffffffffffffffffffffffff168152602001908152602001600020818154811061304257fe5b9060005260206000209060030201604051806060016040529081600082015481526020016001820154815260200160028201548152505082828151811061308557fe5b60200260200101819052508080600101915050612fae565b508092505050919050565b60a35460a880549050106130f1576040517f08c379a00000000000000000000000000000000000000000000000000000000081526004016130e89061564e565b60405180910390fd5b609c54811015613136576040517f08c379a000000000000000000000000000000000000000000000000000000000815260040161312d9061544e565b60405180910390fd5b61313f33612d72565b505050505050600061314f610fa5565b905060008082116131745761316f60a554866127e590919063ffffffff16565b61319c565b61319b8261318d87609d546127e590919063ffffffff16565b61285590919063ffffffff16565b5b90506131a66140ab565b81816000018181525050838160400181815250506131cd858561289f90919063ffffffff16565b81606001818152505084816080018181525050838160a001818152505060a8819080600181540180825580915050600190039060005260206000209060060201600090919091909150600082015181600001556020820151816001015560408201518160020155606082015181600301556080820151816004015560a08201518160050155505061326982609d5461289f90919063ffffffff16565b609d81905550609960009054906101000a900473ffffffffffffffffffffffffffffffffffffffff1673ffffffffffffffffffffffffffffffffffffffff1663fc0c546a6040518163ffffffff1660e01b815260040160206040518083038186803b1580156132d757600080fd5b505afa1580156132eb573d6000803e3d6000fd5b505050506040513d601f19601f8201168201806040525081019061330f9190614303565b73ffffffffffffffffffffffffffffffffffffffff166323b872dd33609960009054906101000a900473ffffffffffffffffffffffffffffffffffffffff16896040518463ffffffff1660e01b815260040161336d93929190615222565b602060405180830381600087803b15801561338757600080fd5b505af115801561339b573d6000803e3d6000fd5b505050506040513d601f19601f820116820180604052508101906133bf91906142da565b6133fe576040517f08c379a00000000000000000000000000000000000000000000000000000000081526004016133f59061534e565b60405180910390fd5b7ff346961af4c52f314df1b45964746280fe409abb959d4a2458d58f79408b1fe88686613429610fa5565b60405161343893929190615769565b60405180910390a1505050505050565b600080600080841161348f576040517f08c379a0000000000000000000000000000000000000000000000000000000008152600401613486906153ae565b60405180910390fd5b8361349986610f16565b10156134da576040517f08c379a00000000000000000000000000000000000000000000000000000000081526004016134d19061548e565b60405180910390fd5b600061350a6134e7611398565b6134fc87609e546127e590919063ffffffff16565b61285590919063ffffffff16565b90506000811161354f576040517f08c379a00000000000000000000000000000000000000000000000000000000081526004016135469061536e565b60405180910390fd5b8461355987613aa7565b101561359a576040517f08c379a0000000000000000000000000000000000000000000000000000000008152600401613591906155ee565b60405180910390fd5b6135a3866128f4565b809450819550829650505050600060a660008873ffffffffffffffffffffffffffffffffffffffff1673ffffffffffffffffffffffffffffffffffffffff1681526020019081526020016000209050600060a760008973ffffffffffffffffffffffffffffffffffffffff1673ffffffffffffffffffffffffffffffffffffffff16815260200190815260200160002090506000808490505b600081111561376f5760008360018580549050038154811061365a57fe5b90600052602060002090600302019050600061368382600101544261279b90919063ffffffff16565b9050600083836000015411613719576136a98284600001546127e590919063ffffffff16565b90506136be818661289f90919063ffffffff16565b94506136d783600001548561279b90919063ffffffff16565b9350858054806136e357fe5b60019003818190600052602060002090600302016000808201600090556001820160009055600282016000905550509055613767565b61372c82856127e590919063ffffffff16565b9050613741818661289f90919063ffffffff16565b945061375a84846000015461279b90919063ffffffff16565b8360000181905550600093505b50505061363c565b61378682856001015461279b90919063ffffffff16565b84600101819055506137a585856000015461279b90919063ffffffff16565b84600001819055506137c28260a05461279b90919063ffffffff16565b60a0819055506137dd85609e5461279b90919063ffffffff16565b609e81905550609760009054906101000a900473ffffffffffffffffffffffffffffffffffffffff1673ffffffffffffffffffffffffffffffffffffffff1663a9059cbb8b8b6040518363ffffffff1660e01b8152600401613840929190615290565b602060405180830381600087803b15801561385a57600080fd5b505af115801561386e573d6000803e3d6000fd5b505050506040513d601f19601f8201168201806040525081019061389291906142da565b6138d1576040517f08c379a00000000000000000000000000000000000000000000000000000000081526004016138c89061562e565b60405180910390fd5b6138dd8a898989612b08565b8973ffffffffffffffffffffffffffffffffffffffff167faf01bfc8475df280aca00b578c4a948e6d95700f0db8c13365240f7f973c87548a61391f8d610f16565b60405161392d92919061572d565b60405180910390a26000609e54148061394d5750600061394b611398565b115b61398c576040517f08c379a00000000000000000000000000000000000000000000000000000000081526004016139839061546e565b60405180910390fd5b50505050509250925092565b6000803090506000813b9050600081149250505090565b600060019054906101000a900460ff16806139ce57506139cd613998565b5b806139e4575060008054906101000a900460ff16155b613a23576040517f08c379a0000000000000000000000000000000000000000000000000000000008152600401613a1a906155ae565b60405180910390fd5b60008060019054906101000a900460ff161590508015613a73576001600060016101000a81548160ff02191690831515021790555060016000806101000a81548160ff0219169083151502179055505b613a7b613de3565b613a83613ecb565b8015613aa45760008060016101000a81548160ff0219169083151502179055505b50565b60006060613ab483612f0c565b90506000915060005b8151811015613b2957613ae6828281518110613ad557fe5b60200260200101516020015161405c565b15613b1c57613b19613b0a838381518110613afd57fe5b6020026020010151611d43565b8461289f90919063ffffffff16565b92505b8080600101915050613abd565b5050919050565b60008060a88381548110613b4057fe5b906000526020600020906006020190508060000154816001015410613b69576000915050613c2e565b80600501544211613b7e576000915050613c2e565b600081600301544210613bba57613ba68260010154836000015461279b90919063ffffffff16565b905081600301548260020181905550613c09565b613bfd8260040154613bef8460000154613be186600201544261279b90919063ffffffff16565b6127e590919063ffffffff16565b61285590919063ffffffff16565b90504282600201819055505b613c2081836001015461289f90919063ffffffff16565b826001018190555080925050505b919050565b6000838311158290613c7b576040517f08c379a0000000000000000000000000000000000000000000000000000000008152600401613c72919061532c565b60405180910390fd5b5060008385039050809150509392505050565b60008083118290613cd5576040517f08c379a0000000000000000000000000000000000000000000000000000000008152600401613ccc919061532c565b60405180910390fd5b506000838581613ce157fe5b049050809150509392505050565b600080613d2060a154613d1286613d04611bb9565b6127e590919063ffffffff16565b61285590919063ffffffff16565b9050609b548310613d4657613d3e818661289f90919063ffffffff16565b915050613ddc565b6000606490506000613dc182613db385613da5613d94609b54613d868c613d78609a548c61279b90919063ffffffff16565b6127e590919063ffffffff16565b61285590919063ffffffff16565b609a5461289f90919063ffffffff16565b6127e590919063ffffffff16565b61285590919063ffffffff16565b9050613dd6818861289f90919063ffffffff16565b93505050505b9392505050565b600060019054906101000a900460ff1680613e025750613e01613998565b5b80613e18575060008054906101000a900460ff16155b613e57576040517f08c379a0000000000000000000000000000000000000000000000000000000008152600401613e4e906155ae565b60405180910390fd5b60008060019054906101000a900460ff161590508015613ea7576001600060016101000a81548160ff02191690831515021790555060016000806101000a81548160ff0219169083151502179055505b8015613ec85760008060016101000a81548160ff0219169083151502179055505b50565b600060019054906101000a900460ff1680613eea5750613ee9613998565b5b80613f00575060008054906101000a900460ff16155b613f3f576040517f08c379a0000000000000000000000000000000000000000000000000000000008152600401613f36906155ae565b60405180910390fd5b60008060019054906101000a900460ff161590508015613f8f576001600060016101000a81548160ff02191690831515021790555060016000806101000a81548160ff0219169083151502179055505b6000613f99612f04565b905080606560006101000a81548173ffffffffffffffffffffffffffffffffffffffff021916908373ffffffffffffffffffffffffffffffffffffffff1602179055508073ffffffffffffffffffffffffffffffffffffffff16600073ffffffffffffffffffffffffffffffffffffffff167f8be0079c531659141344cd1fd0a4f28419497f9722a3daafe3b4186f6b6457e060405160405180910390a35080156140595760008060016101000a81548160ff0219169083151502179055505b50565b600061407360ab548361289f90919063ffffffff16565b4210159050919050565b610e1a80615a0d83390190565b60405180606001604052806000815260200160008152602001600081525090565b6040518060c001604052806000815260200160008152602001600081526020016000815260200160008152602001600081525090565b6000813590506140f0816159b0565b92915050565b600081519050614105816159c7565b92915050565b60008083601f84011261411d57600080fd5b8235905067ffffffffffffffff81111561413657600080fd5b60208301915083600182028301111561414e57600080fd5b9250929050565b600081359050614164816159de565b92915050565b600081519050614179816159de565b92915050565b60006060828403121561419157600080fd5b61419b6060615801565b905060006141ab848285016141df565b60008301525060206141bf848285016141df565b60208301525060406141d3848285016141df565b60408301525092915050565b6000813590506141ee816159f5565b92915050565b600081519050614203816159f5565b92915050565b60006020828403121561421b57600080fd5b6000614229848285016140e1565b91505092915050565b6000806040838503121561424557600080fd5b6000614253858286016140e1565b9250506020614264858286016141df565b9150509250929050565b6000806000806060858703121561428457600080fd5b6000614292878288016140e1565b94505060206142a3878288016141df565b935050604085013567ffffffffffffffff8111156142c057600080fd5b6142cc8782880161410b565b925092505092959194509250565b6000602082840312156142ec57600080fd5b60006142fa848285016140f6565b91505092915050565b60006020828403121561431557600080fd5b60006143238482850161416a565b91505092915050565b6000806000806000806000806000806101408b8d03121561434c57600080fd5b600061435a8d828e01614155565b9a5050602061436b8d828e01614155565b995050604061437c8d828e016141df565b985050606061438d8d828e016141df565b975050608061439e8d828e016141df565b96505060a06143af8d828e016141df565b95505060c06143c08d828e016141df565b94505060e06143d18d828e016140e1565b9350506101006143e38d828e016141df565b9250506101206143f58d828e016141df565b9150509295989b9194979a5092959850565b60006060828403121561441957600080fd5b60006144278482850161417f565b91505092915050565b60006020828403121561444257600080fd5b6000614450848285016141df565b91505092915050565b60006020828403121561446b57600080fd5b6000614479848285016141f4565b91505092915050565b60008060006040848603121561449757600080fd5b60006144a5868287016141df565b935050602084013567ffffffffffffffff8111156144c257600080fd5b6144ce8682870161410b565b92509250509250925092565b6000806000606084860312156144ef57600080fd5b60006144fd868287016141df565b935050602061450e868287016141df565b925050604061451f868287016141df565b9150509250925092565b60006145358383615165565b60608301905092915050565b61454a816158ee565b82525050565b61455981615894565b82525050565b600061456a8261583e565b6145748185615861565b935061457f8361582e565b8060005b838110156145b05781516145978882614529565b97506145a283615854565b925050600181019050614583565b5085935050505092915050565b6145c6816158a6565b82525050565b6145d581615900565b82525050565b6145e481615924565b82525050565b60006145f582615849565b6145ff8185615883565b935061460f81856020860161596c565b6146188161599f565b840191505092915050565b6000614630602e83615883565b91507f4261646765724765797365723a207472616e7366657220696e746f206c6f636b60008301527f656420706f6f6c206661696c65640000000000000000000000000000000000006020830152604082019050919050565b6000614696603183615883565b91507f4c6f636b65644765797365723a20556e61626c6520746f20756e7374616b652060008301527f616d6f756e74207468697320736d616c6c0000000000000000000000000000006020830152604082019050919050565b60006146fc603083615883565b91507f4261646765724765797365723a207472616e73666572206f7574206f66206c6f60008301527f636b656420706f6f6c206661696c6564000000000000000000000000000000006020830152604082019050919050565b6000614762602483615883565b91507f4c6f636b65644765797365723a20756e7374616b6520616d6f756e742069732060008301527f7a65726f000000000000000000000000000000000000000000000000000000006020830152604082019050919050565b60006147c8602683615883565b91507f4f776e61626c653a206e6577206f776e657220697320746865207a65726f206160008301527f64647265737300000000000000000000000000000000000000000000000000006020830152604082019050919050565b600061482e601b83615883565b91507f536166654d6174683a206164646974696f6e206f766572666c6f7700000000006000830152602082019050919050565b600061486e602783615883565b91507f4261646765724765797365723a205374616b6520616d6f756e7420697320746f60008301527f6f20736d616c6c000000000000000000000000000000000000000000000000006020830152604082019050919050565b60006148d4602283615883565b91507f4c6f636b65644765797365723a20737461727420626f6e757320746f6f20686960008301527f67680000000000000000000000000000000000000000000000000000000000006020830152604082019050919050565b600061493a603c83615883565b91507f4261646765724765797365723a207363686564756c652063616e6e6f7420737460008301527f617274206265666f726520676c6f62616c2073746172742074696d65000000006020830152604082019050919050565b60006149a0604d83615883565b91507f4c6f636b65644765797365723a204572726f7220756e7374616b696e672e205360008301527f74616b696e67207368617265732065786973742c20627574206e6f207374616b60208301527f696e6720746f6b656e7320646f000000000000000000000000000000000000006040830152606082019050919050565b6000614a2c603e83615883565b91507f4c6f636b65644765797365723a20756e7374616b6520616d6f756e742069732060008301527f67726561746572207468616e20746f74616c2075736572207374616b657300006020830152604082019050919050565b6000614a92603b83615883565b91507f4261646765724765797365723a2075736572206d75737420686176652073746160008301527f6b656420616d6f756e7420746f20636c61696d207265776172647300000000006020830152604082019050919050565b6000614af8602f83615883565b91507f4261646765724765797365723a207472616e7366657220696e746f207374616b60008301527f696e6720706f6f6c206661696c656400000000000000000000000000000000006020830152604082019050919050565b6000614b5e602283615883565b91507f4261646765724765797365723a207374616b6520616d6f756e74206973207a6560008301527f726f0000000000000000000000000000000000000000000000000000000000006020830152604082019050919050565b6000614bc4604b83615883565b91507f4261646765724765797365723a20496e76616c69642073746174652e2053746160008301527f6b696e67207368617265732065786973742c20627574206e6f207374616b696e60208301527f6720746f6b656e7320646f0000000000000000000000000000000000000000006040830152606082019050919050565b6000614c50602983615883565b91507f4261646765724765797365723a2062656e6566696369617279206973207a657260008301527f6f206164647265737300000000000000000000000000000000000000000000006020830152604082019050919050565b6000614cb6602183615883565b91507f536166654d6174683a206d756c7469706c69636174696f6e206f766572666c6f60008301527f77000000000000000000000000000000000000000000000000000000000000006020830152604082019050919050565b6000614d1c602083615883565b91507f4f776e61626c653a2063616c6c6572206973206e6f7420746865206f776e65726000830152602082019050919050565b6000614d5c602583615883565b91507f4c6f636b65644765797365723a20666f756e6465722072657761726420746f6f60008301527f20686967680000000000000000000000000000000000000000000000000000006020830152604082019050919050565b6000614dc2602e83615883565b91507f436f6e747261637420696e7374616e63652068617320616c726561647920626560008301527f656e20696e697469616c697a65640000000000000000000000000000000000006020830152604082019050919050565b6000614e28602283615883565b91507f4c6f636b65644765797365723a20626f6e757320706572696f64206973207a6560008301527f726f0000000000000000000000000000000000000000000000000000000000006020830152604082019050919050565b6000614e8e600083615872565b9150600082019050919050565b6000614ea8603483615883565b91507f4c6f636b65644765797365723a20496e737566666963656e742076616c75652060008301527f617661696c61626c6520746f20756e7374616b650000000000000000000000006020830152604082019050919050565b6000614f0e602683615883565b91507f4261646765724765797365723a20446973747269627574696f6e206e6f74207360008301527f74617274656400000000000000000000000000000000000000000000000000006020830152604082019050919050565b6000614f74603183615883565b91507f4c6f636b65644765797365723a207472616e73666572206f7574206f6620737460008301527f616b696e6720706f6f6c206661696c65640000000000000000000000000000006020830152604082019050919050565b6000614fda602e83615883565b91507f4261646765724765797365723a2072656163686564206d6178696d756d20756e60008301527f6c6f636b207363686564756c65730000000000000000000000000000000000006020830152604082019050919050565b6000615040603d83615883565b91507f4261646765724765797365723a207472616e7366657220746f20666f756e646560008301527f72206f7574206f6620756e6c6f636b656420706f6f6c206661696c65640000006020830152604082019050919050565b60006150a6602b83615883565b91507f4c6f636b65644765797365723a20696e697469616c536861726573506572546f60008301527f6b656e206973207a65726f0000000000000000000000000000000000000000006020830152604082019050919050565b600061510c603a83615883565b91507f4261646765724765797365723a207472616e7366657220746f2075736572206f60008301527f7574206f6620756e6c6f636b656420706f6f6c206661696c65640000000000006020830152604082019050919050565b60608201600082015161517b60008501826151e9565b50602082015161518e60208501826151e9565b5060408201516151a160408501826151e9565b50505050565b6060820160008201516151bd60008501826151e9565b5060208201516151d060208501826151e9565b5060408201516151e360408501826151e9565b50505050565b6151f2816158e4565b82525050565b615201816158e4565b82525050565b600060208201905061521c6000830184614550565b92915050565b60006060820190506152376000830186614541565b6152446020830185614550565b61525160408301846151f8565b949350505050565b600060608201905061526e6000830186614550565b61527b6020830185614550565b61528860408301846151f8565b949350505050565b60006040820190506152a56000830185614550565b6152b260208301846151f8565b9392505050565b600060208201905081810360008301526152d3818461455f565b905092915050565b60006020820190506152f060008301846145bd565b92915050565b600060208201905061530b60008301846145cc565b92915050565b600060208201905061532660008301846145db565b92915050565b6000602082019050818103600083015261534681846145ea565b905092915050565b6000602082019050818103600083015261536781614623565b9050919050565b6000602082019050818103600083015261538781614689565b9050919050565b600060208201905081810360008301526153a7816146ef565b9050919050565b600060208201905081810360008301526153c781614755565b9050919050565b600060208201905081810360008301526153e7816147bb565b9050919050565b6000602082019050818103600083015261540781614821565b9050919050565b6000602082019050818103600083015261542781614861565b9050919050565b60006020820190508181036000830152615447816148c7565b9050919050565b600060208201905081810360008301526154678161492d565b9050919050565b6000602082019050818103600083015261548781614993565b9050919050565b600060208201905081810360008301526154a781614a1f565b9050919050565b600060208201905081810360008301526154c781614a85565b9050919050565b600060208201905081810360008301526154e781614aeb565b9050919050565b6000602082019050818103600083015261550781614b51565b9050919050565b6000602082019050818103600083015261552781614bb7565b9050919050565b6000602082019050818103600083015261554781614c43565b9050919050565b6000602082019050818103600083015261556781614ca9565b9050919050565b6000602082019050818103600083015261558781614d0f565b9050919050565b600060208201905081810360008301526155a781614d4f565b9050919050565b600060208201905081810360008301526155c781614db5565b9050919050565b600060208201905081810360008301526155e781614e1b565b9050919050565b6000602082019050818103600083015261560781614e9b565b9050919050565b6000602082019050818103600083015261562781614f01565b9050919050565b6000602082019050818103600083015261564781614f67565b9050919050565b6000602082019050818103600083015261566781614fcd565b9050919050565b6000602082019050818103600083015261568781615033565b9050919050565b600060208201905081810360008301526156a781615099565b9050919050565b600060208201905081810360008301526156c7816150ff565b9050919050565b60006060820190506156e360008301846151a7565b92915050565b60006020820190506156fe60008301846151f8565b92915050565b600060408201905061571960008301856151f8565b61572660208301846151f8565b9392505050565b600060608201905061574260008301856151f8565b61574f60208301846151f8565b818103604083015261576081614e81565b90509392505050565b600060608201905061577e60008301866151f8565b61578b60208301856151f8565b61579860408301846151f8565b949350505050565b600060c0820190506157b560008301896151f8565b6157c260208301886151f8565b6157cf60408301876151f8565b6157dc60608301866151f8565b6157e960808301856151f8565b6157f660a08301846151f8565b979650505050505050565b6000604051905081810181811067ffffffffffffffff8211171561582457600080fd5b8060405250919050565b6000819050602082019050919050565b600081519050919050565b600081519050919050565b6000602082019050919050565b600082825260208201905092915050565b600082825260208201905092915050565b600082825260208201905092915050565b600061589f826158c4565b9050919050565b60008115159050919050565b60006158bd82615894565b9050919050565b600073ffffffffffffffffffffffffffffffffffffffff82169050919050565b6000819050919050565b60006158f982615948565b9050919050565b600061590b82615912565b9050919050565b600061591d826158c4565b9050919050565b600061592f82615936565b9050919050565b6000615941826158c4565b9050919050565b60006159538261595a565b9050919050565b6000615965826158c4565b9050919050565b60005b8381101561598a57808201518184015260208101905061596f565b83811115615999576000848401525b50505050565b6000601f19601f8301169050919050565b6159b981615894565b81146159c457600080fd5b50565b6159d0816158a6565b81146159db57600080fd5b50565b6159e7816158b2565b81146159f257600080fd5b50565b6159fe816158e4565b8114615a0957600080fd5b5056fe608060405234801561001057600080fd5b50610dfa806100206000396000f3fe608060405234801561001057600080fd5b506004361061007d5760003560e01c8063b69ef8a81161005b578063b69ef8a814610124578063c4d66de814610142578063f2fde38b14610186578063fc0c546a146101ca5761007d565b8063715018a6146100825780638da5cb5b1461008c578063a9059cbb146100c0575b600080fd5b61008a6101fe565b005b610094610389565b604051808273ffffffffffffffffffffffffffffffffffffffff16815260200191505060405180910390f35b61010c600480360360408110156100d657600080fd5b81019080803573ffffffffffffffffffffffffffffffffffffffff169060200190929190803590602001909291905050506103b3565b60405180821515815260200191505060405180910390f35b61012c610555565b6040518082815260200191505060405180910390f35b6101846004803603602081101561015857600080fd5b81019080803573ffffffffffffffffffffffffffffffffffffffff169060200190929190505050610620565b005b6101c86004803603602081101561019c57600080fd5b81019080803573ffffffffffffffffffffffffffffffffffffffff169060200190929190505050610768565b005b6101d2610978565b604051808273ffffffffffffffffffffffffffffffffffffffff16815260200191505060405180910390f35b61020661099e565b73ffffffffffffffffffffffffffffffffffffffff16606560009054906101000a900473ffffffffffffffffffffffffffffffffffffffff1673ffffffffffffffffffffffffffffffffffffffff16146102c8576040517f08c379a00000000000000000000000000000000000000000000000000000000081526004018080602001828103825260208152602001807f4f776e61626c653a2063616c6c6572206973206e6f7420746865206f776e657281525060200191505060405180910390fd5b600073ffffffffffffffffffffffffffffffffffffffff16606560009054906101000a900473ffffffffffffffffffffffffffffffffffffffff1673ffffffffffffffffffffffffffffffffffffffff167f8be0079c531659141344cd1fd0a4f28419497f9722a3daafe3b4186f6b6457e060405160405180910390a36000606560006101000a81548173ffffffffffffffffffffffffffffffffffffffff021916908373ffffffffffffffffffffffffffffffffffffffff160217905550565b6000606560009054906101000a900473ffffffffffffffffffffffffffffffffffffffff16905090565b60006103bd61099e565b73ffffffffffffffffffffffffffffffffffffffff16606560009054906101000a900473ffffffffffffffffffffffffffffffffffffffff1673ffffffffffffffffffffffffffffffffffffffff161461047f576040517f08c379a00000000000000000000000000000000000000000000000000000000081526004018080602001828103825260208152602001807f4f776e61626c653a2063616c6c6572206973206e6f7420746865206f776e657281525060200191505060405180910390fd5b609760009054906101000a900473ffffffffffffffffffffffffffffffffffffffff1673ffffffffffffffffffffffffffffffffffffffff1663a9059cbb84846040518363ffffffff1660e01b8152600401808373ffffffffffffffffffffffffffffffffffffffff16815260200182815260200192505050602060405180830381600087803b15801561051257600080fd5b505af1158015610526573d6000803e3d6000fd5b505050506040513d602081101561053c57600080fd5b8101908080519060200190929190505050905092915050565b6000609760009054906101000a900473ffffffffffffffffffffffffffffffffffffffff1673ffffffffffffffffffffffffffffffffffffffff166370a08231306040518263ffffffff1660e01b8152600401808273ffffffffffffffffffffffffffffffffffffffff16815260200191505060206040518083038186803b1580156105e057600080fd5b505afa1580156105f4573d6000803e3d6000fd5b505050506040513d602081101561060a57600080fd5b8101908080519060200190929190505050905090565b600060019054906101000a900460ff168061063f575061063e6109a6565b5b80610655575060008054906101000a900460ff16155b6106aa576040517f08c379a000000000000000000000000000000000000000000000000000000000815260040180806020018281038252602e815260200180610d97602e913960400191505060405180910390fd5b60008060019054906101000a900460ff1615905080156106fa576001600060016101000a81548160ff02191690831515021790555060016000806101000a81548160ff0219169083151502179055505b6107026109bd565b81609760006101000a81548173ffffffffffffffffffffffffffffffffffffffff021916908373ffffffffffffffffffffffffffffffffffffffff16021790555080156107645760008060016101000a81548160ff0219169083151502179055505b5050565b61077061099e565b73ffffffffffffffffffffffffffffffffffffffff16606560009054906101000a900473ffffffffffffffffffffffffffffffffffffffff1673ffffffffffffffffffffffffffffffffffffffff1614610832576040517f08c379a00000000000000000000000000000000000000000000000000000000081526004018080602001828103825260208152602001807f4f776e61626c653a2063616c6c6572206973206e6f7420746865206f776e657281525060200191505060405180910390fd5b600073ffffffffffffffffffffffffffffffffffffffff168173ffffffffffffffffffffffffffffffffffffffff1614156108b8576040517f08c379a0000000000000000000000000000000000000000000000000000000008152600401808060200182810382526026815260200180610d716026913960400191505060405180910390fd5b8073ffffffffffffffffffffffffffffffffffffffff16606560009054906101000a900473ffffffffffffffffffffffffffffffffffffffff1673ffffffffffffffffffffffffffffffffffffffff167f8be0079c531659141344cd1fd0a4f28419497f9722a3daafe3b4186f6b6457e060405160405180910390a380606560006101000a81548173ffffffffffffffffffffffffffffffffffffffff021916908373ffffffffffffffffffffffffffffffffffffffff16021790555050565b609760009054906101000a900473ffffffffffffffffffffffffffffffffffffffff1681565b600033905090565b6000803090506000813b9050600081149250505090565b600060019054906101000a900460ff16806109dc57506109db6109a6565b5b806109f2575060008054906101000a900460ff16155b610a47576040517f08c379a000000000000000000000000000000000000000000000000000000000815260040180806020018281038252602e815260200180610d97602e913960400191505060405180910390fd5b60008060019054906101000a900460ff161590508015610a97576001600060016101000a81548160ff02191690831515021790555060016000806101000a81548160ff0219169083151502179055505b610a9f610acb565b610aa7610bc9565b8015610ac85760008060016101000a81548160ff0219169083151502179055505b50565b600060019054906101000a900460ff1680610aea5750610ae96109a6565b5b80610b00575060008054906101000a900460ff16155b610b55576040517f08c379a000000000000000000000000000000000000000000000000000000000815260040180806020018281038252602e815260200180610d97602e913960400191505060405180910390fd5b60008060019054906101000a900460ff161590508015610ba5576001600060016101000a81548160ff02191690831515021790555060016000806101000a81548160ff0219169083151502179055505b8015610bc65760008060016101000a81548160ff0219169083151502179055505b50565b600060019054906101000a900460ff1680610be85750610be76109a6565b5b80610bfe575060008054906101000a900460ff16155b610c53576040517f08c379a000000000000000000000000000000000000000000000000000000000815260040180806020018281038252602e815260200180610d97602e913960400191505060405180910390fd5b60008060019054906101000a900460ff161590508015610ca3576001600060016101000a81548160ff02191690831515021790555060016000806101000a81548160ff0219169083151502179055505b6000610cad61099e565b905080606560006101000a81548173ffffffffffffffffffffffffffffffffffffffff021916908373ffffffffffffffffffffffffffffffffffffffff1602179055508073ffffffffffffffffffffffffffffffffffffffff16600073ffffffffffffffffffffffffffffffffffffffff167f8be0079c531659141344cd1fd0a4f28419497f9722a3daafe3b4186f6b6457e060405160405180910390a3508015610d6d5760008060016101000a81548160ff0219169083151502179055505b5056fe4f776e61626c653a206e6577206f776e657220697320746865207a65726f2061646472657373436f6e747261637420696e7374616e63652068617320616c7265616479206265656e20696e697469616c697a6564a26469706673582212200b4f93079defacfc55c2f41dcd25cd766b59d1f1d1dfa329c737d2afb1b504ce64736f6c634300060c0033a264697066735822122089b4074c5d9b66017c8ef6d7dc534185b7cf48cf3423eaf9e6fb2a77fb74448a64736f6c634300060c0033",
  "linkReferences": {},
  "deployedLinkReferences": {}
}